{
	"contracts/VotingSystem.sol": {
		"VotingSystem": {
			"abi": [
				{
					"inputs": [],
					"stateMutability": "nonpayable",
					"type": "constructor"
				},
				{
					"inputs": [
						{
							"internalType": "address",
							"name": "_admin",
							"type": "address"
						}
					],
					"name": "addAdmin",
					"outputs": [],
					"stateMutability": "nonpayable",
					"type": "function"
				},
				{
					"inputs": [
						{
							"internalType": "address",
							"name": "",
							"type": "address"
						}
					],
					"name": "admins",
					"outputs": [
						{
							"internalType": "bool",
							"name": "",
							"type": "bool"
						}
					],
					"stateMutability": "view",
					"type": "function"
				},
				{
					"inputs": [
						{
							"internalType": "string",
							"name": "_name",
							"type": "string"
						},
						{
							"internalType": "string",
							"name": "_description",
							"type": "string"
						}
					],
					"name": "createTopic",
					"outputs": [
						{
							"internalType": "uint256",
							"name": "",
							"type": "uint256"
						}
					],
					"stateMutability": "nonpayable",
					"type": "function"
				},
				{
					"inputs": [
						{
							"internalType": "uint256",
							"name": "_topicId",
							"type": "uint256"
						}
					],
					"name": "endTopic",
					"outputs": [],
					"stateMutability": "nonpayable",
					"type": "function"
				},
				{
					"inputs": [
						{
							"internalType": "uint256",
							"name": "_topicId",
							"type": "uint256"
						}
					],
					"name": "getTopicDescription",
					"outputs": [
						{
							"internalType": "string",
							"name": "",
							"type": "string"
						}
					],
					"stateMutability": "view",
					"type": "function"
				},
				{
					"inputs": [
						{
							"internalType": "uint256",
							"name": "_topicId",
							"type": "uint256"
						}
					],
					"name": "getTopicName",
					"outputs": [
						{
							"internalType": "string",
							"name": "",
							"type": "string"
						}
					],
					"stateMutability": "view",
					"type": "function"
				},
				{
					"inputs": [
						{
							"internalType": "uint256",
							"name": "_topicId",
							"type": "uint256"
						}
					],
					"name": "getTopicResult",
					"outputs": [
						{
							"internalType": "uint256",
							"name": "",
							"type": "uint256"
						},
						{
							"internalType": "uint256",
							"name": "",
							"type": "uint256"
						}
					],
					"stateMutability": "view",
					"type": "function"
				},
				{
					"inputs": [
						{
							"internalType": "uint256",
							"name": "_topicId",
							"type": "uint256"
						}
					],
					"name": "getTopicVotingIds",
					"outputs": [
						{
							"internalType": "uint256[]",
							"name": "",
							"type": "uint256[]"
						}
					],
					"stateMutability": "view",
					"type": "function"
				},
				{
					"inputs": [
						{
							"internalType": "uint256",
							"name": "_topicId",
							"type": "uint256"
						},
						{
							"internalType": "address",
							"name": "_voter",
							"type": "address"
						}
					],
					"name": "getVote",
					"outputs": [
						{
							"internalType": "bool",
							"name": "",
							"type": "bool"
						}
					],
					"stateMutability": "view",
					"type": "function"
				},
				{
					"inputs": [
						{
							"internalType": "uint256",
							"name": "_topicId",
							"type": "uint256"
						},
						{
							"internalType": "address",
							"name": "_voter",
							"type": "address"
						}
					],
					"name": "hasVoted",
					"outputs": [
						{
							"internalType": "bool",
							"name": "",
							"type": "bool"
						}
					],
					"stateMutability": "view",
					"type": "function"
				},
				{
					"inputs": [],
					"name": "numTopics",
					"outputs": [
						{
							"internalType": "uint256",
							"name": "",
							"type": "uint256"
						}
					],
					"stateMutability": "view",
					"type": "function"
				},
				{
					"inputs": [],
					"name": "numVotings",
					"outputs": [
						{
							"internalType": "uint256",
							"name": "",
							"type": "uint256"
						}
					],
					"stateMutability": "view",
					"type": "function"
				},
				{
					"inputs": [
						{
							"internalType": "address",
							"name": "_admin",
							"type": "address"
						}
					],
					"name": "removeAdmin",
					"outputs": [],
					"stateMutability": "nonpayable",
					"type": "function"
				},
				{
					"inputs": [
						{
							"internalType": "uint256",
							"name": "",
							"type": "uint256"
						}
					],
					"name": "topics",
					"outputs": [
						{
							"internalType": "string",
							"name": "name",
							"type": "string"
						},
						{
							"internalType": "string",
							"name": "description",
							"type": "string"
						},
						{
							"internalType": "uint256",
							"name": "yesVotes",
							"type": "uint256"
						},
						{
							"internalType": "uint256",
							"name": "noVotes",
							"type": "uint256"
						},
						{
							"internalType": "bool",
							"name": "active",
							"type": "bool"
						}
					],
					"stateMutability": "view",
					"type": "function"
				},
				{
					"inputs": [
						{
							"internalType": "uint256",
							"name": "_topicId",
							"type": "uint256"
						},
						{
							"internalType": "bool",
							"name": "_vote",
							"type": "bool"
						}
					],
					"name": "vote",
					"outputs": [],
					"stateMutability": "nonpayable",
					"type": "function"
				}
			],
			"devdoc": {
				"kind": "dev",
				"methods": {},
				"version": 1
			},
			"evm": {
				"assembly": "    /* \"contracts/VotingSystem.sol\":25:3260  contract VotingSystem {... */\n  mstore(0x40, 0x80)\n    /* \"contracts/VotingSystem.sol\":529:628  constructor() {... */\n  callvalue\n  dup1\n  iszero\n  tag_1\n  jumpi\n  0x00\n  dup1\n  revert\ntag_1:\n  pop\n    /* \"contracts/VotingSystem.sol\":574:578  true */\n  0x01\n    /* \"contracts/VotingSystem.sol\":553:559  admins */\n  0x00\n    /* \"contracts/VotingSystem.sol\":553:571  admins[msg.sender] */\n  dup1\n    /* \"contracts/VotingSystem.sol\":560:570  msg.sender */\n  caller\n    /* \"contracts/VotingSystem.sol\":553:571  admins[msg.sender] */\n  0xffffffffffffffffffffffffffffffffffffffff\n  and\n  0xffffffffffffffffffffffffffffffffffffffff\n  and\n  dup2\n  mstore\n  0x20\n  add\n  swap1\n  dup2\n  mstore\n  0x20\n  add\n  0x00\n  keccak256\n  0x00\n    /* \"contracts/VotingSystem.sol\":553:578  admins[msg.sender] = true */\n  0x0100\n  exp\n  dup2\n  sload\n  dup2\n  0xff\n  mul\n  not\n  and\n  swap1\n  dup4\n  iszero\n  iszero\n  mul\n  or\n  swap1\n  sstore\n  pop\n    /* \"contracts/VotingSystem.sol\":25:3260  contract VotingSystem {... */\n  dataSize(sub_0)\n  dup1\n  dataOffset(sub_0)\n  0x00\n  codecopy\n  0x00\n  return\nstop\n\nsub_0: assembly {\n        /* \"contracts/VotingSystem.sol\":25:3260  contract VotingSystem {... */\n      mstore(0x40, 0x80)\n      callvalue\n      dup1\n      iszero\n      tag_1\n      jumpi\n      0x00\n      dup1\n      revert\n    tag_1:\n      pop\n      jumpi(tag_2, lt(calldatasize, 0x04))\n      shr(0xe0, calldataload(0x00))\n      dup1\n      0x6f460f95\n      gt\n      tag_18\n      jumpi\n      dup1\n      0xa29092ed\n      gt\n      tag_19\n      jumpi\n      dup1\n      0xa29092ed\n      eq\n      tag_14\n      jumpi\n      dup1\n      0xbc3f931f\n      eq\n      tag_15\n      jumpi\n      dup1\n      0xc9d27afe\n      eq\n      tag_16\n      jumpi\n      dup1\n      0xe27684e5\n      eq\n      tag_17\n      jumpi\n      jump(tag_2)\n    tag_19:\n      dup1\n      0x6f460f95\n      eq\n      tag_10\n      jumpi\n      dup1\n      0x70480275\n      eq\n      tag_11\n      jumpi\n      dup1\n      0x745fa941\n      eq\n      tag_12\n      jumpi\n      dup1\n      0x9dc58d3f\n      eq\n      tag_13\n      jumpi\n      jump(tag_2)\n    tag_18:\n      dup1\n      0x429b62e5\n      gt\n      tag_20\n      jumpi\n      dup1\n      0x429b62e5\n      eq\n      tag_6\n      jumpi\n      dup1\n      0x43859632\n      eq\n      tag_7\n      jumpi\n      dup1\n      0x62f8a1fd\n      eq\n      tag_8\n      jumpi\n      dup1\n      0x6e8d1dc8\n      eq\n      tag_9\n      jumpi\n      jump(tag_2)\n    tag_20:\n      dup1\n      0x0743c33a\n      eq\n      tag_3\n      jumpi\n      dup1\n      0x1785f53c\n      eq\n      tag_4\n      jumpi\n      dup1\n      0x18d9adab\n      eq\n      tag_5\n      jumpi\n    tag_2:\n      0x00\n      dup1\n      revert\n        /* \"contracts/VotingSystem.sol\":965:1274  function createTopic(string memory _name, string memory _description) public onlyAdmin returns (uint256){... */\n    tag_3:\n      tag_21\n      0x04\n      dup1\n      calldatasize\n      sub\n      dup2\n      add\n      swap1\n      tag_22\n      swap2\n      swap1\n      tag_23\n      jump\t// in\n    tag_22:\n      tag_24\n      jump\t// in\n    tag_21:\n      mload(0x40)\n      tag_25\n      swap2\n      swap1\n      tag_26\n      jump\t// in\n    tag_25:\n      mload(0x40)\n      dup1\n      swap2\n      sub\n      swap1\n      return\n        /* \"contracts/VotingSystem.sol\":862:955  function removeAdmin(address _admin) public onlyAdmin {... */\n    tag_4:\n      tag_27\n      0x04\n      dup1\n      calldatasize\n      sub\n      dup2\n      add\n      swap1\n      tag_28\n      swap2\n      swap1\n      tag_29\n      jump\t// in\n    tag_28:\n      tag_30\n      jump\t// in\n    tag_27:\n      stop\n        /* \"contracts/VotingSystem.sol\":417:457  mapping (uint256 => Topic) public topics */\n    tag_5:\n      tag_31\n      0x04\n      dup1\n      calldatasize\n      sub\n      dup2\n      add\n      swap1\n      tag_32\n      swap2\n      swap1\n      tag_33\n      jump\t// in\n    tag_32:\n      tag_34\n      jump\t// in\n    tag_31:\n      mload(0x40)\n      tag_35\n      swap6\n      swap5\n      swap4\n      swap3\n      swap2\n      swap1\n      tag_36\n      jump\t// in\n    tag_35:\n      mload(0x40)\n      dup1\n      swap2\n      sub\n      swap1\n      return\n        /* \"contracts/VotingSystem.sol\":372:411  mapping (address => bool) public admins */\n    tag_6:\n      tag_37\n      0x04\n      dup1\n      calldatasize\n      sub\n      dup2\n      add\n      swap1\n      tag_38\n      swap2\n      swap1\n      tag_29\n      jump\t// in\n    tag_38:\n      tag_39\n      jump\t// in\n    tag_37:\n      mload(0x40)\n      tag_40\n      swap2\n      swap1\n      tag_41\n      jump\t// in\n    tag_40:\n      mload(0x40)\n      dup1\n      swap2\n      sub\n      swap1\n      return\n        /* \"contracts/VotingSystem.sol\":2800:2977  function hasVoted(uint256 _topicId, address _voter) public view returns (bool) {... */\n    tag_7:\n      tag_42\n      0x04\n      dup1\n      calldatasize\n      sub\n      dup2\n      add\n      swap1\n      tag_43\n      swap2\n      swap1\n      tag_44\n      jump\t// in\n    tag_43:\n      tag_45\n      jump\t// in\n    tag_42:\n      mload(0x40)\n      tag_46\n      swap2\n      swap1\n      tag_41\n      jump\t// in\n    tag_46:\n      mload(0x40)\n      dup1\n      swap2\n      sub\n      swap1\n      return\n        /* \"contracts/VotingSystem.sol\":2656:2790  function getTopicVotingIds(uint256 _topicId) public view returns (uint256[] memory) {... */\n    tag_8:\n      tag_47\n      0x04\n      dup1\n      calldatasize\n      sub\n      dup2\n      add\n      swap1\n      tag_48\n      swap2\n      swap1\n      tag_33\n      jump\t// in\n    tag_48:\n      tag_49\n      jump\t// in\n    tag_47:\n      mload(0x40)\n      tag_50\n      swap2\n      swap1\n      tag_51\n      jump\t// in\n    tag_50:\n      mload(0x40)\n      dup1\n      swap2\n      sub\n      swap1\n      return\n        /* \"contracts/VotingSystem.sol\":2054:2214  function getTopicName(uint256 _topicId) public view returns (string memory) {... */\n    tag_9:\n      tag_52\n      0x04\n      dup1\n      calldatasize\n      sub\n      dup2\n      add\n      swap1\n      tag_53\n      swap2\n      swap1\n      tag_33\n      jump\t// in\n    tag_53:\n      tag_54\n      jump\t// in\n    tag_52:\n      mload(0x40)\n      tag_55\n      swap2\n      swap1\n      tag_56\n      jump\t// in\n    tag_55:\n      mload(0x40)\n      dup1\n      swap2\n      sub\n      swap1\n      return\n        /* \"contracts/VotingSystem.sol\":463:488  uint256 public numVotings */\n    tag_10:\n      tag_57\n      tag_58\n      jump\t// in\n    tag_57:\n      mload(0x40)\n      tag_59\n      swap2\n      swap1\n      tag_26\n      jump\t// in\n    tag_59:\n      mload(0x40)\n      dup1\n      swap2\n      sub\n      swap1\n      return\n        /* \"contracts/VotingSystem.sol\":763:852  function addAdmin(address _admin) public onlyAdmin {... */\n    tag_11:\n      tag_60\n      0x04\n      dup1\n      calldatasize\n      sub\n      dup2\n      add\n      swap1\n      tag_61\n      swap2\n      swap1\n      tag_29\n      jump\t// in\n    tag_61:\n      tag_62\n      jump\t// in\n    tag_60:\n      stop\n        /* \"contracts/VotingSystem.sol\":1284:1516  function endTopic(uint256 _topicId) public onlyAdmin {... */\n    tag_12:\n      tag_63\n      0x04\n      dup1\n      calldatasize\n      sub\n      dup2\n      add\n      swap1\n      tag_64\n      swap2\n      swap1\n      tag_33\n      jump\t// in\n    tag_64:\n      tag_65\n      jump\t// in\n    tag_63:\n      stop\n        /* \"contracts/VotingSystem.sol\":2220:2394  function getTopicDescription(uint256 _topicId) public view returns (string memory) {... */\n    tag_13:\n      tag_66\n      0x04\n      dup1\n      calldatasize\n      sub\n      dup2\n      add\n      swap1\n      tag_67\n      swap2\n      swap1\n      tag_33\n      jump\t// in\n    tag_67:\n      tag_68\n      jump\t// in\n    tag_66:\n      mload(0x40)\n      tag_69\n      swap2\n      swap1\n      tag_56\n      jump\t// in\n    tag_69:\n      mload(0x40)\n      dup1\n      swap2\n      sub\n      swap1\n      return\n        /* \"contracts/VotingSystem.sol\":494:518  uint256 public numTopics */\n    tag_14:\n      tag_70\n      tag_71\n      jump\t// in\n    tag_70:\n      mload(0x40)\n      tag_72\n      swap2\n      swap1\n      tag_26\n      jump\t// in\n    tag_72:\n      mload(0x40)\n      dup1\n      swap2\n      sub\n      swap1\n      return\n        /* \"contracts/VotingSystem.sol\":2987:3258  function getVote(uint256 _topicId, address _voter) public view returns (bool) {... */\n    tag_15:\n      tag_73\n      0x04\n      dup1\n      calldatasize\n      sub\n      dup2\n      add\n      swap1\n      tag_74\n      swap2\n      swap1\n      tag_44\n      jump\t// in\n    tag_74:\n      tag_75\n      jump\t// in\n    tag_73:\n      mload(0x40)\n      tag_76\n      swap2\n      swap1\n      tag_41\n      jump\t// in\n    tag_76:\n      mload(0x40)\n      dup1\n      swap2\n      sub\n      swap1\n      return\n        /* \"contracts/VotingSystem.sol\":1526:2048  function vote(uint256 _topicId, bool _vote) public {... */\n    tag_16:\n      tag_77\n      0x04\n      dup1\n      calldatasize\n      sub\n      dup2\n      add\n      swap1\n      tag_78\n      swap2\n      swap1\n      tag_79\n      jump\t// in\n    tag_78:\n      tag_80\n      jump\t// in\n    tag_77:\n      stop\n        /* \"contracts/VotingSystem.sol\":2404:2646  function getTopicResult(uint256 _topicId) public view returns (uint256, uint256) {... */\n    tag_17:\n      tag_81\n      0x04\n      dup1\n      calldatasize\n      sub\n      dup2\n      add\n      swap1\n      tag_82\n      swap2\n      swap1\n      tag_33\n      jump\t// in\n    tag_82:\n      tag_83\n      jump\t// in\n    tag_81:\n      mload(0x40)\n      tag_84\n      swap3\n      swap2\n      swap1\n      tag_85\n      jump\t// in\n    tag_84:\n      mload(0x40)\n      dup1\n      swap2\n      sub\n      swap1\n      return\n        /* \"contracts/VotingSystem.sol\":965:1274  function createTopic(string memory _name, string memory _description) public onlyAdmin returns (uint256){... */\n    tag_24:\n        /* \"contracts/VotingSystem.sol\":1061:1068  uint256 */\n      0x00\n        /* \"contracts/VotingSystem.sol\":677:683  admins */\n      dup1\n        /* \"contracts/VotingSystem.sol\":677:695  admins[msg.sender] */\n      0x00\n        /* \"contracts/VotingSystem.sol\":684:694  msg.sender */\n      caller\n        /* \"contracts/VotingSystem.sol\":677:695  admins[msg.sender] */\n      0xffffffffffffffffffffffffffffffffffffffff\n      and\n      0xffffffffffffffffffffffffffffffffffffffff\n      and\n      dup2\n      mstore\n      0x20\n      add\n      swap1\n      dup2\n      mstore\n      0x20\n      add\n      0x00\n      keccak256\n      0x00\n      swap1\n      sload\n      swap1\n      0x0100\n      exp\n      swap1\n      div\n      0xff\n      and\n        /* \"contracts/VotingSystem.sol\":669:735  require(admins[msg.sender], \"Only admins can perform this action\") */\n      tag_87\n      jumpi\n      mload(0x40)\n      0x08c379a000000000000000000000000000000000000000000000000000000000\n      dup2\n      mstore\n      0x04\n      add\n      tag_88\n      swap1\n      tag_89\n      jump\t// in\n    tag_88:\n      mload(0x40)\n      dup1\n      swap2\n      sub\n      swap1\n      revert\n    tag_87:\n        /* \"contracts/VotingSystem.sol\":1079:1095  uint256 votingId */\n      0x00\n        /* \"contracts/VotingSystem.sol\":1098:1108  numVotings */\n      0x02\n      0x00\n        /* \"contracts/VotingSystem.sol\":1098:1110  numVotings++ */\n      dup2\n      sload\n      dup1\n      swap3\n      swap2\n      swap1\n      tag_91\n      swap1\n      tag_92\n      jump\t// in\n    tag_91:\n      swap2\n      swap1\n      pop\n      sstore\n        /* \"contracts/VotingSystem.sol\":1079:1110  uint256 votingId = numVotings++ */\n      swap1\n      pop\n        /* \"contracts/VotingSystem.sol\":1144:1149  _name */\n      dup4\n        /* \"contracts/VotingSystem.sol\":1120:1126  topics */\n      0x01\n        /* \"contracts/VotingSystem.sol\":1120:1136  topics[votingId] */\n      0x00\n        /* \"contracts/VotingSystem.sol\":1127:1135  votingId */\n      dup4\n        /* \"contracts/VotingSystem.sol\":1120:1136  topics[votingId] */\n      dup2\n      mstore\n      0x20\n      add\n      swap1\n      dup2\n      mstore\n      0x20\n      add\n      0x00\n      keccak256\n        /* \"contracts/VotingSystem.sol\":1120:1141  topics[votingId].name */\n      0x00\n      add\n        /* \"contracts/VotingSystem.sol\":1120:1149  topics[votingId].name = _name */\n      swap1\n      dup2\n      tag_93\n      swap2\n      swap1\n      tag_94\n      jump\t// in\n    tag_93:\n      pop\n        /* \"contracts/VotingSystem.sol\":1190:1202  _description */\n      dup3\n        /* \"contracts/VotingSystem.sol\":1159:1165  topics */\n      0x01\n        /* \"contracts/VotingSystem.sol\":1159:1175  topics[votingId] */\n      0x00\n        /* \"contracts/VotingSystem.sol\":1166:1174  votingId */\n      dup4\n        /* \"contracts/VotingSystem.sol\":1159:1175  topics[votingId] */\n      dup2\n      mstore\n      0x20\n      add\n      swap1\n      dup2\n      mstore\n      0x20\n      add\n      0x00\n      keccak256\n        /* \"contracts/VotingSystem.sol\":1159:1187  topics[votingId].description */\n      0x01\n      add\n        /* \"contracts/VotingSystem.sol\":1159:1202  topics[votingId].description = _description */\n      swap1\n      dup2\n      tag_95\n      swap2\n      swap1\n      tag_94\n      jump\t// in\n    tag_95:\n      pop\n        /* \"contracts/VotingSystem.sol\":1238:1242  true */\n      0x01\n        /* \"contracts/VotingSystem.sol\":1212:1218  topics */\n      dup1\n        /* \"contracts/VotingSystem.sol\":1212:1228  topics[votingId] */\n      0x00\n        /* \"contracts/VotingSystem.sol\":1219:1227  votingId */\n      dup4\n        /* \"contracts/VotingSystem.sol\":1212:1228  topics[votingId] */\n      dup2\n      mstore\n      0x20\n      add\n      swap1\n      dup2\n      mstore\n      0x20\n      add\n      0x00\n      keccak256\n        /* \"contracts/VotingSystem.sol\":1212:1235  topics[votingId].active */\n      0x08\n      add\n      0x00\n        /* \"contracts/VotingSystem.sol\":1212:1242  topics[votingId].active = true */\n      0x0100\n      exp\n      dup2\n      sload\n      dup2\n      0xff\n      mul\n      not\n      and\n      swap1\n      dup4\n      iszero\n      iszero\n      mul\n      or\n      swap1\n      sstore\n      pop\n        /* \"contracts/VotingSystem.sol\":1259:1267  votingId */\n      dup1\n        /* \"contracts/VotingSystem.sol\":1252:1267  return votingId */\n      swap2\n      pop\n      pop\n        /* \"contracts/VotingSystem.sol\":965:1274  function createTopic(string memory _name, string memory _description) public onlyAdmin returns (uint256){... */\n      swap3\n      swap2\n      pop\n      pop\n      jump\t// out\n        /* \"contracts/VotingSystem.sol\":862:955  function removeAdmin(address _admin) public onlyAdmin {... */\n    tag_30:\n        /* \"contracts/VotingSystem.sol\":677:683  admins */\n      0x00\n        /* \"contracts/VotingSystem.sol\":677:695  admins[msg.sender] */\n      dup1\n        /* \"contracts/VotingSystem.sol\":684:694  msg.sender */\n      caller\n        /* \"contracts/VotingSystem.sol\":677:695  admins[msg.sender] */\n      0xffffffffffffffffffffffffffffffffffffffff\n      and\n      0xffffffffffffffffffffffffffffffffffffffff\n      and\n      dup2\n      mstore\n      0x20\n      add\n      swap1\n      dup2\n      mstore\n      0x20\n      add\n      0x00\n      keccak256\n      0x00\n      swap1\n      sload\n      swap1\n      0x0100\n      exp\n      swap1\n      div\n      0xff\n      and\n        /* \"contracts/VotingSystem.sol\":669:735  require(admins[msg.sender], \"Only admins can perform this action\") */\n      tag_97\n      jumpi\n      mload(0x40)\n      0x08c379a000000000000000000000000000000000000000000000000000000000\n      dup2\n      mstore\n      0x04\n      add\n      tag_98\n      swap1\n      tag_89\n      jump\t// in\n    tag_98:\n      mload(0x40)\n      dup1\n      swap2\n      sub\n      swap1\n      revert\n    tag_97:\n        /* \"contracts/VotingSystem.sol\":943:948  false */\n      0x00\n        /* \"contracts/VotingSystem.sol\":926:932  admins */\n      dup1\n        /* \"contracts/VotingSystem.sol\":926:940  admins[_admin] */\n      0x00\n        /* \"contracts/VotingSystem.sol\":933:939  _admin */\n      dup4\n        /* \"contracts/VotingSystem.sol\":926:940  admins[_admin] */\n      0xffffffffffffffffffffffffffffffffffffffff\n      and\n      0xffffffffffffffffffffffffffffffffffffffff\n      and\n      dup2\n      mstore\n      0x20\n      add\n      swap1\n      dup2\n      mstore\n      0x20\n      add\n      0x00\n      keccak256\n      0x00\n        /* \"contracts/VotingSystem.sol\":926:948  admins[_admin] = false */\n      0x0100\n      exp\n      dup2\n      sload\n      dup2\n      0xff\n      mul\n      not\n      and\n      swap1\n      dup4\n      iszero\n      iszero\n      mul\n      or\n      swap1\n      sstore\n      pop\n        /* \"contracts/VotingSystem.sol\":862:955  function removeAdmin(address _admin) public onlyAdmin {... */\n      pop\n      jump\t// out\n        /* \"contracts/VotingSystem.sol\":417:457  mapping (uint256 => Topic) public topics */\n    tag_34:\n      mstore(0x20, 0x01)\n      dup1\n      0x00\n      mstore\n      keccak256(0x00, 0x40)\n      0x00\n      swap2\n      pop\n      swap1\n      pop\n      dup1\n      0x00\n      add\n      dup1\n      sload\n      tag_100\n      swap1\n      tag_101\n      jump\t// in\n    tag_100:\n      dup1\n      0x1f\n      add\n      0x20\n      dup1\n      swap2\n      div\n      mul\n      0x20\n      add\n      mload(0x40)\n      swap1\n      dup2\n      add\n      0x40\n      mstore\n      dup1\n      swap3\n      swap2\n      swap1\n      dup2\n      dup2\n      mstore\n      0x20\n      add\n      dup3\n      dup1\n      sload\n      tag_102\n      swap1\n      tag_101\n      jump\t// in\n    tag_102:\n      dup1\n      iszero\n      tag_103\n      jumpi\n      dup1\n      0x1f\n      lt\n      tag_104\n      jumpi\n      0x0100\n      dup1\n      dup4\n      sload\n      div\n      mul\n      dup4\n      mstore\n      swap2\n      0x20\n      add\n      swap2\n      jump(tag_103)\n    tag_104:\n      dup3\n      add\n      swap2\n      swap1\n      0x00\n      mstore\n      keccak256(0x00, 0x20)\n      swap1\n    tag_105:\n      dup2\n      sload\n      dup2\n      mstore\n      swap1\n      0x01\n      add\n      swap1\n      0x20\n      add\n      dup1\n      dup4\n      gt\n      tag_105\n      jumpi\n      dup3\n      swap1\n      sub\n      0x1f\n      and\n      dup3\n      add\n      swap2\n    tag_103:\n      pop\n      pop\n      pop\n      pop\n      pop\n      swap1\n      dup1\n      0x01\n      add\n      dup1\n      sload\n      tag_106\n      swap1\n      tag_101\n      jump\t// in\n    tag_106:\n      dup1\n      0x1f\n      add\n      0x20\n      dup1\n      swap2\n      div\n      mul\n      0x20\n      add\n      mload(0x40)\n      swap1\n      dup2\n      add\n      0x40\n      mstore\n      dup1\n      swap3\n      swap2\n      swap1\n      dup2\n      dup2\n      mstore\n      0x20\n      add\n      dup3\n      dup1\n      sload\n      tag_107\n      swap1\n      tag_101\n      jump\t// in\n    tag_107:\n      dup1\n      iszero\n      tag_108\n      jumpi\n      dup1\n      0x1f\n      lt\n      tag_109\n      jumpi\n      0x0100\n      dup1\n      dup4\n      sload\n      div\n      mul\n      dup4\n      mstore\n      swap2\n      0x20\n      add\n      swap2\n      jump(tag_108)\n    tag_109:\n      dup3\n      add\n      swap2\n      swap1\n      0x00\n      mstore\n      keccak256(0x00, 0x20)\n      swap1\n    tag_110:\n      dup2\n      sload\n      dup2\n      mstore\n      swap1\n      0x01\n      add\n      swap1\n      0x20\n      add\n      dup1\n      dup4\n      gt\n      tag_110\n      jumpi\n      dup3\n      swap1\n      sub\n      0x1f\n      and\n      dup3\n      add\n      swap2\n    tag_108:\n      pop\n      pop\n      pop\n      pop\n      pop\n      swap1\n      dup1\n      0x06\n      add\n      sload\n      swap1\n      dup1\n      0x07\n      add\n      sload\n      swap1\n      dup1\n      0x08\n      add\n      0x00\n      swap1\n      sload\n      swap1\n      0x0100\n      exp\n      swap1\n      div\n      0xff\n      and\n      swap1\n      pop\n      dup6\n      jump\t// out\n        /* \"contracts/VotingSystem.sol\":372:411  mapping (address => bool) public admins */\n    tag_39:\n      mstore(0x20, 0x00)\n      dup1\n      0x00\n      mstore\n      keccak256(0x00, 0x40)\n      0x00\n      swap2\n      pop\n      sload\n      swap1\n      0x0100\n      exp\n      swap1\n      div\n      0xff\n      and\n      dup2\n      jump\t// out\n        /* \"contracts/VotingSystem.sol\":2800:2977  function hasVoted(uint256 _topicId, address _voter) public view returns (bool) {... */\n    tag_45:\n        /* \"contracts/VotingSystem.sol\":2873:2877  bool */\n      0x00\n        /* \"contracts/VotingSystem.sol\":2889:2908  Topic storage topic */\n      dup1\n        /* \"contracts/VotingSystem.sol\":2911:2917  topics */\n      0x01\n        /* \"contracts/VotingSystem.sol\":2911:2927  topics[_topicId] */\n      0x00\n        /* \"contracts/VotingSystem.sol\":2918:2926  _topicId */\n      dup6\n        /* \"contracts/VotingSystem.sol\":2911:2927  topics[_topicId] */\n      dup2\n      mstore\n      0x20\n      add\n      swap1\n      dup2\n      mstore\n      0x20\n      add\n      0x00\n      keccak256\n        /* \"contracts/VotingSystem.sol\":2889:2927  Topic storage topic = topics[_topicId] */\n      swap1\n      pop\n        /* \"contracts/VotingSystem.sol\":2944:2949  topic */\n      dup1\n        /* \"contracts/VotingSystem.sol\":2944:2962  topic.votedMapping */\n      0x05\n      add\n        /* \"contracts/VotingSystem.sol\":2944:2970  topic.votedMapping[_voter] */\n      0x00\n        /* \"contracts/VotingSystem.sol\":2963:2969  _voter */\n      dup5\n        /* \"contracts/VotingSystem.sol\":2944:2970  topic.votedMapping[_voter] */\n      0xffffffffffffffffffffffffffffffffffffffff\n      and\n      0xffffffffffffffffffffffffffffffffffffffff\n      and\n      dup2\n      mstore\n      0x20\n      add\n      swap1\n      dup2\n      mstore\n      0x20\n      add\n      0x00\n      keccak256\n      0x00\n      swap1\n      sload\n      swap1\n      0x0100\n      exp\n      swap1\n      div\n      0xff\n      and\n        /* \"contracts/VotingSystem.sol\":2937:2970  return topic.votedMapping[_voter] */\n      swap2\n      pop\n      pop\n        /* \"contracts/VotingSystem.sol\":2800:2977  function hasVoted(uint256 _topicId, address _voter) public view returns (bool) {... */\n      swap3\n      swap2\n      pop\n      pop\n      jump\t// out\n        /* \"contracts/VotingSystem.sol\":2656:2790  function getTopicVotingIds(uint256 _topicId) public view returns (uint256[] memory) {... */\n    tag_49:\n        /* \"contracts/VotingSystem.sol\":2722:2738  uint256[] memory */\n      0x60\n        /* \"contracts/VotingSystem.sol\":2757:2763  topics */\n      0x01\n        /* \"contracts/VotingSystem.sol\":2757:2773  topics[_topicId] */\n      0x00\n        /* \"contracts/VotingSystem.sol\":2764:2772  _topicId */\n      dup4\n        /* \"contracts/VotingSystem.sol\":2757:2773  topics[_topicId] */\n      dup2\n      mstore\n      0x20\n      add\n      swap1\n      dup2\n      mstore\n      0x20\n      add\n      0x00\n      keccak256\n        /* \"contracts/VotingSystem.sol\":2757:2783  topics[_topicId].votingIds */\n      0x02\n      add\n        /* \"contracts/VotingSystem.sol\":2750:2783  return topics[_topicId].votingIds */\n      dup1\n      sload\n      dup1\n      0x20\n      mul\n      0x20\n      add\n      mload(0x40)\n      swap1\n      dup2\n      add\n      0x40\n      mstore\n      dup1\n      swap3\n      swap2\n      swap1\n      dup2\n      dup2\n      mstore\n      0x20\n      add\n      dup3\n      dup1\n      sload\n      dup1\n      iszero\n      tag_113\n      jumpi\n      0x20\n      mul\n      dup3\n      add\n      swap2\n      swap1\n      0x00\n      mstore\n      keccak256(0x00, 0x20)\n      swap1\n    tag_114:\n      dup2\n      sload\n      dup2\n      mstore\n      0x20\n      add\n      swap1\n      0x01\n      add\n      swap1\n      dup1\n      dup4\n      gt\n      tag_114\n      jumpi\n    tag_113:\n      pop\n      pop\n      pop\n      pop\n      pop\n      swap1\n      pop\n        /* \"contracts/VotingSystem.sol\":2656:2790  function getTopicVotingIds(uint256 _topicId) public view returns (uint256[] memory) {... */\n      swap2\n      swap1\n      pop\n      jump\t// out\n        /* \"contracts/VotingSystem.sol\":2054:2214  function getTopicName(uint256 _topicId) public view returns (string memory) {... */\n    tag_54:\n        /* \"contracts/VotingSystem.sol\":2115:2128  string memory */\n      0x60\n        /* \"contracts/VotingSystem.sol\":2140:2159  Topic storage topic */\n      0x00\n        /* \"contracts/VotingSystem.sol\":2162:2168  topics */\n      0x01\n        /* \"contracts/VotingSystem.sol\":2162:2178  topics[_topicId] */\n      0x00\n        /* \"contracts/VotingSystem.sol\":2169:2177  _topicId */\n      dup5\n        /* \"contracts/VotingSystem.sol\":2162:2178  topics[_topicId] */\n      dup2\n      mstore\n      0x20\n      add\n      swap1\n      dup2\n      mstore\n      0x20\n      add\n      0x00\n      keccak256\n        /* \"contracts/VotingSystem.sol\":2140:2178  Topic storage topic = topics[_topicId] */\n      swap1\n      pop\n        /* \"contracts/VotingSystem.sol\":2196:2201  topic */\n      dup1\n        /* \"contracts/VotingSystem.sol\":2196:2206  topic.name */\n      0x00\n      add\n        /* \"contracts/VotingSystem.sol\":2188:2207  return (topic.name) */\n      dup1\n      sload\n      tag_116\n      swap1\n      tag_101\n      jump\t// in\n    tag_116:\n      dup1\n      0x1f\n      add\n      0x20\n      dup1\n      swap2\n      div\n      mul\n      0x20\n      add\n      mload(0x40)\n      swap1\n      dup2\n      add\n      0x40\n      mstore\n      dup1\n      swap3\n      swap2\n      swap1\n      dup2\n      dup2\n      mstore\n      0x20\n      add\n      dup3\n      dup1\n      sload\n      tag_117\n      swap1\n      tag_101\n      jump\t// in\n    tag_117:\n      dup1\n      iszero\n      tag_118\n      jumpi\n      dup1\n      0x1f\n      lt\n      tag_119\n      jumpi\n      0x0100\n      dup1\n      dup4\n      sload\n      div\n      mul\n      dup4\n      mstore\n      swap2\n      0x20\n      add\n      swap2\n      jump(tag_118)\n    tag_119:\n      dup3\n      add\n      swap2\n      swap1\n      0x00\n      mstore\n      keccak256(0x00, 0x20)\n      swap1\n    tag_120:\n      dup2\n      sload\n      dup2\n      mstore\n      swap1\n      0x01\n      add\n      swap1\n      0x20\n      add\n      dup1\n      dup4\n      gt\n      tag_120\n      jumpi\n      dup3\n      swap1\n      sub\n      0x1f\n      and\n      dup3\n      add\n      swap2\n    tag_118:\n      pop\n      pop\n      pop\n      pop\n      pop\n      swap2\n      pop\n      pop\n        /* \"contracts/VotingSystem.sol\":2054:2214  function getTopicName(uint256 _topicId) public view returns (string memory) {... */\n      swap2\n      swap1\n      pop\n      jump\t// out\n        /* \"contracts/VotingSystem.sol\":463:488  uint256 public numVotings */\n    tag_58:\n      sload(0x02)\n      dup2\n      jump\t// out\n        /* \"contracts/VotingSystem.sol\":763:852  function addAdmin(address _admin) public onlyAdmin {... */\n    tag_62:\n        /* \"contracts/VotingSystem.sol\":677:683  admins */\n      0x00\n        /* \"contracts/VotingSystem.sol\":677:695  admins[msg.sender] */\n      dup1\n        /* \"contracts/VotingSystem.sol\":684:694  msg.sender */\n      caller\n        /* \"contracts/VotingSystem.sol\":677:695  admins[msg.sender] */\n      0xffffffffffffffffffffffffffffffffffffffff\n      and\n      0xffffffffffffffffffffffffffffffffffffffff\n      and\n      dup2\n      mstore\n      0x20\n      add\n      swap1\n      dup2\n      mstore\n      0x20\n      add\n      0x00\n      keccak256\n      0x00\n      swap1\n      sload\n      swap1\n      0x0100\n      exp\n      swap1\n      div\n      0xff\n      and\n        /* \"contracts/VotingSystem.sol\":669:735  require(admins[msg.sender], \"Only admins can perform this action\") */\n      tag_122\n      jumpi\n      mload(0x40)\n      0x08c379a000000000000000000000000000000000000000000000000000000000\n      dup2\n      mstore\n      0x04\n      add\n      tag_123\n      swap1\n      tag_89\n      jump\t// in\n    tag_123:\n      mload(0x40)\n      dup1\n      swap2\n      sub\n      swap1\n      revert\n    tag_122:\n        /* \"contracts/VotingSystem.sol\":841:845  true */\n      0x01\n        /* \"contracts/VotingSystem.sol\":824:830  admins */\n      0x00\n        /* \"contracts/VotingSystem.sol\":824:838  admins[_admin] */\n      dup1\n        /* \"contracts/VotingSystem.sol\":831:837  _admin */\n      dup4\n        /* \"contracts/VotingSystem.sol\":824:838  admins[_admin] */\n      0xffffffffffffffffffffffffffffffffffffffff\n      and\n      0xffffffffffffffffffffffffffffffffffffffff\n      and\n      dup2\n      mstore\n      0x20\n      add\n      swap1\n      dup2\n      mstore\n      0x20\n      add\n      0x00\n      keccak256\n      0x00\n        /* \"contracts/VotingSystem.sol\":824:845  admins[_admin] = true */\n      0x0100\n      exp\n      dup2\n      sload\n      dup2\n      0xff\n      mul\n      not\n      and\n      swap1\n      dup4\n      iszero\n      iszero\n      mul\n      or\n      swap1\n      sstore\n      pop\n        /* \"contracts/VotingSystem.sol\":763:852  function addAdmin(address _admin) public onlyAdmin {... */\n      pop\n      jump\t// out\n        /* \"contracts/VotingSystem.sol\":1284:1516  function endTopic(uint256 _topicId) public onlyAdmin {... */\n    tag_65:\n        /* \"contracts/VotingSystem.sol\":677:683  admins */\n      0x00\n        /* \"contracts/VotingSystem.sol\":677:695  admins[msg.sender] */\n      dup1\n        /* \"contracts/VotingSystem.sol\":684:694  msg.sender */\n      caller\n        /* \"contracts/VotingSystem.sol\":677:695  admins[msg.sender] */\n      0xffffffffffffffffffffffffffffffffffffffff\n      and\n      0xffffffffffffffffffffffffffffffffffffffff\n      and\n      dup2\n      mstore\n      0x20\n      add\n      swap1\n      dup2\n      mstore\n      0x20\n      add\n      0x00\n      keccak256\n      0x00\n      swap1\n      sload\n      swap1\n      0x0100\n      exp\n      swap1\n      div\n      0xff\n      and\n        /* \"contracts/VotingSystem.sol\":669:735  require(admins[msg.sender], \"Only admins can perform this action\") */\n      tag_126\n      jumpi\n      mload(0x40)\n      0x08c379a000000000000000000000000000000000000000000000000000000000\n      dup2\n      mstore\n      0x04\n      add\n      tag_127\n      swap1\n      tag_89\n      jump\t// in\n    tag_127:\n      mload(0x40)\n      dup1\n      swap2\n      sub\n      swap1\n      revert\n    tag_126:\n        /* \"contracts/VotingSystem.sol\":1347:1366  Topic storage topic */\n      0x00\n        /* \"contracts/VotingSystem.sol\":1369:1375  topics */\n      0x01\n        /* \"contracts/VotingSystem.sol\":1369:1385  topics[_topicId] */\n      0x00\n        /* \"contracts/VotingSystem.sol\":1376:1384  _topicId */\n      dup4\n        /* \"contracts/VotingSystem.sol\":1369:1385  topics[_topicId] */\n      dup2\n      mstore\n      0x20\n      add\n      swap1\n      dup2\n      mstore\n      0x20\n      add\n      0x00\n      keccak256\n        /* \"contracts/VotingSystem.sol\":1347:1385  Topic storage topic = topics[_topicId] */\n      swap1\n      pop\n        /* \"contracts/VotingSystem.sol\":1403:1408  topic */\n      dup1\n        /* \"contracts/VotingSystem.sol\":1403:1415  topic.active */\n      0x08\n      add\n      0x00\n      swap1\n      sload\n      swap1\n      0x0100\n      exp\n      swap1\n      div\n      0xff\n      and\n        /* \"contracts/VotingSystem.sol\":1395:1440  require(topic.active, \"Voting is not active\") */\n      tag_129\n      jumpi\n      mload(0x40)\n      0x08c379a000000000000000000000000000000000000000000000000000000000\n      dup2\n      mstore\n      0x04\n      add\n      tag_130\n      swap1\n      tag_131\n      jump\t// in\n    tag_130:\n      mload(0x40)\n      dup1\n      swap2\n      sub\n      swap1\n      revert\n    tag_129:\n        /* \"contracts/VotingSystem.sol\":1465:1470  false */\n      0x00\n        /* \"contracts/VotingSystem.sol\":1450:1455  topic */\n      dup2\n        /* \"contracts/VotingSystem.sol\":1450:1462  topic.active */\n      0x08\n      add\n      0x00\n        /* \"contracts/VotingSystem.sol\":1450:1470  topic.active = false */\n      0x0100\n      exp\n      dup2\n      sload\n      dup2\n      0xff\n      mul\n      not\n      and\n      swap1\n      dup4\n      iszero\n      iszero\n      mul\n      or\n      swap1\n      sstore\n      pop\n        /* \"contracts/VotingSystem.sol\":1337:1516  {... */\n      pop\n        /* \"contracts/VotingSystem.sol\":1284:1516  function endTopic(uint256 _topicId) public onlyAdmin {... */\n      pop\n      jump\t// out\n        /* \"contracts/VotingSystem.sol\":2220:2394  function getTopicDescription(uint256 _topicId) public view returns (string memory) {... */\n    tag_68:\n        /* \"contracts/VotingSystem.sol\":2288:2301  string memory */\n      0x60\n        /* \"contracts/VotingSystem.sol\":2313:2332  Topic storage topic */\n      0x00\n        /* \"contracts/VotingSystem.sol\":2335:2341  topics */\n      0x01\n        /* \"contracts/VotingSystem.sol\":2335:2351  topics[_topicId] */\n      0x00\n        /* \"contracts/VotingSystem.sol\":2342:2350  _topicId */\n      dup5\n        /* \"contracts/VotingSystem.sol\":2335:2351  topics[_topicId] */\n      dup2\n      mstore\n      0x20\n      add\n      swap1\n      dup2\n      mstore\n      0x20\n      add\n      0x00\n      keccak256\n        /* \"contracts/VotingSystem.sol\":2313:2351  Topic storage topic = topics[_topicId] */\n      swap1\n      pop\n        /* \"contracts/VotingSystem.sol\":2369:2374  topic */\n      dup1\n        /* \"contracts/VotingSystem.sol\":2369:2386  topic.description */\n      0x01\n      add\n        /* \"contracts/VotingSystem.sol\":2361:2387  return (topic.description) */\n      dup1\n      sload\n      tag_133\n      swap1\n      tag_101\n      jump\t// in\n    tag_133:\n      dup1\n      0x1f\n      add\n      0x20\n      dup1\n      swap2\n      div\n      mul\n      0x20\n      add\n      mload(0x40)\n      swap1\n      dup2\n      add\n      0x40\n      mstore\n      dup1\n      swap3\n      swap2\n      swap1\n      dup2\n      dup2\n      mstore\n      0x20\n      add\n      dup3\n      dup1\n      sload\n      tag_134\n      swap1\n      tag_101\n      jump\t// in\n    tag_134:\n      dup1\n      iszero\n      tag_135\n      jumpi\n      dup1\n      0x1f\n      lt\n      tag_136\n      jumpi\n      0x0100\n      dup1\n      dup4\n      sload\n      div\n      mul\n      dup4\n      mstore\n      swap2\n      0x20\n      add\n      swap2\n      jump(tag_135)\n    tag_136:\n      dup3\n      add\n      swap2\n      swap1\n      0x00\n      mstore\n      keccak256(0x00, 0x20)\n      swap1\n    tag_137:\n      dup2\n      sload\n      dup2\n      mstore\n      swap1\n      0x01\n      add\n      swap1\n      0x20\n      add\n      dup1\n      dup4\n      gt\n      tag_137\n      jumpi\n      dup3\n      swap1\n      sub\n      0x1f\n      and\n      dup3\n      add\n      swap2\n    tag_135:\n      pop\n      pop\n      pop\n      pop\n      pop\n      swap2\n      pop\n      pop\n        /* \"contracts/VotingSystem.sol\":2220:2394  function getTopicDescription(uint256 _topicId) public view returns (string memory) {... */\n      swap2\n      swap1\n      pop\n      jump\t// out\n        /* \"contracts/VotingSystem.sol\":494:518  uint256 public numTopics */\n    tag_71:\n      sload(0x03)\n      dup2\n      jump\t// out\n        /* \"contracts/VotingSystem.sol\":2987:3258  function getVote(uint256 _topicId, address _voter) public view returns (bool) {... */\n    tag_75:\n        /* \"contracts/VotingSystem.sol\":3059:3063  bool */\n      0x00\n        /* \"contracts/VotingSystem.sol\":3075:3094  Topic storage topic */\n      dup1\n        /* \"contracts/VotingSystem.sol\":3097:3103  topics */\n      0x01\n        /* \"contracts/VotingSystem.sol\":3097:3113  topics[_topicId] */\n      0x00\n        /* \"contracts/VotingSystem.sol\":3104:3112  _topicId */\n      dup6\n        /* \"contracts/VotingSystem.sol\":3097:3113  topics[_topicId] */\n      dup2\n      mstore\n      0x20\n      add\n      swap1\n      dup2\n      mstore\n      0x20\n      add\n      0x00\n      keccak256\n        /* \"contracts/VotingSystem.sol\":3075:3113  Topic storage topic = topics[_topicId] */\n      swap1\n      pop\n        /* \"contracts/VotingSystem.sol\":3131:3136  topic */\n      dup1\n        /* \"contracts/VotingSystem.sol\":3131:3149  topic.votedMapping */\n      0x05\n      add\n        /* \"contracts/VotingSystem.sol\":3131:3157  topic.votedMapping[_voter] */\n      0x00\n        /* \"contracts/VotingSystem.sol\":3150:3156  _voter */\n      dup5\n        /* \"contracts/VotingSystem.sol\":3131:3157  topic.votedMapping[_voter] */\n      0xffffffffffffffffffffffffffffffffffffffff\n      and\n      0xffffffffffffffffffffffffffffffffffffffff\n      and\n      dup2\n      mstore\n      0x20\n      add\n      swap1\n      dup2\n      mstore\n      0x20\n      add\n      0x00\n      keccak256\n      0x00\n      swap1\n      sload\n      swap1\n      0x0100\n      exp\n      swap1\n      div\n      0xff\n      and\n        /* \"contracts/VotingSystem.sol\":3123:3201  require(topic.votedMapping[_voter],  \"The voter has not voted in this voting\") */\n      tag_139\n      jumpi\n      mload(0x40)\n      0x08c379a000000000000000000000000000000000000000000000000000000000\n      dup2\n      mstore\n      0x04\n      add\n      tag_140\n      swap1\n      tag_141\n      jump\t// in\n    tag_140:\n      mload(0x40)\n      dup1\n      swap2\n      sub\n      swap1\n      revert\n    tag_139:\n        /* \"contracts/VotingSystem.sol\":3218:3223  topic */\n      dup1\n        /* \"contracts/VotingSystem.sol\":3218:3243  topic.votersChoiceMapping */\n      0x04\n      add\n        /* \"contracts/VotingSystem.sol\":3218:3251  topic.votersChoiceMapping[_voter] */\n      0x00\n        /* \"contracts/VotingSystem.sol\":3244:3250  _voter */\n      dup5\n        /* \"contracts/VotingSystem.sol\":3218:3251  topic.votersChoiceMapping[_voter] */\n      0xffffffffffffffffffffffffffffffffffffffff\n      and\n      0xffffffffffffffffffffffffffffffffffffffff\n      and\n      dup2\n      mstore\n      0x20\n      add\n      swap1\n      dup2\n      mstore\n      0x20\n      add\n      0x00\n      keccak256\n      0x00\n      swap1\n      sload\n      swap1\n      0x0100\n      exp\n      swap1\n      div\n      0xff\n      and\n        /* \"contracts/VotingSystem.sol\":3211:3251  return topic.votersChoiceMapping[_voter] */\n      swap2\n      pop\n      pop\n        /* \"contracts/VotingSystem.sol\":2987:3258  function getVote(uint256 _topicId, address _voter) public view returns (bool) {... */\n      swap3\n      swap2\n      pop\n      pop\n      jump\t// out\n        /* \"contracts/VotingSystem.sol\":1526:2048  function vote(uint256 _topicId, bool _vote) public {... */\n    tag_80:\n        /* \"contracts/VotingSystem.sol\":1587:1606  Topic storage topic */\n      0x00\n        /* \"contracts/VotingSystem.sol\":1609:1615  topics */\n      0x01\n        /* \"contracts/VotingSystem.sol\":1609:1625  topics[_topicId] */\n      0x00\n        /* \"contracts/VotingSystem.sol\":1616:1624  _topicId */\n      dup5\n        /* \"contracts/VotingSystem.sol\":1609:1625  topics[_topicId] */\n      dup2\n      mstore\n      0x20\n      add\n      swap1\n      dup2\n      mstore\n      0x20\n      add\n      0x00\n      keccak256\n        /* \"contracts/VotingSystem.sol\":1587:1625  Topic storage topic = topics[_topicId] */\n      swap1\n      pop\n        /* \"contracts/VotingSystem.sol\":1643:1648  topic */\n      dup1\n        /* \"contracts/VotingSystem.sol\":1643:1655  topic.active */\n      0x08\n      add\n      0x00\n      swap1\n      sload\n      swap1\n      0x0100\n      exp\n      swap1\n      div\n      0xff\n      and\n        /* \"contracts/VotingSystem.sol\":1635:1680  require(topic.active, \"Voting is not active\") */\n      tag_143\n      jumpi\n      mload(0x40)\n      0x08c379a000000000000000000000000000000000000000000000000000000000\n      dup2\n      mstore\n      0x04\n      add\n      tag_144\n      swap1\n      tag_131\n      jump\t// in\n    tag_144:\n      mload(0x40)\n      dup1\n      swap2\n      sub\n      swap1\n      revert\n    tag_143:\n        /* \"contracts/VotingSystem.sol\":1698:1703  topic */\n      dup1\n        /* \"contracts/VotingSystem.sol\":1698:1716  topic.votedMapping */\n      0x05\n      add\n        /* \"contracts/VotingSystem.sol\":1698:1728  topic.votedMapping[msg.sender] */\n      0x00\n        /* \"contracts/VotingSystem.sol\":1717:1727  msg.sender */\n      caller\n        /* \"contracts/VotingSystem.sol\":1698:1728  topic.votedMapping[msg.sender] */\n      0xffffffffffffffffffffffffffffffffffffffff\n      and\n      0xffffffffffffffffffffffffffffffffffffffff\n      and\n      dup2\n      mstore\n      0x20\n      add\n      swap1\n      dup2\n      mstore\n      0x20\n      add\n      0x00\n      keccak256\n      0x00\n      swap1\n      sload\n      swap1\n      0x0100\n      exp\n      swap1\n      div\n      0xff\n      and\n        /* \"contracts/VotingSystem.sol\":1690:1770  require(topic.votedMapping[msg.sender], \"You have already voted in this voting\") */\n      tag_145\n      jumpi\n      mload(0x40)\n      0x08c379a000000000000000000000000000000000000000000000000000000000\n      dup2\n      mstore\n      0x04\n      add\n      tag_146\n      swap1\n      tag_147\n      jump\t// in\n    tag_146:\n      mload(0x40)\n      dup1\n      swap2\n      sub\n      swap1\n      revert\n    tag_145:\n        /* \"contracts/VotingSystem.sol\":1813:1817  true */\n      0x01\n        /* \"contracts/VotingSystem.sol\":1780:1785  topic */\n      dup2\n        /* \"contracts/VotingSystem.sol\":1780:1798  topic.votedMapping */\n      0x05\n      add\n        /* \"contracts/VotingSystem.sol\":1780:1810  topic.votedMapping[msg.sender] */\n      0x00\n        /* \"contracts/VotingSystem.sol\":1799:1809  msg.sender */\n      caller\n        /* \"contracts/VotingSystem.sol\":1780:1810  topic.votedMapping[msg.sender] */\n      0xffffffffffffffffffffffffffffffffffffffff\n      and\n      0xffffffffffffffffffffffffffffffffffffffff\n      and\n      dup2\n      mstore\n      0x20\n      add\n      swap1\n      dup2\n      mstore\n      0x20\n      add\n      0x00\n      keccak256\n      0x00\n        /* \"contracts/VotingSystem.sol\":1780:1817  topic.votedMapping[msg.sender] = true */\n      0x0100\n      exp\n      dup2\n      sload\n      dup2\n      0xff\n      mul\n      not\n      and\n      swap1\n      dup4\n      iszero\n      iszero\n      mul\n      or\n      swap1\n      sstore\n      pop\n        /* \"contracts/VotingSystem.sol\":1831:1836  _vote */\n      dup2\n        /* \"contracts/VotingSystem.sol\":1827:2042  if (_vote) {... */\n      iszero\n      tag_148\n      jumpi\n        /* \"contracts/VotingSystem.sol\":1852:1857  topic */\n      dup1\n        /* \"contracts/VotingSystem.sol\":1852:1866  topic.yesVotes */\n      0x06\n      add\n      0x00\n        /* \"contracts/VotingSystem.sol\":1852:1868  topic.yesVotes++ */\n      dup2\n      sload\n      dup1\n      swap3\n      swap2\n      swap1\n      tag_149\n      swap1\n      tag_92\n      jump\t// in\n    tag_149:\n      swap2\n      swap1\n      pop\n      sstore\n      pop\n        /* \"contracts/VotingSystem.sol\":1922:1926  true */\n      0x01\n        /* \"contracts/VotingSystem.sol\":1882:1887  topic */\n      dup2\n        /* \"contracts/VotingSystem.sol\":1882:1907  topic.votersChoiceMapping */\n      0x04\n      add\n        /* \"contracts/VotingSystem.sol\":1882:1919  topic.votersChoiceMapping[msg.sender] */\n      0x00\n        /* \"contracts/VotingSystem.sol\":1908:1918  msg.sender */\n      caller\n        /* \"contracts/VotingSystem.sol\":1882:1919  topic.votersChoiceMapping[msg.sender] */\n      0xffffffffffffffffffffffffffffffffffffffff\n      and\n      0xffffffffffffffffffffffffffffffffffffffff\n      and\n      dup2\n      mstore\n      0x20\n      add\n      swap1\n      dup2\n      mstore\n      0x20\n      add\n      0x00\n      keccak256\n      0x00\n        /* \"contracts/VotingSystem.sol\":1882:1926  topic.votersChoiceMapping[msg.sender] = true */\n      0x0100\n      exp\n      dup2\n      sload\n      dup2\n      0xff\n      mul\n      not\n      and\n      swap1\n      dup4\n      iszero\n      iszero\n      mul\n      or\n      swap1\n      sstore\n      pop\n        /* \"contracts/VotingSystem.sol\":1827:2042  if (_vote) {... */\n      jump(tag_150)\n    tag_148:\n        /* \"contracts/VotingSystem.sol\":1957:1962  topic */\n      dup1\n        /* \"contracts/VotingSystem.sol\":1957:1970  topic.noVotes */\n      0x07\n      add\n      0x00\n        /* \"contracts/VotingSystem.sol\":1957:1972  topic.noVotes++ */\n      dup2\n      sload\n      dup1\n      swap3\n      swap2\n      swap1\n      tag_151\n      swap1\n      tag_92\n      jump\t// in\n    tag_151:\n      swap2\n      swap1\n      pop\n      sstore\n      pop\n        /* \"contracts/VotingSystem.sol\":2026:2031  false */\n      0x00\n        /* \"contracts/VotingSystem.sol\":1986:1991  topic */\n      dup2\n        /* \"contracts/VotingSystem.sol\":1986:2011  topic.votersChoiceMapping */\n      0x04\n      add\n        /* \"contracts/VotingSystem.sol\":1986:2023  topic.votersChoiceMapping[msg.sender] */\n      0x00\n        /* \"contracts/VotingSystem.sol\":2012:2022  msg.sender */\n      caller\n        /* \"contracts/VotingSystem.sol\":1986:2023  topic.votersChoiceMapping[msg.sender] */\n      0xffffffffffffffffffffffffffffffffffffffff\n      and\n      0xffffffffffffffffffffffffffffffffffffffff\n      and\n      dup2\n      mstore\n      0x20\n      add\n      swap1\n      dup2\n      mstore\n      0x20\n      add\n      0x00\n      keccak256\n      0x00\n        /* \"contracts/VotingSystem.sol\":1986:2031  topic.votersChoiceMapping[msg.sender] = false */\n      0x0100\n      exp\n      dup2\n      sload\n      dup2\n      0xff\n      mul\n      not\n      and\n      swap1\n      dup4\n      iszero\n      iszero\n      mul\n      or\n      swap1\n      sstore\n      pop\n        /* \"contracts/VotingSystem.sol\":1827:2042  if (_vote) {... */\n    tag_150:\n        /* \"contracts/VotingSystem.sol\":1577:2048  {... */\n      pop\n        /* \"contracts/VotingSystem.sol\":1526:2048  function vote(uint256 _topicId, bool _vote) public {... */\n      pop\n      pop\n      jump\t// out\n        /* \"contracts/VotingSystem.sol\":2404:2646  function getTopicResult(uint256 _topicId) public view returns (uint256, uint256) {... */\n    tag_83:\n        /* \"contracts/VotingSystem.sol\":2467:2474  uint256 */\n      0x00\n        /* \"contracts/VotingSystem.sol\":2476:2483  uint256 */\n      dup1\n        /* \"contracts/VotingSystem.sol\":2495:2514  Topic storage topic */\n      0x00\n        /* \"contracts/VotingSystem.sol\":2517:2523  topics */\n      0x01\n        /* \"contracts/VotingSystem.sol\":2517:2533  topics[_topicId] */\n      0x00\n        /* \"contracts/VotingSystem.sol\":2524:2532  _topicId */\n      dup6\n        /* \"contracts/VotingSystem.sol\":2517:2533  topics[_topicId] */\n      dup2\n      mstore\n      0x20\n      add\n      swap1\n      dup2\n      mstore\n      0x20\n      add\n      0x00\n      keccak256\n        /* \"contracts/VotingSystem.sol\":2495:2533  Topic storage topic = topics[_topicId] */\n      swap1\n      pop\n        /* \"contracts/VotingSystem.sol\":2552:2557  topic */\n      dup1\n        /* \"contracts/VotingSystem.sol\":2552:2564  topic.active */\n      0x08\n      add\n      0x00\n      swap1\n      sload\n      swap1\n      0x0100\n      exp\n      swap1\n      div\n      0xff\n      and\n        /* \"contracts/VotingSystem.sol\":2551:2564  !topic.active */\n      iszero\n        /* \"contracts/VotingSystem.sol\":2543:2591  require(!topic.active, \"Voting is still active\") */\n      tag_153\n      jumpi\n      mload(0x40)\n      0x08c379a000000000000000000000000000000000000000000000000000000000\n      dup2\n      mstore\n      0x04\n      add\n      tag_154\n      swap1\n      tag_155\n      jump\t// in\n    tag_154:\n      mload(0x40)\n      dup1\n      swap2\n      sub\n      swap1\n      revert\n    tag_153:\n        /* \"contracts/VotingSystem.sol\":2609:2614  topic */\n      dup1\n        /* \"contracts/VotingSystem.sol\":2609:2623  topic.yesVotes */\n      0x06\n      add\n      sload\n        /* \"contracts/VotingSystem.sol\":2625:2630  topic */\n      dup2\n        /* \"contracts/VotingSystem.sol\":2625:2638  topic.noVotes */\n      0x07\n      add\n      sload\n        /* \"contracts/VotingSystem.sol\":2601:2639  return (topic.yesVotes, topic.noVotes) */\n      swap3\n      pop\n      swap3\n      pop\n      pop\n        /* \"contracts/VotingSystem.sol\":2404:2646  function getTopicResult(uint256 _topicId) public view returns (uint256, uint256) {... */\n      swap2\n      pop\n      swap2\n      jump\t// out\n        /* \"#utility.yul\":7:82   */\n    tag_156:\n        /* \"#utility.yul\":40:46   */\n      0x00\n        /* \"#utility.yul\":73:75   */\n      0x40\n        /* \"#utility.yul\":67:76   */\n      mload\n        /* \"#utility.yul\":57:76   */\n      swap1\n      pop\n        /* \"#utility.yul\":7:82   */\n      swap1\n      jump\t// out\n        /* \"#utility.yul\":88:205   */\n    tag_157:\n        /* \"#utility.yul\":197:198   */\n      0x00\n        /* \"#utility.yul\":194:195   */\n      dup1\n        /* \"#utility.yul\":187:199   */\n      revert\n        /* \"#utility.yul\":211:328   */\n    tag_158:\n        /* \"#utility.yul\":320:321   */\n      0x00\n        /* \"#utility.yul\":317:318   */\n      dup1\n        /* \"#utility.yul\":310:322   */\n      revert\n        /* \"#utility.yul\":334:451   */\n    tag_159:\n        /* \"#utility.yul\":443:444   */\n      0x00\n        /* \"#utility.yul\":440:441   */\n      dup1\n        /* \"#utility.yul\":433:445   */\n      revert\n        /* \"#utility.yul\":457:574   */\n    tag_160:\n        /* \"#utility.yul\":566:567   */\n      0x00\n        /* \"#utility.yul\":563:564   */\n      dup1\n        /* \"#utility.yul\":556:568   */\n      revert\n        /* \"#utility.yul\":580:682   */\n    tag_161:\n        /* \"#utility.yul\":621:627   */\n      0x00\n        /* \"#utility.yul\":672:674   */\n      0x1f\n        /* \"#utility.yul\":668:675   */\n      not\n        /* \"#utility.yul\":663:665   */\n      0x1f\n        /* \"#utility.yul\":656:661   */\n      dup4\n        /* \"#utility.yul\":652:666   */\n      add\n        /* \"#utility.yul\":648:676   */\n      and\n        /* \"#utility.yul\":638:676   */\n      swap1\n      pop\n        /* \"#utility.yul\":580:682   */\n      swap2\n      swap1\n      pop\n      jump\t// out\n        /* \"#utility.yul\":688:868   */\n    tag_162:\n        /* \"#utility.yul\":736:813   */\n      0x4e487b7100000000000000000000000000000000000000000000000000000000\n        /* \"#utility.yul\":733:734   */\n      0x00\n        /* \"#utility.yul\":726:814   */\n      mstore\n        /* \"#utility.yul\":833:837   */\n      0x41\n        /* \"#utility.yul\":830:831   */\n      0x04\n        /* \"#utility.yul\":823:838   */\n      mstore\n        /* \"#utility.yul\":857:861   */\n      0x24\n        /* \"#utility.yul\":854:855   */\n      0x00\n        /* \"#utility.yul\":847:862   */\n      revert\n        /* \"#utility.yul\":874:1155   */\n    tag_163:\n        /* \"#utility.yul\":957:984   */\n      tag_228\n        /* \"#utility.yul\":979:983   */\n      dup3\n        /* \"#utility.yul\":957:984   */\n      tag_161\n      jump\t// in\n    tag_228:\n        /* \"#utility.yul\":949:955   */\n      dup2\n        /* \"#utility.yul\":945:985   */\n      add\n        /* \"#utility.yul\":1087:1093   */\n      dup2\n        /* \"#utility.yul\":1075:1085   */\n      dup2\n        /* \"#utility.yul\":1072:1094   */\n      lt\n        /* \"#utility.yul\":1051:1069   */\n      0xffffffffffffffff\n        /* \"#utility.yul\":1039:1049   */\n      dup3\n        /* \"#utility.yul\":1036:1070   */\n      gt\n        /* \"#utility.yul\":1033:1095   */\n      or\n        /* \"#utility.yul\":1030:1118   */\n      iszero\n      tag_229\n      jumpi\n        /* \"#utility.yul\":1098:1116   */\n      tag_230\n      tag_162\n      jump\t// in\n    tag_230:\n        /* \"#utility.yul\":1030:1118   */\n    tag_229:\n        /* \"#utility.yul\":1138:1148   */\n      dup1\n        /* \"#utility.yul\":1134:1136   */\n      0x40\n        /* \"#utility.yul\":1127:1149   */\n      mstore\n        /* \"#utility.yul\":917:1155   */\n      pop\n        /* \"#utility.yul\":874:1155   */\n      pop\n      pop\n      jump\t// out\n        /* \"#utility.yul\":1161:1290   */\n    tag_164:\n        /* \"#utility.yul\":1195:1201   */\n      0x00\n        /* \"#utility.yul\":1222:1242   */\n      tag_232\n      tag_156\n      jump\t// in\n    tag_232:\n        /* \"#utility.yul\":1212:1242   */\n      swap1\n      pop\n        /* \"#utility.yul\":1251:1284   */\n      tag_233\n        /* \"#utility.yul\":1279:1283   */\n      dup3\n        /* \"#utility.yul\":1271:1277   */\n      dup3\n        /* \"#utility.yul\":1251:1284   */\n      tag_163\n      jump\t// in\n    tag_233:\n        /* \"#utility.yul\":1161:1290   */\n      swap2\n      swap1\n      pop\n      jump\t// out\n        /* \"#utility.yul\":1296:1604   */\n    tag_165:\n        /* \"#utility.yul\":1358:1362   */\n      0x00\n        /* \"#utility.yul\":1448:1466   */\n      0xffffffffffffffff\n        /* \"#utility.yul\":1440:1446   */\n      dup3\n        /* \"#utility.yul\":1437:1467   */\n      gt\n        /* \"#utility.yul\":1434:1490   */\n      iszero\n      tag_235\n      jumpi\n        /* \"#utility.yul\":1470:1488   */\n      tag_236\n      tag_162\n      jump\t// in\n    tag_236:\n        /* \"#utility.yul\":1434:1490   */\n    tag_235:\n        /* \"#utility.yul\":1508:1537   */\n      tag_237\n        /* \"#utility.yul\":1530:1536   */\n      dup3\n        /* \"#utility.yul\":1508:1537   */\n      tag_161\n      jump\t// in\n    tag_237:\n        /* \"#utility.yul\":1500:1537   */\n      swap1\n      pop\n        /* \"#utility.yul\":1592:1596   */\n      0x20\n        /* \"#utility.yul\":1586:1590   */\n      dup2\n        /* \"#utility.yul\":1582:1597   */\n      add\n        /* \"#utility.yul\":1574:1597   */\n      swap1\n      pop\n        /* \"#utility.yul\":1296:1604   */\n      swap2\n      swap1\n      pop\n      jump\t// out\n        /* \"#utility.yul\":1610:1756   */\n    tag_166:\n        /* \"#utility.yul\":1707:1713   */\n      dup3\n        /* \"#utility.yul\":1702:1705   */\n      dup2\n        /* \"#utility.yul\":1697:1700   */\n      dup4\n        /* \"#utility.yul\":1684:1714   */\n      calldatacopy\n        /* \"#utility.yul\":1748:1749   */\n      0x00\n        /* \"#utility.yul\":1739:1745   */\n      dup4\n        /* \"#utility.yul\":1734:1737   */\n      dup4\n        /* \"#utility.yul\":1730:1746   */\n      add\n        /* \"#utility.yul\":1723:1750   */\n      mstore\n        /* \"#utility.yul\":1610:1756   */\n      pop\n      pop\n      pop\n      jump\t// out\n        /* \"#utility.yul\":1762:2187   */\n    tag_167:\n        /* \"#utility.yul\":1840:1845   */\n      0x00\n        /* \"#utility.yul\":1865:1931   */\n      tag_240\n        /* \"#utility.yul\":1881:1930   */\n      tag_241\n        /* \"#utility.yul\":1923:1929   */\n      dup5\n        /* \"#utility.yul\":1881:1930   */\n      tag_165\n      jump\t// in\n    tag_241:\n        /* \"#utility.yul\":1865:1931   */\n      tag_164\n      jump\t// in\n    tag_240:\n        /* \"#utility.yul\":1856:1931   */\n      swap1\n      pop\n        /* \"#utility.yul\":1954:1960   */\n      dup3\n        /* \"#utility.yul\":1947:1952   */\n      dup2\n        /* \"#utility.yul\":1940:1961   */\n      mstore\n        /* \"#utility.yul\":1992:1996   */\n      0x20\n        /* \"#utility.yul\":1985:1990   */\n      dup2\n        /* \"#utility.yul\":1981:1997   */\n      add\n        /* \"#utility.yul\":2030:2033   */\n      dup5\n        /* \"#utility.yul\":2021:2027   */\n      dup5\n        /* \"#utility.yul\":2016:2019   */\n      dup5\n        /* \"#utility.yul\":2012:2028   */\n      add\n        /* \"#utility.yul\":2009:2034   */\n      gt\n        /* \"#utility.yul\":2006:2118   */\n      iszero\n      tag_242\n      jumpi\n        /* \"#utility.yul\":2037:2116   */\n      tag_243\n      tag_160\n      jump\t// in\n    tag_243:\n        /* \"#utility.yul\":2006:2118   */\n    tag_242:\n        /* \"#utility.yul\":2127:2181   */\n      tag_244\n        /* \"#utility.yul\":2174:2180   */\n      dup5\n        /* \"#utility.yul\":2169:2172   */\n      dup3\n        /* \"#utility.yul\":2164:2167   */\n      dup6\n        /* \"#utility.yul\":2127:2181   */\n      tag_166\n      jump\t// in\n    tag_244:\n        /* \"#utility.yul\":1846:2187   */\n      pop\n        /* \"#utility.yul\":1762:2187   */\n      swap4\n      swap3\n      pop\n      pop\n      pop\n      jump\t// out\n        /* \"#utility.yul\":2207:2547   */\n    tag_168:\n        /* \"#utility.yul\":2263:2268   */\n      0x00\n        /* \"#utility.yul\":2312:2315   */\n      dup3\n        /* \"#utility.yul\":2305:2309   */\n      0x1f\n        /* \"#utility.yul\":2297:2303   */\n      dup4\n        /* \"#utility.yul\":2293:2310   */\n      add\n        /* \"#utility.yul\":2289:2316   */\n      slt\n        /* \"#utility.yul\":2279:2401   */\n      tag_246\n      jumpi\n        /* \"#utility.yul\":2320:2399   */\n      tag_247\n      tag_159\n      jump\t// in\n    tag_247:\n        /* \"#utility.yul\":2279:2401   */\n    tag_246:\n        /* \"#utility.yul\":2437:2443   */\n      dup2\n        /* \"#utility.yul\":2424:2444   */\n      calldataload\n        /* \"#utility.yul\":2462:2541   */\n      tag_248\n        /* \"#utility.yul\":2537:2540   */\n      dup5\n        /* \"#utility.yul\":2529:2535   */\n      dup3\n        /* \"#utility.yul\":2522:2526   */\n      0x20\n        /* \"#utility.yul\":2514:2520   */\n      dup7\n        /* \"#utility.yul\":2510:2527   */\n      add\n        /* \"#utility.yul\":2462:2541   */\n      tag_167\n      jump\t// in\n    tag_248:\n        /* \"#utility.yul\":2453:2541   */\n      swap2\n      pop\n        /* \"#utility.yul\":2269:2547   */\n      pop\n        /* \"#utility.yul\":2207:2547   */\n      swap3\n      swap2\n      pop\n      pop\n      jump\t// out\n        /* \"#utility.yul\":2553:3387   */\n    tag_23:\n        /* \"#utility.yul\":2641:2647   */\n      0x00\n        /* \"#utility.yul\":2649:2655   */\n      dup1\n        /* \"#utility.yul\":2698:2700   */\n      0x40\n        /* \"#utility.yul\":2686:2695   */\n      dup4\n        /* \"#utility.yul\":2677:2684   */\n      dup6\n        /* \"#utility.yul\":2673:2696   */\n      sub\n        /* \"#utility.yul\":2669:2701   */\n      slt\n        /* \"#utility.yul\":2666:2785   */\n      iszero\n      tag_250\n      jumpi\n        /* \"#utility.yul\":2704:2783   */\n      tag_251\n      tag_157\n      jump\t// in\n    tag_251:\n        /* \"#utility.yul\":2666:2785   */\n    tag_250:\n        /* \"#utility.yul\":2852:2853   */\n      0x00\n        /* \"#utility.yul\":2841:2850   */\n      dup4\n        /* \"#utility.yul\":2837:2854   */\n      add\n        /* \"#utility.yul\":2824:2855   */\n      calldataload\n        /* \"#utility.yul\":2882:2900   */\n      0xffffffffffffffff\n        /* \"#utility.yul\":2874:2880   */\n      dup2\n        /* \"#utility.yul\":2871:2901   */\n      gt\n        /* \"#utility.yul\":2868:2985   */\n      iszero\n      tag_252\n      jumpi\n        /* \"#utility.yul\":2904:2983   */\n      tag_253\n      tag_158\n      jump\t// in\n    tag_253:\n        /* \"#utility.yul\":2868:2985   */\n    tag_252:\n        /* \"#utility.yul\":3009:3072   */\n      tag_254\n        /* \"#utility.yul\":3064:3071   */\n      dup6\n        /* \"#utility.yul\":3055:3061   */\n      dup3\n        /* \"#utility.yul\":3044:3053   */\n      dup7\n        /* \"#utility.yul\":3040:3062   */\n      add\n        /* \"#utility.yul\":3009:3072   */\n      tag_168\n      jump\t// in\n    tag_254:\n        /* \"#utility.yul\":2999:3072   */\n      swap3\n      pop\n        /* \"#utility.yul\":2795:3082   */\n      pop\n        /* \"#utility.yul\":3149:3151   */\n      0x20\n        /* \"#utility.yul\":3138:3147   */\n      dup4\n        /* \"#utility.yul\":3134:3152   */\n      add\n        /* \"#utility.yul\":3121:3153   */\n      calldataload\n        /* \"#utility.yul\":3180:3198   */\n      0xffffffffffffffff\n        /* \"#utility.yul\":3172:3178   */\n      dup2\n        /* \"#utility.yul\":3169:3199   */\n      gt\n        /* \"#utility.yul\":3166:3283   */\n      iszero\n      tag_255\n      jumpi\n        /* \"#utility.yul\":3202:3281   */\n      tag_256\n      tag_158\n      jump\t// in\n    tag_256:\n        /* \"#utility.yul\":3166:3283   */\n    tag_255:\n        /* \"#utility.yul\":3307:3370   */\n      tag_257\n        /* \"#utility.yul\":3362:3369   */\n      dup6\n        /* \"#utility.yul\":3353:3359   */\n      dup3\n        /* \"#utility.yul\":3342:3351   */\n      dup7\n        /* \"#utility.yul\":3338:3360   */\n      add\n        /* \"#utility.yul\":3307:3370   */\n      tag_168\n      jump\t// in\n    tag_257:\n        /* \"#utility.yul\":3297:3370   */\n      swap2\n      pop\n        /* \"#utility.yul\":3092:3380   */\n      pop\n        /* \"#utility.yul\":2553:3387   */\n      swap3\n      pop\n      swap3\n      swap1\n      pop\n      jump\t// out\n        /* \"#utility.yul\":3393:3470   */\n    tag_169:\n        /* \"#utility.yul\":3430:3437   */\n      0x00\n        /* \"#utility.yul\":3459:3464   */\n      dup2\n        /* \"#utility.yul\":3448:3464   */\n      swap1\n      pop\n        /* \"#utility.yul\":3393:3470   */\n      swap2\n      swap1\n      pop\n      jump\t// out\n        /* \"#utility.yul\":3476:3594   */\n    tag_170:\n        /* \"#utility.yul\":3563:3587   */\n      tag_260\n        /* \"#utility.yul\":3581:3586   */\n      dup2\n        /* \"#utility.yul\":3563:3587   */\n      tag_169\n      jump\t// in\n    tag_260:\n        /* \"#utility.yul\":3558:3561   */\n      dup3\n        /* \"#utility.yul\":3551:3588   */\n      mstore\n        /* \"#utility.yul\":3476:3594   */\n      pop\n      pop\n      jump\t// out\n        /* \"#utility.yul\":3600:3822   */\n    tag_26:\n        /* \"#utility.yul\":3693:3697   */\n      0x00\n        /* \"#utility.yul\":3731:3733   */\n      0x20\n        /* \"#utility.yul\":3720:3729   */\n      dup3\n        /* \"#utility.yul\":3716:3734   */\n      add\n        /* \"#utility.yul\":3708:3734   */\n      swap1\n      pop\n        /* \"#utility.yul\":3744:3815   */\n      tag_262\n        /* \"#utility.yul\":3812:3813   */\n      0x00\n        /* \"#utility.yul\":3801:3810   */\n      dup4\n        /* \"#utility.yul\":3797:3814   */\n      add\n        /* \"#utility.yul\":3788:3794   */\n      dup5\n        /* \"#utility.yul\":3744:3815   */\n      tag_170\n      jump\t// in\n    tag_262:\n        /* \"#utility.yul\":3600:3822   */\n      swap3\n      swap2\n      pop\n      pop\n      jump\t// out\n        /* \"#utility.yul\":3828:3954   */\n    tag_171:\n        /* \"#utility.yul\":3865:3872   */\n      0x00\n        /* \"#utility.yul\":3905:3947   */\n      0xffffffffffffffffffffffffffffffffffffffff\n        /* \"#utility.yul\":3898:3903   */\n      dup3\n        /* \"#utility.yul\":3894:3948   */\n      and\n        /* \"#utility.yul\":3883:3948   */\n      swap1\n      pop\n        /* \"#utility.yul\":3828:3954   */\n      swap2\n      swap1\n      pop\n      jump\t// out\n        /* \"#utility.yul\":3960:4056   */\n    tag_172:\n        /* \"#utility.yul\":3997:4004   */\n      0x00\n        /* \"#utility.yul\":4026:4050   */\n      tag_265\n        /* \"#utility.yul\":4044:4049   */\n      dup3\n        /* \"#utility.yul\":4026:4050   */\n      tag_171\n      jump\t// in\n    tag_265:\n        /* \"#utility.yul\":4015:4050   */\n      swap1\n      pop\n        /* \"#utility.yul\":3960:4056   */\n      swap2\n      swap1\n      pop\n      jump\t// out\n        /* \"#utility.yul\":4062:4184   */\n    tag_173:\n        /* \"#utility.yul\":4135:4159   */\n      tag_267\n        /* \"#utility.yul\":4153:4158   */\n      dup2\n        /* \"#utility.yul\":4135:4159   */\n      tag_172\n      jump\t// in\n    tag_267:\n        /* \"#utility.yul\":4128:4133   */\n      dup2\n        /* \"#utility.yul\":4125:4160   */\n      eq\n        /* \"#utility.yul\":4115:4178   */\n      tag_268\n      jumpi\n        /* \"#utility.yul\":4174:4175   */\n      0x00\n        /* \"#utility.yul\":4171:4172   */\n      dup1\n        /* \"#utility.yul\":4164:4176   */\n      revert\n        /* \"#utility.yul\":4115:4178   */\n    tag_268:\n        /* \"#utility.yul\":4062:4184   */\n      pop\n      jump\t// out\n        /* \"#utility.yul\":4190:4329   */\n    tag_174:\n        /* \"#utility.yul\":4236:4241   */\n      0x00\n        /* \"#utility.yul\":4274:4280   */\n      dup2\n        /* \"#utility.yul\":4261:4281   */\n      calldataload\n        /* \"#utility.yul\":4252:4281   */\n      swap1\n      pop\n        /* \"#utility.yul\":4290:4323   */\n      tag_270\n        /* \"#utility.yul\":4317:4322   */\n      dup2\n        /* \"#utility.yul\":4290:4323   */\n      tag_173\n      jump\t// in\n    tag_270:\n        /* \"#utility.yul\":4190:4329   */\n      swap3\n      swap2\n      pop\n      pop\n      jump\t// out\n        /* \"#utility.yul\":4335:4664   */\n    tag_29:\n        /* \"#utility.yul\":4394:4400   */\n      0x00\n        /* \"#utility.yul\":4443:4445   */\n      0x20\n        /* \"#utility.yul\":4431:4440   */\n      dup3\n        /* \"#utility.yul\":4422:4429   */\n      dup5\n        /* \"#utility.yul\":4418:4441   */\n      sub\n        /* \"#utility.yul\":4414:4446   */\n      slt\n        /* \"#utility.yul\":4411:4530   */\n      iszero\n      tag_272\n      jumpi\n        /* \"#utility.yul\":4449:4528   */\n      tag_273\n      tag_157\n      jump\t// in\n    tag_273:\n        /* \"#utility.yul\":4411:4530   */\n    tag_272:\n        /* \"#utility.yul\":4569:4570   */\n      0x00\n        /* \"#utility.yul\":4594:4647   */\n      tag_274\n        /* \"#utility.yul\":4639:4646   */\n      dup5\n        /* \"#utility.yul\":4630:4636   */\n      dup3\n        /* \"#utility.yul\":4619:4628   */\n      dup6\n        /* \"#utility.yul\":4615:4637   */\n      add\n        /* \"#utility.yul\":4594:4647   */\n      tag_174\n      jump\t// in\n    tag_274:\n        /* \"#utility.yul\":4584:4647   */\n      swap2\n      pop\n        /* \"#utility.yul\":4540:4657   */\n      pop\n        /* \"#utility.yul\":4335:4664   */\n      swap3\n      swap2\n      pop\n      pop\n      jump\t// out\n        /* \"#utility.yul\":4670:4792   */\n    tag_175:\n        /* \"#utility.yul\":4743:4767   */\n      tag_276\n        /* \"#utility.yul\":4761:4766   */\n      dup2\n        /* \"#utility.yul\":4743:4767   */\n      tag_169\n      jump\t// in\n    tag_276:\n        /* \"#utility.yul\":4736:4741   */\n      dup2\n        /* \"#utility.yul\":4733:4768   */\n      eq\n        /* \"#utility.yul\":4723:4786   */\n      tag_277\n      jumpi\n        /* \"#utility.yul\":4782:4783   */\n      0x00\n        /* \"#utility.yul\":4779:4780   */\n      dup1\n        /* \"#utility.yul\":4772:4784   */\n      revert\n        /* \"#utility.yul\":4723:4786   */\n    tag_277:\n        /* \"#utility.yul\":4670:4792   */\n      pop\n      jump\t// out\n        /* \"#utility.yul\":4798:4937   */\n    tag_176:\n        /* \"#utility.yul\":4844:4849   */\n      0x00\n        /* \"#utility.yul\":4882:4888   */\n      dup2\n        /* \"#utility.yul\":4869:4889   */\n      calldataload\n        /* \"#utility.yul\":4860:4889   */\n      swap1\n      pop\n        /* \"#utility.yul\":4898:4931   */\n      tag_279\n        /* \"#utility.yul\":4925:4930   */\n      dup2\n        /* \"#utility.yul\":4898:4931   */\n      tag_175\n      jump\t// in\n    tag_279:\n        /* \"#utility.yul\":4798:4937   */\n      swap3\n      swap2\n      pop\n      pop\n      jump\t// out\n        /* \"#utility.yul\":4943:5272   */\n    tag_33:\n        /* \"#utility.yul\":5002:5008   */\n      0x00\n        /* \"#utility.yul\":5051:5053   */\n      0x20\n        /* \"#utility.yul\":5039:5048   */\n      dup3\n        /* \"#utility.yul\":5030:5037   */\n      dup5\n        /* \"#utility.yul\":5026:5049   */\n      sub\n        /* \"#utility.yul\":5022:5054   */\n      slt\n        /* \"#utility.yul\":5019:5138   */\n      iszero\n      tag_281\n      jumpi\n        /* \"#utility.yul\":5057:5136   */\n      tag_282\n      tag_157\n      jump\t// in\n    tag_282:\n        /* \"#utility.yul\":5019:5138   */\n    tag_281:\n        /* \"#utility.yul\":5177:5178   */\n      0x00\n        /* \"#utility.yul\":5202:5255   */\n      tag_283\n        /* \"#utility.yul\":5247:5254   */\n      dup5\n        /* \"#utility.yul\":5238:5244   */\n      dup3\n        /* \"#utility.yul\":5227:5236   */\n      dup6\n        /* \"#utility.yul\":5223:5245   */\n      add\n        /* \"#utility.yul\":5202:5255   */\n      tag_176\n      jump\t// in\n    tag_283:\n        /* \"#utility.yul\":5192:5255   */\n      swap2\n      pop\n        /* \"#utility.yul\":5148:5265   */\n      pop\n        /* \"#utility.yul\":4943:5272   */\n      swap3\n      swap2\n      pop\n      pop\n      jump\t// out\n        /* \"#utility.yul\":5278:5377   */\n    tag_177:\n        /* \"#utility.yul\":5330:5336   */\n      0x00\n        /* \"#utility.yul\":5364:5369   */\n      dup2\n        /* \"#utility.yul\":5358:5370   */\n      mload\n        /* \"#utility.yul\":5348:5370   */\n      swap1\n      pop\n        /* \"#utility.yul\":5278:5377   */\n      swap2\n      swap1\n      pop\n      jump\t// out\n        /* \"#utility.yul\":5383:5552   */\n    tag_178:\n        /* \"#utility.yul\":5467:5478   */\n      0x00\n        /* \"#utility.yul\":5501:5507   */\n      dup3\n        /* \"#utility.yul\":5496:5499   */\n      dup3\n        /* \"#utility.yul\":5489:5508   */\n      mstore\n        /* \"#utility.yul\":5541:5545   */\n      0x20\n        /* \"#utility.yul\":5536:5539   */\n      dup3\n        /* \"#utility.yul\":5532:5546   */\n      add\n        /* \"#utility.yul\":5517:5546   */\n      swap1\n      pop\n        /* \"#utility.yul\":5383:5552   */\n      swap3\n      swap2\n      pop\n      pop\n      jump\t// out\n        /* \"#utility.yul\":5558:5804   */\n    tag_179:\n        /* \"#utility.yul\":5639:5640   */\n      0x00\n        /* \"#utility.yul\":5649:5762   */\n    tag_287:\n        /* \"#utility.yul\":5663:5669   */\n      dup4\n        /* \"#utility.yul\":5660:5661   */\n      dup2\n        /* \"#utility.yul\":5657:5670   */\n      lt\n        /* \"#utility.yul\":5649:5762   */\n      iszero\n      tag_289\n      jumpi\n        /* \"#utility.yul\":5748:5749   */\n      dup1\n        /* \"#utility.yul\":5743:5746   */\n      dup3\n        /* \"#utility.yul\":5739:5750   */\n      add\n        /* \"#utility.yul\":5733:5751   */\n      mload\n        /* \"#utility.yul\":5729:5730   */\n      dup2\n        /* \"#utility.yul\":5724:5727   */\n      dup5\n        /* \"#utility.yul\":5720:5731   */\n      add\n        /* \"#utility.yul\":5713:5752   */\n      mstore\n        /* \"#utility.yul\":5685:5687   */\n      0x20\n        /* \"#utility.yul\":5682:5683   */\n      dup2\n        /* \"#utility.yul\":5678:5688   */\n      add\n        /* \"#utility.yul\":5673:5688   */\n      swap1\n      pop\n        /* \"#utility.yul\":5649:5762   */\n      jump(tag_287)\n    tag_289:\n        /* \"#utility.yul\":5796:5797   */\n      0x00\n        /* \"#utility.yul\":5787:5793   */\n      dup5\n        /* \"#utility.yul\":5782:5785   */\n      dup5\n        /* \"#utility.yul\":5778:5794   */\n      add\n        /* \"#utility.yul\":5771:5798   */\n      mstore\n        /* \"#utility.yul\":5620:5804   */\n      pop\n        /* \"#utility.yul\":5558:5804   */\n      pop\n      pop\n      pop\n      jump\t// out\n        /* \"#utility.yul\":5810:6187   */\n    tag_180:\n        /* \"#utility.yul\":5898:5901   */\n      0x00\n        /* \"#utility.yul\":5926:5965   */\n      tag_291\n        /* \"#utility.yul\":5959:5964   */\n      dup3\n        /* \"#utility.yul\":5926:5965   */\n      tag_177\n      jump\t// in\n    tag_291:\n        /* \"#utility.yul\":5981:6052   */\n      tag_292\n        /* \"#utility.yul\":6045:6051   */\n      dup2\n        /* \"#utility.yul\":6040:6043   */\n      dup6\n        /* \"#utility.yul\":5981:6052   */\n      tag_178\n      jump\t// in\n    tag_292:\n        /* \"#utility.yul\":5974:6052   */\n      swap4\n      pop\n        /* \"#utility.yul\":6061:6126   */\n      tag_293\n        /* \"#utility.yul\":6119:6125   */\n      dup2\n        /* \"#utility.yul\":6114:6117   */\n      dup6\n        /* \"#utility.yul\":6107:6111   */\n      0x20\n        /* \"#utility.yul\":6100:6105   */\n      dup7\n        /* \"#utility.yul\":6096:6112   */\n      add\n        /* \"#utility.yul\":6061:6126   */\n      tag_179\n      jump\t// in\n    tag_293:\n        /* \"#utility.yul\":6151:6180   */\n      tag_294\n        /* \"#utility.yul\":6173:6179   */\n      dup2\n        /* \"#utility.yul\":6151:6180   */\n      tag_161\n      jump\t// in\n    tag_294:\n        /* \"#utility.yul\":6146:6149   */\n      dup5\n        /* \"#utility.yul\":6142:6181   */\n      add\n        /* \"#utility.yul\":6135:6181   */\n      swap2\n      pop\n        /* \"#utility.yul\":5902:6187   */\n      pop\n        /* \"#utility.yul\":5810:6187   */\n      swap3\n      swap2\n      pop\n      pop\n      jump\t// out\n        /* \"#utility.yul\":6193:6283   */\n    tag_181:\n        /* \"#utility.yul\":6227:6234   */\n      0x00\n        /* \"#utility.yul\":6270:6275   */\n      dup2\n        /* \"#utility.yul\":6263:6276   */\n      iszero\n        /* \"#utility.yul\":6256:6277   */\n      iszero\n        /* \"#utility.yul\":6245:6277   */\n      swap1\n      pop\n        /* \"#utility.yul\":6193:6283   */\n      swap2\n      swap1\n      pop\n      jump\t// out\n        /* \"#utility.yul\":6289:6398   */\n    tag_182:\n        /* \"#utility.yul\":6370:6391   */\n      tag_297\n        /* \"#utility.yul\":6385:6390   */\n      dup2\n        /* \"#utility.yul\":6370:6391   */\n      tag_181\n      jump\t// in\n    tag_297:\n        /* \"#utility.yul\":6365:6368   */\n      dup3\n        /* \"#utility.yul\":6358:6392   */\n      mstore\n        /* \"#utility.yul\":6289:6398   */\n      pop\n      pop\n      jump\t// out\n        /* \"#utility.yul\":6404:7238   */\n    tag_36:\n        /* \"#utility.yul\":6643:6647   */\n      0x00\n        /* \"#utility.yul\":6681:6684   */\n      0xa0\n        /* \"#utility.yul\":6670:6679   */\n      dup3\n        /* \"#utility.yul\":6666:6685   */\n      add\n        /* \"#utility.yul\":6658:6685   */\n      swap1\n      pop\n        /* \"#utility.yul\":6731:6740   */\n      dup2\n        /* \"#utility.yul\":6725:6729   */\n      dup2\n        /* \"#utility.yul\":6721:6741   */\n      sub\n        /* \"#utility.yul\":6717:6718   */\n      0x00\n        /* \"#utility.yul\":6706:6715   */\n      dup4\n        /* \"#utility.yul\":6702:6719   */\n      add\n        /* \"#utility.yul\":6695:6742   */\n      mstore\n        /* \"#utility.yul\":6759:6837   */\n      tag_299\n        /* \"#utility.yul\":6832:6836   */\n      dup2\n        /* \"#utility.yul\":6823:6829   */\n      dup9\n        /* \"#utility.yul\":6759:6837   */\n      tag_180\n      jump\t// in\n    tag_299:\n        /* \"#utility.yul\":6751:6837   */\n      swap1\n      pop\n        /* \"#utility.yul\":6884:6893   */\n      dup2\n        /* \"#utility.yul\":6878:6882   */\n      dup2\n        /* \"#utility.yul\":6874:6894   */\n      sub\n        /* \"#utility.yul\":6869:6871   */\n      0x20\n        /* \"#utility.yul\":6858:6867   */\n      dup4\n        /* \"#utility.yul\":6854:6872   */\n      add\n        /* \"#utility.yul\":6847:6895   */\n      mstore\n        /* \"#utility.yul\":6912:6990   */\n      tag_300\n        /* \"#utility.yul\":6985:6989   */\n      dup2\n        /* \"#utility.yul\":6976:6982   */\n      dup8\n        /* \"#utility.yul\":6912:6990   */\n      tag_180\n      jump\t// in\n    tag_300:\n        /* \"#utility.yul\":6904:6990   */\n      swap1\n      pop\n        /* \"#utility.yul\":7000:7072   */\n      tag_301\n        /* \"#utility.yul\":7068:7070   */\n      0x40\n        /* \"#utility.yul\":7057:7066   */\n      dup4\n        /* \"#utility.yul\":7053:7071   */\n      add\n        /* \"#utility.yul\":7044:7050   */\n      dup7\n        /* \"#utility.yul\":7000:7072   */\n      tag_170\n      jump\t// in\n    tag_301:\n        /* \"#utility.yul\":7082:7154   */\n      tag_302\n        /* \"#utility.yul\":7150:7152   */\n      0x60\n        /* \"#utility.yul\":7139:7148   */\n      dup4\n        /* \"#utility.yul\":7135:7153   */\n      add\n        /* \"#utility.yul\":7126:7132   */\n      dup6\n        /* \"#utility.yul\":7082:7154   */\n      tag_170\n      jump\t// in\n    tag_302:\n        /* \"#utility.yul\":7164:7231   */\n      tag_303\n        /* \"#utility.yul\":7226:7229   */\n      0x80\n        /* \"#utility.yul\":7215:7224   */\n      dup4\n        /* \"#utility.yul\":7211:7230   */\n      add\n        /* \"#utility.yul\":7202:7208   */\n      dup5\n        /* \"#utility.yul\":7164:7231   */\n      tag_182\n      jump\t// in\n    tag_303:\n        /* \"#utility.yul\":6404:7238   */\n      swap7\n      swap6\n      pop\n      pop\n      pop\n      pop\n      pop\n      pop\n      jump\t// out\n        /* \"#utility.yul\":7244:7454   */\n    tag_41:\n        /* \"#utility.yul\":7331:7335   */\n      0x00\n        /* \"#utility.yul\":7369:7371   */\n      0x20\n        /* \"#utility.yul\":7358:7367   */\n      dup3\n        /* \"#utility.yul\":7354:7372   */\n      add\n        /* \"#utility.yul\":7346:7372   */\n      swap1\n      pop\n        /* \"#utility.yul\":7382:7447   */\n      tag_305\n        /* \"#utility.yul\":7444:7445   */\n      0x00\n        /* \"#utility.yul\":7433:7442   */\n      dup4\n        /* \"#utility.yul\":7429:7446   */\n      add\n        /* \"#utility.yul\":7420:7426   */\n      dup5\n        /* \"#utility.yul\":7382:7447   */\n      tag_182\n      jump\t// in\n    tag_305:\n        /* \"#utility.yul\":7244:7454   */\n      swap3\n      swap2\n      pop\n      pop\n      jump\t// out\n        /* \"#utility.yul\":7460:7934   */\n    tag_44:\n        /* \"#utility.yul\":7528:7534   */\n      0x00\n        /* \"#utility.yul\":7536:7542   */\n      dup1\n        /* \"#utility.yul\":7585:7587   */\n      0x40\n        /* \"#utility.yul\":7573:7582   */\n      dup4\n        /* \"#utility.yul\":7564:7571   */\n      dup6\n        /* \"#utility.yul\":7560:7583   */\n      sub\n        /* \"#utility.yul\":7556:7588   */\n      slt\n        /* \"#utility.yul\":7553:7672   */\n      iszero\n      tag_307\n      jumpi\n        /* \"#utility.yul\":7591:7670   */\n      tag_308\n      tag_157\n      jump\t// in\n    tag_308:\n        /* \"#utility.yul\":7553:7672   */\n    tag_307:\n        /* \"#utility.yul\":7711:7712   */\n      0x00\n        /* \"#utility.yul\":7736:7789   */\n      tag_309\n        /* \"#utility.yul\":7781:7788   */\n      dup6\n        /* \"#utility.yul\":7772:7778   */\n      dup3\n        /* \"#utility.yul\":7761:7770   */\n      dup7\n        /* \"#utility.yul\":7757:7779   */\n      add\n        /* \"#utility.yul\":7736:7789   */\n      tag_176\n      jump\t// in\n    tag_309:\n        /* \"#utility.yul\":7726:7789   */\n      swap3\n      pop\n        /* \"#utility.yul\":7682:7799   */\n      pop\n        /* \"#utility.yul\":7838:7840   */\n      0x20\n        /* \"#utility.yul\":7864:7917   */\n      tag_310\n        /* \"#utility.yul\":7909:7916   */\n      dup6\n        /* \"#utility.yul\":7900:7906   */\n      dup3\n        /* \"#utility.yul\":7889:7898   */\n      dup7\n        /* \"#utility.yul\":7885:7907   */\n      add\n        /* \"#utility.yul\":7864:7917   */\n      tag_174\n      jump\t// in\n    tag_310:\n        /* \"#utility.yul\":7854:7917   */\n      swap2\n      pop\n        /* \"#utility.yul\":7809:7927   */\n      pop\n        /* \"#utility.yul\":7460:7934   */\n      swap3\n      pop\n      swap3\n      swap1\n      pop\n      jump\t// out\n        /* \"#utility.yul\":7940:8054   */\n    tag_183:\n        /* \"#utility.yul\":8007:8013   */\n      0x00\n        /* \"#utility.yul\":8041:8046   */\n      dup2\n        /* \"#utility.yul\":8035:8047   */\n      mload\n        /* \"#utility.yul\":8025:8047   */\n      swap1\n      pop\n        /* \"#utility.yul\":7940:8054   */\n      swap2\n      swap1\n      pop\n      jump\t// out\n        /* \"#utility.yul\":8060:8244   */\n    tag_184:\n        /* \"#utility.yul\":8159:8170   */\n      0x00\n        /* \"#utility.yul\":8193:8199   */\n      dup3\n        /* \"#utility.yul\":8188:8191   */\n      dup3\n        /* \"#utility.yul\":8181:8200   */\n      mstore\n        /* \"#utility.yul\":8233:8237   */\n      0x20\n        /* \"#utility.yul\":8228:8231   */\n      dup3\n        /* \"#utility.yul\":8224:8238   */\n      add\n        /* \"#utility.yul\":8209:8238   */\n      swap1\n      pop\n        /* \"#utility.yul\":8060:8244   */\n      swap3\n      swap2\n      pop\n      pop\n      jump\t// out\n        /* \"#utility.yul\":8250:8382   */\n    tag_185:\n        /* \"#utility.yul\":8317:8321   */\n      0x00\n        /* \"#utility.yul\":8340:8343   */\n      dup2\n        /* \"#utility.yul\":8332:8343   */\n      swap1\n      pop\n        /* \"#utility.yul\":8370:8374   */\n      0x20\n        /* \"#utility.yul\":8365:8368   */\n      dup3\n        /* \"#utility.yul\":8361:8375   */\n      add\n        /* \"#utility.yul\":8353:8375   */\n      swap1\n      pop\n        /* \"#utility.yul\":8250:8382   */\n      swap2\n      swap1\n      pop\n      jump\t// out\n        /* \"#utility.yul\":8388:8496   */\n    tag_186:\n        /* \"#utility.yul\":8465:8489   */\n      tag_315\n        /* \"#utility.yul\":8483:8488   */\n      dup2\n        /* \"#utility.yul\":8465:8489   */\n      tag_169\n      jump\t// in\n    tag_315:\n        /* \"#utility.yul\":8460:8463   */\n      dup3\n        /* \"#utility.yul\":8453:8490   */\n      mstore\n        /* \"#utility.yul\":8388:8496   */\n      pop\n      pop\n      jump\t// out\n        /* \"#utility.yul\":8502:8681   */\n    tag_187:\n        /* \"#utility.yul\":8571:8581   */\n      0x00\n        /* \"#utility.yul\":8592:8638   */\n      tag_317\n        /* \"#utility.yul\":8634:8637   */\n      dup4\n        /* \"#utility.yul\":8626:8632   */\n      dup4\n        /* \"#utility.yul\":8592:8638   */\n      tag_186\n      jump\t// in\n    tag_317:\n        /* \"#utility.yul\":8670:8674   */\n      0x20\n        /* \"#utility.yul\":8665:8668   */\n      dup4\n        /* \"#utility.yul\":8661:8675   */\n      add\n        /* \"#utility.yul\":8647:8675   */\n      swap1\n      pop\n        /* \"#utility.yul\":8502:8681   */\n      swap3\n      swap2\n      pop\n      pop\n      jump\t// out\n        /* \"#utility.yul\":8687:8800   */\n    tag_188:\n        /* \"#utility.yul\":8757:8761   */\n      0x00\n        /* \"#utility.yul\":8789:8793   */\n      0x20\n        /* \"#utility.yul\":8784:8787   */\n      dup3\n        /* \"#utility.yul\":8780:8794   */\n      add\n        /* \"#utility.yul\":8772:8794   */\n      swap1\n      pop\n        /* \"#utility.yul\":8687:8800   */\n      swap2\n      swap1\n      pop\n      jump\t// out\n        /* \"#utility.yul\":8836:9568   */\n    tag_189:\n        /* \"#utility.yul\":8955:8958   */\n      0x00\n        /* \"#utility.yul\":8984:9038   */\n      tag_320\n        /* \"#utility.yul\":9032:9037   */\n      dup3\n        /* \"#utility.yul\":8984:9038   */\n      tag_183\n      jump\t// in\n    tag_320:\n        /* \"#utility.yul\":9054:9140   */\n      tag_321\n        /* \"#utility.yul\":9133:9139   */\n      dup2\n        /* \"#utility.yul\":9128:9131   */\n      dup6\n        /* \"#utility.yul\":9054:9140   */\n      tag_184\n      jump\t// in\n    tag_321:\n        /* \"#utility.yul\":9047:9140   */\n      swap4\n      pop\n        /* \"#utility.yul\":9164:9220   */\n      tag_322\n        /* \"#utility.yul\":9214:9219   */\n      dup4\n        /* \"#utility.yul\":9164:9220   */\n      tag_185\n      jump\t// in\n    tag_322:\n        /* \"#utility.yul\":9243:9250   */\n      dup1\n        /* \"#utility.yul\":9274:9275   */\n      0x00\n        /* \"#utility.yul\":9259:9543   */\n    tag_323:\n        /* \"#utility.yul\":9284:9290   */\n      dup4\n        /* \"#utility.yul\":9281:9282   */\n      dup2\n        /* \"#utility.yul\":9278:9291   */\n      lt\n        /* \"#utility.yul\":9259:9543   */\n      iszero\n      tag_325\n      jumpi\n        /* \"#utility.yul\":9360:9366   */\n      dup2\n        /* \"#utility.yul\":9354:9367   */\n      mload\n        /* \"#utility.yul\":9387:9450   */\n      tag_326\n        /* \"#utility.yul\":9446:9449   */\n      dup9\n        /* \"#utility.yul\":9431:9444   */\n      dup3\n        /* \"#utility.yul\":9387:9450   */\n      tag_187\n      jump\t// in\n    tag_326:\n        /* \"#utility.yul\":9380:9450   */\n      swap8\n      pop\n        /* \"#utility.yul\":9473:9533   */\n      tag_327\n        /* \"#utility.yul\":9526:9532   */\n      dup4\n        /* \"#utility.yul\":9473:9533   */\n      tag_188\n      jump\t// in\n    tag_327:\n        /* \"#utility.yul\":9463:9533   */\n      swap3\n      pop\n        /* \"#utility.yul\":9319:9543   */\n      pop\n        /* \"#utility.yul\":9306:9307   */\n      0x01\n        /* \"#utility.yul\":9303:9304   */\n      dup2\n        /* \"#utility.yul\":9299:9308   */\n      add\n        /* \"#utility.yul\":9294:9308   */\n      swap1\n      pop\n        /* \"#utility.yul\":9259:9543   */\n      jump(tag_323)\n    tag_325:\n        /* \"#utility.yul\":9263:9277   */\n      pop\n        /* \"#utility.yul\":9559:9562   */\n      dup6\n        /* \"#utility.yul\":9552:9562   */\n      swap4\n      pop\n        /* \"#utility.yul\":8960:9568   */\n      pop\n      pop\n      pop\n        /* \"#utility.yul\":8836:9568   */\n      swap3\n      swap2\n      pop\n      pop\n      jump\t// out\n        /* \"#utility.yul\":9574:9947   */\n    tag_51:\n        /* \"#utility.yul\":9717:9721   */\n      0x00\n        /* \"#utility.yul\":9755:9757   */\n      0x20\n        /* \"#utility.yul\":9744:9753   */\n      dup3\n        /* \"#utility.yul\":9740:9758   */\n      add\n        /* \"#utility.yul\":9732:9758   */\n      swap1\n      pop\n        /* \"#utility.yul\":9804:9813   */\n      dup2\n        /* \"#utility.yul\":9798:9802   */\n      dup2\n        /* \"#utility.yul\":9794:9814   */\n      sub\n        /* \"#utility.yul\":9790:9791   */\n      0x00\n        /* \"#utility.yul\":9779:9788   */\n      dup4\n        /* \"#utility.yul\":9775:9792   */\n      add\n        /* \"#utility.yul\":9768:9815   */\n      mstore\n        /* \"#utility.yul\":9832:9940   */\n      tag_329\n        /* \"#utility.yul\":9935:9939   */\n      dup2\n        /* \"#utility.yul\":9926:9932   */\n      dup5\n        /* \"#utility.yul\":9832:9940   */\n      tag_189\n      jump\t// in\n    tag_329:\n        /* \"#utility.yul\":9824:9940   */\n      swap1\n      pop\n        /* \"#utility.yul\":9574:9947   */\n      swap3\n      swap2\n      pop\n      pop\n      jump\t// out\n        /* \"#utility.yul\":9953:10266   */\n    tag_56:\n        /* \"#utility.yul\":10066:10070   */\n      0x00\n        /* \"#utility.yul\":10104:10106   */\n      0x20\n        /* \"#utility.yul\":10093:10102   */\n      dup3\n        /* \"#utility.yul\":10089:10107   */\n      add\n        /* \"#utility.yul\":10081:10107   */\n      swap1\n      pop\n        /* \"#utility.yul\":10153:10162   */\n      dup2\n        /* \"#utility.yul\":10147:10151   */\n      dup2\n        /* \"#utility.yul\":10143:10163   */\n      sub\n        /* \"#utility.yul\":10139:10140   */\n      0x00\n        /* \"#utility.yul\":10128:10137   */\n      dup4\n        /* \"#utility.yul\":10124:10141   */\n      add\n        /* \"#utility.yul\":10117:10164   */\n      mstore\n        /* \"#utility.yul\":10181:10259   */\n      tag_331\n        /* \"#utility.yul\":10254:10258   */\n      dup2\n        /* \"#utility.yul\":10245:10251   */\n      dup5\n        /* \"#utility.yul\":10181:10259   */\n      tag_180\n      jump\t// in\n    tag_331:\n        /* \"#utility.yul\":10173:10259   */\n      swap1\n      pop\n        /* \"#utility.yul\":9953:10266   */\n      swap3\n      swap2\n      pop\n      pop\n      jump\t// out\n        /* \"#utility.yul\":10272:10388   */\n    tag_190:\n        /* \"#utility.yul\":10342:10363   */\n      tag_333\n        /* \"#utility.yul\":10357:10362   */\n      dup2\n        /* \"#utility.yul\":10342:10363   */\n      tag_181\n      jump\t// in\n    tag_333:\n        /* \"#utility.yul\":10335:10340   */\n      dup2\n        /* \"#utility.yul\":10332:10364   */\n      eq\n        /* \"#utility.yul\":10322:10382   */\n      tag_334\n      jumpi\n        /* \"#utility.yul\":10378:10379   */\n      0x00\n        /* \"#utility.yul\":10375:10376   */\n      dup1\n        /* \"#utility.yul\":10368:10380   */\n      revert\n        /* \"#utility.yul\":10322:10382   */\n    tag_334:\n        /* \"#utility.yul\":10272:10388   */\n      pop\n      jump\t// out\n        /* \"#utility.yul\":10394:10527   */\n    tag_191:\n        /* \"#utility.yul\":10437:10442   */\n      0x00\n        /* \"#utility.yul\":10475:10481   */\n      dup2\n        /* \"#utility.yul\":10462:10482   */\n      calldataload\n        /* \"#utility.yul\":10453:10482   */\n      swap1\n      pop\n        /* \"#utility.yul\":10491:10521   */\n      tag_336\n        /* \"#utility.yul\":10515:10520   */\n      dup2\n        /* \"#utility.yul\":10491:10521   */\n      tag_190\n      jump\t// in\n    tag_336:\n        /* \"#utility.yul\":10394:10527   */\n      swap3\n      swap2\n      pop\n      pop\n      jump\t// out\n        /* \"#utility.yul\":10533:11001   */\n    tag_79:\n        /* \"#utility.yul\":10598:10604   */\n      0x00\n        /* \"#utility.yul\":10606:10612   */\n      dup1\n        /* \"#utility.yul\":10655:10657   */\n      0x40\n        /* \"#utility.yul\":10643:10652   */\n      dup4\n        /* \"#utility.yul\":10634:10641   */\n      dup6\n        /* \"#utility.yul\":10630:10653   */\n      sub\n        /* \"#utility.yul\":10626:10658   */\n      slt\n        /* \"#utility.yul\":10623:10742   */\n      iszero\n      tag_338\n      jumpi\n        /* \"#utility.yul\":10661:10740   */\n      tag_339\n      tag_157\n      jump\t// in\n    tag_339:\n        /* \"#utility.yul\":10623:10742   */\n    tag_338:\n        /* \"#utility.yul\":10781:10782   */\n      0x00\n        /* \"#utility.yul\":10806:10859   */\n      tag_340\n        /* \"#utility.yul\":10851:10858   */\n      dup6\n        /* \"#utility.yul\":10842:10848   */\n      dup3\n        /* \"#utility.yul\":10831:10840   */\n      dup7\n        /* \"#utility.yul\":10827:10849   */\n      add\n        /* \"#utility.yul\":10806:10859   */\n      tag_176\n      jump\t// in\n    tag_340:\n        /* \"#utility.yul\":10796:10859   */\n      swap3\n      pop\n        /* \"#utility.yul\":10752:10869   */\n      pop\n        /* \"#utility.yul\":10908:10910   */\n      0x20\n        /* \"#utility.yul\":10934:10984   */\n      tag_341\n        /* \"#utility.yul\":10976:10983   */\n      dup6\n        /* \"#utility.yul\":10967:10973   */\n      dup3\n        /* \"#utility.yul\":10956:10965   */\n      dup7\n        /* \"#utility.yul\":10952:10974   */\n      add\n        /* \"#utility.yul\":10934:10984   */\n      tag_191\n      jump\t// in\n    tag_341:\n        /* \"#utility.yul\":10924:10984   */\n      swap2\n      pop\n        /* \"#utility.yul\":10879:10994   */\n      pop\n        /* \"#utility.yul\":10533:11001   */\n      swap3\n      pop\n      swap3\n      swap1\n      pop\n      jump\t// out\n        /* \"#utility.yul\":11007:11339   */\n    tag_85:\n        /* \"#utility.yul\":11128:11132   */\n      0x00\n        /* \"#utility.yul\":11166:11168   */\n      0x40\n        /* \"#utility.yul\":11155:11164   */\n      dup3\n        /* \"#utility.yul\":11151:11169   */\n      add\n        /* \"#utility.yul\":11143:11169   */\n      swap1\n      pop\n        /* \"#utility.yul\":11179:11250   */\n      tag_343\n        /* \"#utility.yul\":11247:11248   */\n      0x00\n        /* \"#utility.yul\":11236:11245   */\n      dup4\n        /* \"#utility.yul\":11232:11249   */\n      add\n        /* \"#utility.yul\":11223:11229   */\n      dup6\n        /* \"#utility.yul\":11179:11250   */\n      tag_170\n      jump\t// in\n    tag_343:\n        /* \"#utility.yul\":11260:11332   */\n      tag_344\n        /* \"#utility.yul\":11328:11330   */\n      0x20\n        /* \"#utility.yul\":11317:11326   */\n      dup4\n        /* \"#utility.yul\":11313:11331   */\n      add\n        /* \"#utility.yul\":11304:11310   */\n      dup5\n        /* \"#utility.yul\":11260:11332   */\n      tag_170\n      jump\t// in\n    tag_344:\n        /* \"#utility.yul\":11007:11339   */\n      swap4\n      swap3\n      pop\n      pop\n      pop\n      jump\t// out\n        /* \"#utility.yul\":11345:11567   */\n    tag_192:\n        /* \"#utility.yul\":11485:11519   */\n      0x4f6e6c792061646d696e732063616e20706572666f726d207468697320616374\n        /* \"#utility.yul\":11481:11482   */\n      0x00\n        /* \"#utility.yul\":11473:11479   */\n      dup3\n        /* \"#utility.yul\":11469:11483   */\n      add\n        /* \"#utility.yul\":11462:11520   */\n      mstore\n        /* \"#utility.yul\":11554:11559   */\n      0x696f6e0000000000000000000000000000000000000000000000000000000000\n        /* \"#utility.yul\":11549:11551   */\n      0x20\n        /* \"#utility.yul\":11541:11547   */\n      dup3\n        /* \"#utility.yul\":11537:11552   */\n      add\n        /* \"#utility.yul\":11530:11560   */\n      mstore\n        /* \"#utility.yul\":11345:11567   */\n      pop\n      jump\t// out\n        /* \"#utility.yul\":11573:11939   */\n    tag_193:\n        /* \"#utility.yul\":11715:11718   */\n      0x00\n        /* \"#utility.yul\":11736:11803   */\n      tag_347\n        /* \"#utility.yul\":11800:11802   */\n      0x23\n        /* \"#utility.yul\":11795:11798   */\n      dup4\n        /* \"#utility.yul\":11736:11803   */\n      tag_178\n      jump\t// in\n    tag_347:\n        /* \"#utility.yul\":11729:11803   */\n      swap2\n      pop\n        /* \"#utility.yul\":11812:11905   */\n      tag_348\n        /* \"#utility.yul\":11901:11904   */\n      dup3\n        /* \"#utility.yul\":11812:11905   */\n      tag_192\n      jump\t// in\n    tag_348:\n        /* \"#utility.yul\":11930:11932   */\n      0x40\n        /* \"#utility.yul\":11925:11928   */\n      dup3\n        /* \"#utility.yul\":11921:11933   */\n      add\n        /* \"#utility.yul\":11914:11933   */\n      swap1\n      pop\n        /* \"#utility.yul\":11573:11939   */\n      swap2\n      swap1\n      pop\n      jump\t// out\n        /* \"#utility.yul\":11945:12364   */\n    tag_89:\n        /* \"#utility.yul\":12111:12115   */\n      0x00\n        /* \"#utility.yul\":12149:12151   */\n      0x20\n        /* \"#utility.yul\":12138:12147   */\n      dup3\n        /* \"#utility.yul\":12134:12152   */\n      add\n        /* \"#utility.yul\":12126:12152   */\n      swap1\n      pop\n        /* \"#utility.yul\":12198:12207   */\n      dup2\n        /* \"#utility.yul\":12192:12196   */\n      dup2\n        /* \"#utility.yul\":12188:12208   */\n      sub\n        /* \"#utility.yul\":12184:12185   */\n      0x00\n        /* \"#utility.yul\":12173:12182   */\n      dup4\n        /* \"#utility.yul\":12169:12186   */\n      add\n        /* \"#utility.yul\":12162:12209   */\n      mstore\n        /* \"#utility.yul\":12226:12357   */\n      tag_350\n        /* \"#utility.yul\":12352:12356   */\n      dup2\n        /* \"#utility.yul\":12226:12357   */\n      tag_193\n      jump\t// in\n    tag_350:\n        /* \"#utility.yul\":12218:12357   */\n      swap1\n      pop\n        /* \"#utility.yul\":11945:12364   */\n      swap2\n      swap1\n      pop\n      jump\t// out\n        /* \"#utility.yul\":12370:12550   */\n    tag_194:\n        /* \"#utility.yul\":12418:12495   */\n      0x4e487b7100000000000000000000000000000000000000000000000000000000\n        /* \"#utility.yul\":12415:12416   */\n      0x00\n        /* \"#utility.yul\":12408:12496   */\n      mstore\n        /* \"#utility.yul\":12515:12519   */\n      0x11\n        /* \"#utility.yul\":12512:12513   */\n      0x04\n        /* \"#utility.yul\":12505:12520   */\n      mstore\n        /* \"#utility.yul\":12539:12543   */\n      0x24\n        /* \"#utility.yul\":12536:12537   */\n      0x00\n        /* \"#utility.yul\":12529:12544   */\n      revert\n        /* \"#utility.yul\":12556:12789   */\n    tag_92:\n        /* \"#utility.yul\":12595:12598   */\n      0x00\n        /* \"#utility.yul\":12618:12642   */\n      tag_353\n        /* \"#utility.yul\":12636:12641   */\n      dup3\n        /* \"#utility.yul\":12618:12642   */\n      tag_169\n      jump\t// in\n    tag_353:\n        /* \"#utility.yul\":12609:12642   */\n      swap2\n      pop\n        /* \"#utility.yul\":12664:12730   */\n      0xffffffffffffffffffffffffffffffffffffffffffffffffffffffffffffffff\n        /* \"#utility.yul\":12657:12662   */\n      dup3\n        /* \"#utility.yul\":12654:12731   */\n      sub\n        /* \"#utility.yul\":12651:12754   */\n      tag_354\n      jumpi\n        /* \"#utility.yul\":12734:12752   */\n      tag_355\n      tag_194\n      jump\t// in\n    tag_355:\n        /* \"#utility.yul\":12651:12754   */\n    tag_354:\n        /* \"#utility.yul\":12781:12782   */\n      0x01\n        /* \"#utility.yul\":12774:12779   */\n      dup3\n        /* \"#utility.yul\":12770:12783   */\n      add\n        /* \"#utility.yul\":12763:12783   */\n      swap1\n      pop\n        /* \"#utility.yul\":12556:12789   */\n      swap2\n      swap1\n      pop\n      jump\t// out\n        /* \"#utility.yul\":12795:12975   */\n    tag_195:\n        /* \"#utility.yul\":12843:12920   */\n      0x4e487b7100000000000000000000000000000000000000000000000000000000\n        /* \"#utility.yul\":12840:12841   */\n      0x00\n        /* \"#utility.yul\":12833:12921   */\n      mstore\n        /* \"#utility.yul\":12940:12944   */\n      0x22\n        /* \"#utility.yul\":12937:12938   */\n      0x04\n        /* \"#utility.yul\":12930:12945   */\n      mstore\n        /* \"#utility.yul\":12964:12968   */\n      0x24\n        /* \"#utility.yul\":12961:12962   */\n      0x00\n        /* \"#utility.yul\":12954:12969   */\n      revert\n        /* \"#utility.yul\":12981:13301   */\n    tag_101:\n        /* \"#utility.yul\":13025:13031   */\n      0x00\n        /* \"#utility.yul\":13062:13063   */\n      0x02\n        /* \"#utility.yul\":13056:13060   */\n      dup3\n        /* \"#utility.yul\":13052:13064   */\n      div\n        /* \"#utility.yul\":13042:13064   */\n      swap1\n      pop\n        /* \"#utility.yul\":13109:13110   */\n      0x01\n        /* \"#utility.yul\":13103:13107   */\n      dup3\n        /* \"#utility.yul\":13099:13111   */\n      and\n        /* \"#utility.yul\":13130:13148   */\n      dup1\n        /* \"#utility.yul\":13120:13201   */\n      tag_358\n      jumpi\n        /* \"#utility.yul\":13186:13190   */\n      0x7f\n        /* \"#utility.yul\":13178:13184   */\n      dup3\n        /* \"#utility.yul\":13174:13191   */\n      and\n        /* \"#utility.yul\":13164:13191   */\n      swap2\n      pop\n        /* \"#utility.yul\":13120:13201   */\n    tag_358:\n        /* \"#utility.yul\":13248:13250   */\n      0x20\n        /* \"#utility.yul\":13240:13246   */\n      dup3\n        /* \"#utility.yul\":13237:13251   */\n      lt\n        /* \"#utility.yul\":13217:13235   */\n      dup2\n        /* \"#utility.yul\":13214:13252   */\n      sub\n        /* \"#utility.yul\":13211:13295   */\n      tag_359\n      jumpi\n        /* \"#utility.yul\":13267:13285   */\n      tag_360\n      tag_195\n      jump\t// in\n    tag_360:\n        /* \"#utility.yul\":13211:13295   */\n    tag_359:\n        /* \"#utility.yul\":13032:13301   */\n      pop\n        /* \"#utility.yul\":12981:13301   */\n      swap2\n      swap1\n      pop\n      jump\t// out\n        /* \"#utility.yul\":13307:13448   */\n    tag_196:\n        /* \"#utility.yul\":13356:13360   */\n      0x00\n        /* \"#utility.yul\":13379:13382   */\n      dup2\n        /* \"#utility.yul\":13371:13382   */\n      swap1\n      pop\n        /* \"#utility.yul\":13402:13405   */\n      dup2\n        /* \"#utility.yul\":13399:13400   */\n      0x00\n        /* \"#utility.yul\":13392:13406   */\n      mstore\n        /* \"#utility.yul\":13436:13440   */\n      0x20\n        /* \"#utility.yul\":13433:13434   */\n      0x00\n        /* \"#utility.yul\":13423:13441   */\n      keccak256\n        /* \"#utility.yul\":13415:13441   */\n      swap1\n      pop\n        /* \"#utility.yul\":13307:13448   */\n      swap2\n      swap1\n      pop\n      jump\t// out\n        /* \"#utility.yul\":13454:13547   */\n    tag_197:\n        /* \"#utility.yul\":13491:13497   */\n      0x00\n        /* \"#utility.yul\":13538:13540   */\n      0x20\n        /* \"#utility.yul\":13533:13535   */\n      0x1f\n        /* \"#utility.yul\":13526:13531   */\n      dup4\n        /* \"#utility.yul\":13522:13536   */\n      add\n        /* \"#utility.yul\":13518:13541   */\n      div\n        /* \"#utility.yul\":13508:13541   */\n      swap1\n      pop\n        /* \"#utility.yul\":13454:13547   */\n      swap2\n      swap1\n      pop\n      jump\t// out\n        /* \"#utility.yul\":13553:13660   */\n    tag_198:\n        /* \"#utility.yul\":13597:13605   */\n      0x00\n        /* \"#utility.yul\":13647:13652   */\n      dup3\n        /* \"#utility.yul\":13641:13645   */\n      dup3\n        /* \"#utility.yul\":13637:13653   */\n      shl\n        /* \"#utility.yul\":13616:13653   */\n      swap1\n      pop\n        /* \"#utility.yul\":13553:13660   */\n      swap3\n      swap2\n      pop\n      pop\n      jump\t// out\n        /* \"#utility.yul\":13666:14059   */\n    tag_199:\n        /* \"#utility.yul\":13735:13741   */\n      0x00\n        /* \"#utility.yul\":13785:13786   */\n      0x08\n        /* \"#utility.yul\":13773:13783   */\n      dup4\n        /* \"#utility.yul\":13769:13787   */\n      mul\n        /* \"#utility.yul\":13808:13905   */\n      tag_365\n        /* \"#utility.yul\":13838:13904   */\n      0xffffffffffffffffffffffffffffffffffffffffffffffffffffffffffffffff\n        /* \"#utility.yul\":13827:13836   */\n      dup3\n        /* \"#utility.yul\":13808:13905   */\n      tag_198\n      jump\t// in\n    tag_365:\n        /* \"#utility.yul\":13926:13965   */\n      tag_366\n        /* \"#utility.yul\":13956:13964   */\n      dup7\n        /* \"#utility.yul\":13945:13954   */\n      dup4\n        /* \"#utility.yul\":13926:13965   */\n      tag_198\n      jump\t// in\n    tag_366:\n        /* \"#utility.yul\":13914:13965   */\n      swap6\n      pop\n        /* \"#utility.yul\":13998:14002   */\n      dup1\n        /* \"#utility.yul\":13994:14003   */\n      not\n        /* \"#utility.yul\":13987:13992   */\n      dup5\n        /* \"#utility.yul\":13983:14004   */\n      and\n        /* \"#utility.yul\":13974:14004   */\n      swap4\n      pop\n        /* \"#utility.yul\":14047:14051   */\n      dup1\n        /* \"#utility.yul\":14037:14045   */\n      dup7\n        /* \"#utility.yul\":14033:14052   */\n      and\n        /* \"#utility.yul\":14026:14031   */\n      dup5\n        /* \"#utility.yul\":14023:14053   */\n      or\n        /* \"#utility.yul\":14013:14053   */\n      swap3\n      pop\n        /* \"#utility.yul\":13742:14059   */\n      pop\n      pop\n        /* \"#utility.yul\":13666:14059   */\n      swap4\n      swap3\n      pop\n      pop\n      pop\n      jump\t// out\n        /* \"#utility.yul\":14065:14125   */\n    tag_200:\n        /* \"#utility.yul\":14093:14096   */\n      0x00\n        /* \"#utility.yul\":14114:14119   */\n      dup2\n        /* \"#utility.yul\":14107:14119   */\n      swap1\n      pop\n        /* \"#utility.yul\":14065:14125   */\n      swap2\n      swap1\n      pop\n      jump\t// out\n        /* \"#utility.yul\":14131:14273   */\n    tag_201:\n        /* \"#utility.yul\":14181:14190   */\n      0x00\n        /* \"#utility.yul\":14214:14267   */\n      tag_369\n        /* \"#utility.yul\":14232:14266   */\n      tag_370\n        /* \"#utility.yul\":14241:14265   */\n      tag_371\n        /* \"#utility.yul\":14259:14264   */\n      dup5\n        /* \"#utility.yul\":14241:14265   */\n      tag_169\n      jump\t// in\n    tag_371:\n        /* \"#utility.yul\":14232:14266   */\n      tag_200\n      jump\t// in\n    tag_370:\n        /* \"#utility.yul\":14214:14267   */\n      tag_169\n      jump\t// in\n    tag_369:\n        /* \"#utility.yul\":14201:14267   */\n      swap1\n      pop\n        /* \"#utility.yul\":14131:14273   */\n      swap2\n      swap1\n      pop\n      jump\t// out\n        /* \"#utility.yul\":14279:14354   */\n    tag_202:\n        /* \"#utility.yul\":14322:14325   */\n      0x00\n        /* \"#utility.yul\":14343:14348   */\n      dup2\n        /* \"#utility.yul\":14336:14348   */\n      swap1\n      pop\n        /* \"#utility.yul\":14279:14354   */\n      swap2\n      swap1\n      pop\n      jump\t// out\n        /* \"#utility.yul\":14360:14629   */\n    tag_203:\n        /* \"#utility.yul\":14470:14509   */\n      tag_374\n        /* \"#utility.yul\":14501:14508   */\n      dup4\n        /* \"#utility.yul\":14470:14509   */\n      tag_201\n      jump\t// in\n    tag_374:\n        /* \"#utility.yul\":14531:14622   */\n      tag_375\n        /* \"#utility.yul\":14580:14621   */\n      tag_376\n        /* \"#utility.yul\":14604:14620   */\n      dup3\n        /* \"#utility.yul\":14580:14621   */\n      tag_202\n      jump\t// in\n    tag_376:\n        /* \"#utility.yul\":14572:14578   */\n      dup5\n        /* \"#utility.yul\":14565:14569   */\n      dup5\n        /* \"#utility.yul\":14559:14570   */\n      sload\n        /* \"#utility.yul\":14531:14622   */\n      tag_199\n      jump\t// in\n    tag_375:\n        /* \"#utility.yul\":14525:14529   */\n      dup3\n        /* \"#utility.yul\":14518:14623   */\n      sstore\n        /* \"#utility.yul\":14436:14629   */\n      pop\n        /* \"#utility.yul\":14360:14629   */\n      pop\n      pop\n      pop\n      jump\t// out\n        /* \"#utility.yul\":14635:14708   */\n    tag_204:\n        /* \"#utility.yul\":14680:14683   */\n      0x00\n        /* \"#utility.yul\":14635:14708   */\n      swap1\n      jump\t// out\n        /* \"#utility.yul\":14714:14903   */\n    tag_205:\n        /* \"#utility.yul\":14791:14823   */\n      tag_379\n      tag_204\n      jump\t// in\n    tag_379:\n        /* \"#utility.yul\":14832:14897   */\n      tag_380\n        /* \"#utility.yul\":14890:14896   */\n      dup2\n        /* \"#utility.yul\":14882:14888   */\n      dup5\n        /* \"#utility.yul\":14876:14880   */\n      dup5\n        /* \"#utility.yul\":14832:14897   */\n      tag_203\n      jump\t// in\n    tag_380:\n        /* \"#utility.yul\":14767:14903   */\n      pop\n        /* \"#utility.yul\":14714:14903   */\n      pop\n      pop\n      jump\t// out\n        /* \"#utility.yul\":14909:15095   */\n    tag_206:\n        /* \"#utility.yul\":14969:15089   */\n    tag_382:\n        /* \"#utility.yul\":14986:14989   */\n      dup2\n        /* \"#utility.yul\":14979:14984   */\n      dup2\n        /* \"#utility.yul\":14976:14990   */\n      lt\n        /* \"#utility.yul\":14969:15089   */\n      iszero\n      tag_384\n      jumpi\n        /* \"#utility.yul\":15040:15079   */\n      tag_385\n        /* \"#utility.yul\":15077:15078   */\n      0x00\n        /* \"#utility.yul\":15070:15075   */\n      dup3\n        /* \"#utility.yul\":15040:15079   */\n      tag_205\n      jump\t// in\n    tag_385:\n        /* \"#utility.yul\":15013:15014   */\n      0x01\n        /* \"#utility.yul\":15006:15011   */\n      dup2\n        /* \"#utility.yul\":15002:15015   */\n      add\n        /* \"#utility.yul\":14993:15015   */\n      swap1\n      pop\n        /* \"#utility.yul\":14969:15089   */\n      jump(tag_382)\n    tag_384:\n        /* \"#utility.yul\":14909:15095   */\n      pop\n      pop\n      jump\t// out\n        /* \"#utility.yul\":15101:15644   */\n    tag_207:\n        /* \"#utility.yul\":15202:15204   */\n      0x1f\n        /* \"#utility.yul\":15197:15200   */\n      dup3\n        /* \"#utility.yul\":15194:15205   */\n      gt\n        /* \"#utility.yul\":15191:15637   */\n      iszero\n      tag_387\n      jumpi\n        /* \"#utility.yul\":15236:15274   */\n      tag_388\n        /* \"#utility.yul\":15268:15273   */\n      dup2\n        /* \"#utility.yul\":15236:15274   */\n      tag_196\n      jump\t// in\n    tag_388:\n        /* \"#utility.yul\":15320:15349   */\n      tag_389\n        /* \"#utility.yul\":15338:15348   */\n      dup5\n        /* \"#utility.yul\":15320:15349   */\n      tag_197\n      jump\t// in\n    tag_389:\n        /* \"#utility.yul\":15310:15318   */\n      dup2\n        /* \"#utility.yul\":15306:15350   */\n      add\n        /* \"#utility.yul\":15503:15505   */\n      0x20\n        /* \"#utility.yul\":15491:15501   */\n      dup6\n        /* \"#utility.yul\":15488:15506   */\n      lt\n        /* \"#utility.yul\":15485:15534   */\n      iszero\n      tag_390\n      jumpi\n        /* \"#utility.yul\":15524:15532   */\n      dup2\n        /* \"#utility.yul\":15509:15532   */\n      swap1\n      pop\n        /* \"#utility.yul\":15485:15534   */\n    tag_390:\n        /* \"#utility.yul\":15547:15627   */\n      tag_391\n        /* \"#utility.yul\":15603:15625   */\n      tag_392\n        /* \"#utility.yul\":15621:15624   */\n      dup6\n        /* \"#utility.yul\":15603:15625   */\n      tag_197\n      jump\t// in\n    tag_392:\n        /* \"#utility.yul\":15593:15601   */\n      dup4\n        /* \"#utility.yul\":15589:15626   */\n      add\n        /* \"#utility.yul\":15576:15587   */\n      dup3\n        /* \"#utility.yul\":15547:15627   */\n      tag_206\n      jump\t// in\n    tag_391:\n        /* \"#utility.yul\":15206:15637   */\n      pop\n      pop\n        /* \"#utility.yul\":15191:15637   */\n    tag_387:\n        /* \"#utility.yul\":15101:15644   */\n      pop\n      pop\n      pop\n      jump\t// out\n        /* \"#utility.yul\":15650:15767   */\n    tag_208:\n        /* \"#utility.yul\":15704:15712   */\n      0x00\n        /* \"#utility.yul\":15754:15759   */\n      dup3\n        /* \"#utility.yul\":15748:15752   */\n      dup3\n        /* \"#utility.yul\":15744:15760   */\n      shr\n        /* \"#utility.yul\":15723:15760   */\n      swap1\n      pop\n        /* \"#utility.yul\":15650:15767   */\n      swap3\n      swap2\n      pop\n      pop\n      jump\t// out\n        /* \"#utility.yul\":15773:15942   */\n    tag_209:\n        /* \"#utility.yul\":15817:15823   */\n      0x00\n        /* \"#utility.yul\":15850:15901   */\n      tag_395\n        /* \"#utility.yul\":15898:15899   */\n      0x00\n        /* \"#utility.yul\":15894:15900   */\n      not\n        /* \"#utility.yul\":15886:15891   */\n      dup5\n        /* \"#utility.yul\":15883:15884   */\n      0x08\n        /* \"#utility.yul\":15879:15892   */\n      mul\n        /* \"#utility.yul\":15850:15901   */\n      tag_208\n      jump\t// in\n    tag_395:\n        /* \"#utility.yul\":15846:15902   */\n      not\n        /* \"#utility.yul\":15931:15935   */\n      dup1\n        /* \"#utility.yul\":15925:15929   */\n      dup4\n        /* \"#utility.yul\":15921:15936   */\n      and\n        /* \"#utility.yul\":15911:15936   */\n      swap2\n      pop\n        /* \"#utility.yul\":15824:15942   */\n      pop\n        /* \"#utility.yul\":15773:15942   */\n      swap3\n      swap2\n      pop\n      pop\n      jump\t// out\n        /* \"#utility.yul\":15947:16242   */\n    tag_210:\n        /* \"#utility.yul\":16023:16027   */\n      0x00\n        /* \"#utility.yul\":16169:16198   */\n      tag_397\n        /* \"#utility.yul\":16194:16197   */\n      dup4\n        /* \"#utility.yul\":16188:16192   */\n      dup4\n        /* \"#utility.yul\":16169:16198   */\n      tag_209\n      jump\t// in\n    tag_397:\n        /* \"#utility.yul\":16161:16198   */\n      swap2\n      pop\n        /* \"#utility.yul\":16231:16234   */\n      dup3\n        /* \"#utility.yul\":16228:16229   */\n      0x02\n        /* \"#utility.yul\":16224:16235   */\n      mul\n        /* \"#utility.yul\":16218:16222   */\n      dup3\n        /* \"#utility.yul\":16215:16236   */\n      or\n        /* \"#utility.yul\":16207:16236   */\n      swap1\n      pop\n        /* \"#utility.yul\":15947:16242   */\n      swap3\n      swap2\n      pop\n      pop\n      jump\t// out\n        /* \"#utility.yul\":16247:17642   */\n    tag_94:\n        /* \"#utility.yul\":16364:16401   */\n      tag_399\n        /* \"#utility.yul\":16397:16400   */\n      dup3\n        /* \"#utility.yul\":16364:16401   */\n      tag_177\n      jump\t// in\n    tag_399:\n        /* \"#utility.yul\":16466:16484   */\n      0xffffffffffffffff\n        /* \"#utility.yul\":16458:16464   */\n      dup2\n        /* \"#utility.yul\":16455:16485   */\n      gt\n        /* \"#utility.yul\":16452:16508   */\n      iszero\n      tag_400\n      jumpi\n        /* \"#utility.yul\":16488:16506   */\n      tag_401\n      tag_162\n      jump\t// in\n    tag_401:\n        /* \"#utility.yul\":16452:16508   */\n    tag_400:\n        /* \"#utility.yul\":16532:16570   */\n      tag_402\n        /* \"#utility.yul\":16564:16568   */\n      dup3\n        /* \"#utility.yul\":16558:16569   */\n      sload\n        /* \"#utility.yul\":16532:16570   */\n      tag_101\n      jump\t// in\n    tag_402:\n        /* \"#utility.yul\":16617:16684   */\n      tag_403\n        /* \"#utility.yul\":16677:16683   */\n      dup3\n        /* \"#utility.yul\":16669:16675   */\n      dup3\n        /* \"#utility.yul\":16663:16667   */\n      dup6\n        /* \"#utility.yul\":16617:16684   */\n      tag_207\n      jump\t// in\n    tag_403:\n        /* \"#utility.yul\":16711:16712   */\n      0x00\n        /* \"#utility.yul\":16735:16739   */\n      0x20\n        /* \"#utility.yul\":16722:16739   */\n      swap1\n      pop\n        /* \"#utility.yul\":16767:16769   */\n      0x1f\n        /* \"#utility.yul\":16759:16765   */\n      dup4\n        /* \"#utility.yul\":16756:16770   */\n      gt\n        /* \"#utility.yul\":16784:16785   */\n      0x01\n        /* \"#utility.yul\":16779:17397   */\n      dup2\n      eq\n      tag_405\n      jumpi\n        /* \"#utility.yul\":17441:17442   */\n      0x00\n        /* \"#utility.yul\":17458:17464   */\n      dup5\n        /* \"#utility.yul\":17455:17532   */\n      iszero\n      tag_406\n      jumpi\n        /* \"#utility.yul\":17507:17516   */\n      dup3\n        /* \"#utility.yul\":17502:17505   */\n      dup8\n        /* \"#utility.yul\":17498:17517   */\n      add\n        /* \"#utility.yul\":17492:17518   */\n      mload\n        /* \"#utility.yul\":17483:17518   */\n      swap1\n      pop\n        /* \"#utility.yul\":17455:17532   */\n    tag_406:\n        /* \"#utility.yul\":17558:17625   */\n      tag_407\n        /* \"#utility.yul\":17618:17624   */\n      dup6\n        /* \"#utility.yul\":17611:17616   */\n      dup3\n        /* \"#utility.yul\":17558:17625   */\n      tag_210\n      jump\t// in\n    tag_407:\n        /* \"#utility.yul\":17552:17556   */\n      dup7\n        /* \"#utility.yul\":17545:17626   */\n      sstore\n        /* \"#utility.yul\":17414:17636   */\n      pop\n        /* \"#utility.yul\":16749:17636   */\n      jump(tag_404)\n        /* \"#utility.yul\":16779:17397   */\n    tag_405:\n        /* \"#utility.yul\":16831:16835   */\n      0x1f\n        /* \"#utility.yul\":16827:16836   */\n      not\n        /* \"#utility.yul\":16819:16825   */\n      dup5\n        /* \"#utility.yul\":16815:16837   */\n      and\n        /* \"#utility.yul\":16865:16902   */\n      tag_408\n        /* \"#utility.yul\":16897:16901   */\n      dup7\n        /* \"#utility.yul\":16865:16902   */\n      tag_196\n      jump\t// in\n    tag_408:\n        /* \"#utility.yul\":16924:16925   */\n      0x00\n        /* \"#utility.yul\":16938:17146   */\n    tag_409:\n        /* \"#utility.yul\":16952:16959   */\n      dup3\n        /* \"#utility.yul\":16949:16950   */\n      dup2\n        /* \"#utility.yul\":16946:16960   */\n      lt\n        /* \"#utility.yul\":16938:17146   */\n      iszero\n      tag_411\n      jumpi\n        /* \"#utility.yul\":17031:17040   */\n      dup5\n        /* \"#utility.yul\":17026:17029   */\n      dup10\n        /* \"#utility.yul\":17022:17041   */\n      add\n        /* \"#utility.yul\":17016:17042   */\n      mload\n        /* \"#utility.yul\":17008:17014   */\n      dup3\n        /* \"#utility.yul\":17001:17043   */\n      sstore\n        /* \"#utility.yul\":17082:17083   */\n      0x01\n        /* \"#utility.yul\":17074:17080   */\n      dup3\n        /* \"#utility.yul\":17070:17084   */\n      add\n        /* \"#utility.yul\":17060:17084   */\n      swap2\n      pop\n        /* \"#utility.yul\":17129:17131   */\n      0x20\n        /* \"#utility.yul\":17118:17127   */\n      dup6\n        /* \"#utility.yul\":17114:17132   */\n      add\n        /* \"#utility.yul\":17101:17132   */\n      swap5\n      pop\n        /* \"#utility.yul\":16975:16979   */\n      0x20\n        /* \"#utility.yul\":16972:16973   */\n      dup2\n        /* \"#utility.yul\":16968:16980   */\n      add\n        /* \"#utility.yul\":16963:16980   */\n      swap1\n      pop\n        /* \"#utility.yul\":16938:17146   */\n      jump(tag_409)\n    tag_411:\n        /* \"#utility.yul\":17174:17180   */\n      dup7\n        /* \"#utility.yul\":17165:17172   */\n      dup4\n        /* \"#utility.yul\":17162:17181   */\n      lt\n        /* \"#utility.yul\":17159:17338   */\n      iszero\n      tag_412\n      jumpi\n        /* \"#utility.yul\":17232:17241   */\n      dup5\n        /* \"#utility.yul\":17227:17230   */\n      dup10\n        /* \"#utility.yul\":17223:17242   */\n      add\n        /* \"#utility.yul\":17217:17243   */\n      mload\n        /* \"#utility.yul\":17275:17323   */\n      tag_413\n        /* \"#utility.yul\":17317:17321   */\n      0x1f\n        /* \"#utility.yul\":17309:17315   */\n      dup10\n        /* \"#utility.yul\":17305:17322   */\n      and\n        /* \"#utility.yul\":17294:17303   */\n      dup3\n        /* \"#utility.yul\":17275:17323   */\n      tag_209\n      jump\t// in\n    tag_413:\n        /* \"#utility.yul\":17267:17273   */\n      dup4\n        /* \"#utility.yul\":17260:17324   */\n      sstore\n        /* \"#utility.yul\":17182:17338   */\n      pop\n        /* \"#utility.yul\":17159:17338   */\n    tag_412:\n        /* \"#utility.yul\":17384:17385   */\n      0x01\n        /* \"#utility.yul\":17380:17381   */\n      0x02\n        /* \"#utility.yul\":17372:17378   */\n      dup9\n        /* \"#utility.yul\":17368:17382   */\n      mul\n        /* \"#utility.yul\":17364:17386   */\n      add\n        /* \"#utility.yul\":17358:17362   */\n      dup9\n        /* \"#utility.yul\":17351:17387   */\n      sstore\n        /* \"#utility.yul\":16786:17397   */\n      pop\n      pop\n      pop\n        /* \"#utility.yul\":16749:17636   */\n    tag_404:\n      pop\n        /* \"#utility.yul\":16339:17642   */\n      pop\n      pop\n      pop\n        /* \"#utility.yul\":16247:17642   */\n      pop\n      pop\n      jump\t// out\n        /* \"#utility.yul\":17648:17818   */\n    tag_211:\n        /* \"#utility.yul\":17788:17810   */\n      0x566f74696e67206973206e6f7420616374697665000000000000000000000000\n        /* \"#utility.yul\":17784:17785   */\n      0x00\n        /* \"#utility.yul\":17776:17782   */\n      dup3\n        /* \"#utility.yul\":17772:17786   */\n      add\n        /* \"#utility.yul\":17765:17811   */\n      mstore\n        /* \"#utility.yul\":17648:17818   */\n      pop\n      jump\t// out\n        /* \"#utility.yul\":17824:18190   */\n    tag_212:\n        /* \"#utility.yul\":17966:17969   */\n      0x00\n        /* \"#utility.yul\":17987:18054   */\n      tag_416\n        /* \"#utility.yul\":18051:18053   */\n      0x14\n        /* \"#utility.yul\":18046:18049   */\n      dup4\n        /* \"#utility.yul\":17987:18054   */\n      tag_178\n      jump\t// in\n    tag_416:\n        /* \"#utility.yul\":17980:18054   */\n      swap2\n      pop\n        /* \"#utility.yul\":18063:18156   */\n      tag_417\n        /* \"#utility.yul\":18152:18155   */\n      dup3\n        /* \"#utility.yul\":18063:18156   */\n      tag_211\n      jump\t// in\n    tag_417:\n        /* \"#utility.yul\":18181:18183   */\n      0x20\n        /* \"#utility.yul\":18176:18179   */\n      dup3\n        /* \"#utility.yul\":18172:18184   */\n      add\n        /* \"#utility.yul\":18165:18184   */\n      swap1\n      pop\n        /* \"#utility.yul\":17824:18190   */\n      swap2\n      swap1\n      pop\n      jump\t// out\n        /* \"#utility.yul\":18196:18615   */\n    tag_131:\n        /* \"#utility.yul\":18362:18366   */\n      0x00\n        /* \"#utility.yul\":18400:18402   */\n      0x20\n        /* \"#utility.yul\":18389:18398   */\n      dup3\n        /* \"#utility.yul\":18385:18403   */\n      add\n        /* \"#utility.yul\":18377:18403   */\n      swap1\n      pop\n        /* \"#utility.yul\":18449:18458   */\n      dup2\n        /* \"#utility.yul\":18443:18447   */\n      dup2\n        /* \"#utility.yul\":18439:18459   */\n      sub\n        /* \"#utility.yul\":18435:18436   */\n      0x00\n        /* \"#utility.yul\":18424:18433   */\n      dup4\n        /* \"#utility.yul\":18420:18437   */\n      add\n        /* \"#utility.yul\":18413:18460   */\n      mstore\n        /* \"#utility.yul\":18477:18608   */\n      tag_419\n        /* \"#utility.yul\":18603:18607   */\n      dup2\n        /* \"#utility.yul\":18477:18608   */\n      tag_212\n      jump\t// in\n    tag_419:\n        /* \"#utility.yul\":18469:18608   */\n      swap1\n      pop\n        /* \"#utility.yul\":18196:18615   */\n      swap2\n      swap1\n      pop\n      jump\t// out\n        /* \"#utility.yul\":18621:18846   */\n    tag_213:\n        /* \"#utility.yul\":18761:18795   */\n      0x54686520766f74657220686173206e6f7420766f74656420696e207468697320\n        /* \"#utility.yul\":18757:18758   */\n      0x00\n        /* \"#utility.yul\":18749:18755   */\n      dup3\n        /* \"#utility.yul\":18745:18759   */\n      add\n        /* \"#utility.yul\":18738:18796   */\n      mstore\n        /* \"#utility.yul\":18830:18838   */\n      0x766f74696e670000000000000000000000000000000000000000000000000000\n        /* \"#utility.yul\":18825:18827   */\n      0x20\n        /* \"#utility.yul\":18817:18823   */\n      dup3\n        /* \"#utility.yul\":18813:18828   */\n      add\n        /* \"#utility.yul\":18806:18839   */\n      mstore\n        /* \"#utility.yul\":18621:18846   */\n      pop\n      jump\t// out\n        /* \"#utility.yul\":18852:19218   */\n    tag_214:\n        /* \"#utility.yul\":18994:18997   */\n      0x00\n        /* \"#utility.yul\":19015:19082   */\n      tag_422\n        /* \"#utility.yul\":19079:19081   */\n      0x26\n        /* \"#utility.yul\":19074:19077   */\n      dup4\n        /* \"#utility.yul\":19015:19082   */\n      tag_178\n      jump\t// in\n    tag_422:\n        /* \"#utility.yul\":19008:19082   */\n      swap2\n      pop\n        /* \"#utility.yul\":19091:19184   */\n      tag_423\n        /* \"#utility.yul\":19180:19183   */\n      dup3\n        /* \"#utility.yul\":19091:19184   */\n      tag_213\n      jump\t// in\n    tag_423:\n        /* \"#utility.yul\":19209:19211   */\n      0x40\n        /* \"#utility.yul\":19204:19207   */\n      dup3\n        /* \"#utility.yul\":19200:19212   */\n      add\n        /* \"#utility.yul\":19193:19212   */\n      swap1\n      pop\n        /* \"#utility.yul\":18852:19218   */\n      swap2\n      swap1\n      pop\n      jump\t// out\n        /* \"#utility.yul\":19224:19643   */\n    tag_141:\n        /* \"#utility.yul\":19390:19394   */\n      0x00\n        /* \"#utility.yul\":19428:19430   */\n      0x20\n        /* \"#utility.yul\":19417:19426   */\n      dup3\n        /* \"#utility.yul\":19413:19431   */\n      add\n        /* \"#utility.yul\":19405:19431   */\n      swap1\n      pop\n        /* \"#utility.yul\":19477:19486   */\n      dup2\n        /* \"#utility.yul\":19471:19475   */\n      dup2\n        /* \"#utility.yul\":19467:19487   */\n      sub\n        /* \"#utility.yul\":19463:19464   */\n      0x00\n        /* \"#utility.yul\":19452:19461   */\n      dup4\n        /* \"#utility.yul\":19448:19465   */\n      add\n        /* \"#utility.yul\":19441:19488   */\n      mstore\n        /* \"#utility.yul\":19505:19636   */\n      tag_425\n        /* \"#utility.yul\":19631:19635   */\n      dup2\n        /* \"#utility.yul\":19505:19636   */\n      tag_214\n      jump\t// in\n    tag_425:\n        /* \"#utility.yul\":19497:19636   */\n      swap1\n      pop\n        /* \"#utility.yul\":19224:19643   */\n      swap2\n      swap1\n      pop\n      jump\t// out\n        /* \"#utility.yul\":19649:19873   */\n    tag_215:\n        /* \"#utility.yul\":19789:19823   */\n      0x596f75206861766520616c726561647920766f74656420696e20746869732076\n        /* \"#utility.yul\":19785:19786   */\n      0x00\n        /* \"#utility.yul\":19777:19783   */\n      dup3\n        /* \"#utility.yul\":19773:19787   */\n      add\n        /* \"#utility.yul\":19766:19824   */\n      mstore\n        /* \"#utility.yul\":19858:19865   */\n      0x6f74696e67000000000000000000000000000000000000000000000000000000\n        /* \"#utility.yul\":19853:19855   */\n      0x20\n        /* \"#utility.yul\":19845:19851   */\n      dup3\n        /* \"#utility.yul\":19841:19856   */\n      add\n        /* \"#utility.yul\":19834:19866   */\n      mstore\n        /* \"#utility.yul\":19649:19873   */\n      pop\n      jump\t// out\n        /* \"#utility.yul\":19879:20245   */\n    tag_216:\n        /* \"#utility.yul\":20021:20024   */\n      0x00\n        /* \"#utility.yul\":20042:20109   */\n      tag_428\n        /* \"#utility.yul\":20106:20108   */\n      0x25\n        /* \"#utility.yul\":20101:20104   */\n      dup4\n        /* \"#utility.yul\":20042:20109   */\n      tag_178\n      jump\t// in\n    tag_428:\n        /* \"#utility.yul\":20035:20109   */\n      swap2\n      pop\n        /* \"#utility.yul\":20118:20211   */\n      tag_429\n        /* \"#utility.yul\":20207:20210   */\n      dup3\n        /* \"#utility.yul\":20118:20211   */\n      tag_215\n      jump\t// in\n    tag_429:\n        /* \"#utility.yul\":20236:20238   */\n      0x40\n        /* \"#utility.yul\":20231:20234   */\n      dup3\n        /* \"#utility.yul\":20227:20239   */\n      add\n        /* \"#utility.yul\":20220:20239   */\n      swap1\n      pop\n        /* \"#utility.yul\":19879:20245   */\n      swap2\n      swap1\n      pop\n      jump\t// out\n        /* \"#utility.yul\":20251:20670   */\n    tag_147:\n        /* \"#utility.yul\":20417:20421   */\n      0x00\n        /* \"#utility.yul\":20455:20457   */\n      0x20\n        /* \"#utility.yul\":20444:20453   */\n      dup3\n        /* \"#utility.yul\":20440:20458   */\n      add\n        /* \"#utility.yul\":20432:20458   */\n      swap1\n      pop\n        /* \"#utility.yul\":20504:20513   */\n      dup2\n        /* \"#utility.yul\":20498:20502   */\n      dup2\n        /* \"#utility.yul\":20494:20514   */\n      sub\n        /* \"#utility.yul\":20490:20491   */\n      0x00\n        /* \"#utility.yul\":20479:20488   */\n      dup4\n        /* \"#utility.yul\":20475:20492   */\n      add\n        /* \"#utility.yul\":20468:20515   */\n      mstore\n        /* \"#utility.yul\":20532:20663   */\n      tag_431\n        /* \"#utility.yul\":20658:20662   */\n      dup2\n        /* \"#utility.yul\":20532:20663   */\n      tag_216\n      jump\t// in\n    tag_431:\n        /* \"#utility.yul\":20524:20663   */\n      swap1\n      pop\n        /* \"#utility.yul\":20251:20670   */\n      swap2\n      swap1\n      pop\n      jump\t// out\n        /* \"#utility.yul\":20676:20848   */\n    tag_217:\n        /* \"#utility.yul\":20816:20840   */\n      0x566f74696e67206973207374696c6c2061637469766500000000000000000000\n        /* \"#utility.yul\":20812:20813   */\n      0x00\n        /* \"#utility.yul\":20804:20810   */\n      dup3\n        /* \"#utility.yul\":20800:20814   */\n      add\n        /* \"#utility.yul\":20793:20841   */\n      mstore\n        /* \"#utility.yul\":20676:20848   */\n      pop\n      jump\t// out\n        /* \"#utility.yul\":20854:21220   */\n    tag_218:\n        /* \"#utility.yul\":20996:20999   */\n      0x00\n        /* \"#utility.yul\":21017:21084   */\n      tag_434\n        /* \"#utility.yul\":21081:21083   */\n      0x16\n        /* \"#utility.yul\":21076:21079   */\n      dup4\n        /* \"#utility.yul\":21017:21084   */\n      tag_178\n      jump\t// in\n    tag_434:\n        /* \"#utility.yul\":21010:21084   */\n      swap2\n      pop\n        /* \"#utility.yul\":21093:21186   */\n      tag_435\n        /* \"#utility.yul\":21182:21185   */\n      dup3\n        /* \"#utility.yul\":21093:21186   */\n      tag_217\n      jump\t// in\n    tag_435:\n        /* \"#utility.yul\":21211:21213   */\n      0x20\n        /* \"#utility.yul\":21206:21209   */\n      dup3\n        /* \"#utility.yul\":21202:21214   */\n      add\n        /* \"#utility.yul\":21195:21214   */\n      swap1\n      pop\n        /* \"#utility.yul\":20854:21220   */\n      swap2\n      swap1\n      pop\n      jump\t// out\n        /* \"#utility.yul\":21226:21645   */\n    tag_155:\n        /* \"#utility.yul\":21392:21396   */\n      0x00\n        /* \"#utility.yul\":21430:21432   */\n      0x20\n        /* \"#utility.yul\":21419:21428   */\n      dup3\n        /* \"#utility.yul\":21415:21433   */\n      add\n        /* \"#utility.yul\":21407:21433   */\n      swap1\n      pop\n        /* \"#utility.yul\":21479:21488   */\n      dup2\n        /* \"#utility.yul\":21473:21477   */\n      dup2\n        /* \"#utility.yul\":21469:21489   */\n      sub\n        /* \"#utility.yul\":21465:21466   */\n      0x00\n        /* \"#utility.yul\":21454:21463   */\n      dup4\n        /* \"#utility.yul\":21450:21467   */\n      add\n        /* \"#utility.yul\":21443:21490   */\n      mstore\n        /* \"#utility.yul\":21507:21638   */\n      tag_437\n        /* \"#utility.yul\":21633:21637   */\n      dup2\n        /* \"#utility.yul\":21507:21638   */\n      tag_218\n      jump\t// in\n    tag_437:\n        /* \"#utility.yul\":21499:21638   */\n      swap1\n      pop\n        /* \"#utility.yul\":21226:21645   */\n      swap2\n      swap1\n      pop\n      jump\t// out\n\n    auxdata: 0xa26469706673582212207c0e1b5df866182fbe586b790b98b95903bdb05e6650b10da53fedd1e1c6abdd64736f6c63430008120033\n}\n",
				"bytecode": {
					"linkReferences": {},
					"object": "608060405234801561001057600080fd5b5060016000803373ffffffffffffffffffffffffffffffffffffffff1673ffffffffffffffffffffffffffffffffffffffff16815260200190815260200160002060006101000a81548160ff021916908315150217905550611ad1806100776000396000f3fe608060405234801561001057600080fd5b50600436106100f55760003560e01c80636f460f9511610097578063a29092ed11610066578063a29092ed146102c0578063bc3f931f146102de578063c9d27afe1461030e578063e27684e51461032a576100f5565b80636f460f951461023a5780637048027514610258578063745fa941146102745780639dc58d3f14610290576100f5565b8063429b62e5116100d3578063429b62e51461017a57806343859632146101aa57806362f8a1fd146101da5780636e8d1dc81461020a576100f5565b80630743c33a146100fa5780631785f53c1461012a57806318d9adab14610146575b600080fd5b610114600480360381019061010f919061103b565b61035b565b60405161012191906110cc565b60405180910390f35b610144600480360381019061013f9190611145565b610483565b005b610160600480360381019061015b919061119e565b610568565b604051610171959493929190611265565b60405180910390f35b610194600480360381019061018f9190611145565b6106bb565b6040516101a191906112c6565b60405180910390f35b6101c460048036038101906101bf91906112e1565b6106db565b6040516101d191906112c6565b60405180910390f35b6101f460048036038101906101ef919061119e565b61074b565b60405161020191906113df565b60405180910390f35b610224600480360381019061021f919061119e565b6107b9565b6040516102319190611401565b60405180910390f35b610242610867565b60405161024f91906110cc565b60405180910390f35b610272600480360381019061026d9190611145565b61086d565b005b61028e6004803603810190610289919061119e565b610952565b005b6102aa60048036038101906102a5919061119e565b610a66565b6040516102b79190611401565b60405180910390f35b6102c8610b14565b6040516102d591906110cc565b60405180910390f35b6102f860048036038101906102f391906112e1565b610b1a565b60405161030591906112c6565b60405180910390f35b6103286004803603810190610323919061144f565b610c18565b005b610344600480360381019061033f919061119e565b610e61565b60405161035292919061148f565b60405180910390f35b60008060003373ffffffffffffffffffffffffffffffffffffffff1673ffffffffffffffffffffffffffffffffffffffff16815260200190815260200160002060009054906101000a900460ff166103e8576040517f08c379a00000000000000000000000000000000000000000000000000000000081526004016103df9061152a565b60405180910390fd5b6000600260008154809291906103fd90611579565b9190505590508360016000838152602001908152602001600020600001908161042691906117cd565b508260016000838152602001908152602001600020600101908161044a91906117cd565b50600180600083815260200190815260200160002060080160006101000a81548160ff0219169083151502179055508091505092915050565b6000803373ffffffffffffffffffffffffffffffffffffffff1673ffffffffffffffffffffffffffffffffffffffff16815260200190815260200160002060009054906101000a900460ff1661050e576040517f08c379a00000000000000000000000000000000000000000000000000000000081526004016105059061152a565b60405180910390fd5b60008060008373ffffffffffffffffffffffffffffffffffffffff1673ffffffffffffffffffffffffffffffffffffffff16815260200190815260200160002060006101000a81548160ff02191690831515021790555050565b600160205280600052604060002060009150905080600001805461058b906115f0565b80601f01602080910402602001604051908101604052809291908181526020018280546105b7906115f0565b80156106045780601f106105d957610100808354040283529160200191610604565b820191906000526020600020905b8154815290600101906020018083116105e757829003601f168201915b505050505090806001018054610619906115f0565b80601f0160208091040260200160405190810160405280929190818152602001828054610645906115f0565b80156106925780601f1061066757610100808354040283529160200191610692565b820191906000526020600020905b81548152906001019060200180831161067557829003601f168201915b5050505050908060060154908060070154908060080160009054906101000a900460ff16905085565b60006020528060005260406000206000915054906101000a900460ff1681565b6000806001600085815260200190815260200160002090508060050160008473ffffffffffffffffffffffffffffffffffffffff1673ffffffffffffffffffffffffffffffffffffffff16815260200190815260200160002060009054906101000a900460ff1691505092915050565b6060600160008381526020019081526020016000206002018054806020026020016040519081016040528092919081815260200182805480156107ad57602002820191906000526020600020905b815481526020019060010190808311610799575b50505050509050919050565b606060006001600084815260200190815260200160002090508060000180546107e1906115f0565b80601f016020809104026020016040519081016040528092919081815260200182805461080d906115f0565b801561085a5780601f1061082f5761010080835404028352916020019161085a565b820191906000526020600020905b81548152906001019060200180831161083d57829003601f168201915b5050505050915050919050565b60025481565b6000803373ffffffffffffffffffffffffffffffffffffffff1673ffffffffffffffffffffffffffffffffffffffff16815260200190815260200160002060009054906101000a900460ff166108f8576040517f08c379a00000000000000000000000000000000000000000000000000000000081526004016108ef9061152a565b60405180910390fd5b60016000808373ffffffffffffffffffffffffffffffffffffffff1673ffffffffffffffffffffffffffffffffffffffff16815260200190815260200160002060006101000a81548160ff02191690831515021790555050565b6000803373ffffffffffffffffffffffffffffffffffffffff1673ffffffffffffffffffffffffffffffffffffffff16815260200190815260200160002060009054906101000a900460ff166109dd576040517f08c379a00000000000000000000000000000000000000000000000000000000081526004016109d49061152a565b60405180910390fd5b60006001600083815260200190815260200160002090508060080160009054906101000a900460ff16610a45576040517f08c379a0000000000000000000000000000000000000000000000000000000008152600401610a3c906118eb565b60405180910390fd5b60008160080160006101000a81548160ff0219169083151502179055505050565b60606000600160008481526020019081526020016000209050806001018054610a8e906115f0565b80601f0160208091040260200160405190810160405280929190818152602001828054610aba906115f0565b8015610b075780601f10610adc57610100808354040283529160200191610b07565b820191906000526020600020905b815481529060010190602001808311610aea57829003601f168201915b5050505050915050919050565b60035481565b6000806001600085815260200190815260200160002090508060050160008473ffffffffffffffffffffffffffffffffffffffff1673ffffffffffffffffffffffffffffffffffffffff16815260200190815260200160002060009054906101000a900460ff16610bc0576040517f08c379a0000000000000000000000000000000000000000000000000000000008152600401610bb79061197d565b60405180910390fd5b8060040160008473ffffffffffffffffffffffffffffffffffffffff1673ffffffffffffffffffffffffffffffffffffffff16815260200190815260200160002060009054906101000a900460ff1691505092915050565b60006001600084815260200190815260200160002090508060080160009054906101000a900460ff16610c80576040517f08c379a0000000000000000000000000000000000000000000000000000000008152600401610c77906118eb565b60405180910390fd5b8060050160003373ffffffffffffffffffffffffffffffffffffffff1673ffffffffffffffffffffffffffffffffffffffff16815260200190815260200160002060009054906101000a900460ff16610d0e576040517f08c379a0000000000000000000000000000000000000000000000000000000008152600401610d0590611a0f565b60405180910390fd5b60018160050160003373ffffffffffffffffffffffffffffffffffffffff1673ffffffffffffffffffffffffffffffffffffffff16815260200190815260200160002060006101000a81548160ff0219169083151502179055508115610de757806006016000815480929190610d8390611579565b919050555060018160040160003373ffffffffffffffffffffffffffffffffffffffff1673ffffffffffffffffffffffffffffffffffffffff16815260200190815260200160002060006101000a81548160ff021916908315150217905550610e5c565b806007016000815480929190610dfc90611579565b919050555060008160040160003373ffffffffffffffffffffffffffffffffffffffff1673ffffffffffffffffffffffffffffffffffffffff16815260200190815260200160002060006101000a81548160ff0219169083151502179055505b505050565b60008060006001600085815260200190815260200160002090508060080160009054906101000a900460ff1615610ecd576040517f08c379a0000000000000000000000000000000000000000000000000000000008152600401610ec490611a7b565b60405180910390fd5b806006015481600701549250925050915091565b6000604051905090565b600080fd5b600080fd5b600080fd5b600080fd5b6000601f19601f8301169050919050565b7f4e487b7100000000000000000000000000000000000000000000000000000000600052604160045260246000fd5b610f4882610eff565b810181811067ffffffffffffffff82111715610f6757610f66610f10565b5b80604052505050565b6000610f7a610ee1565b9050610f868282610f3f565b919050565b600067ffffffffffffffff821115610fa657610fa5610f10565b5b610faf82610eff565b9050602081019050919050565b82818337600083830152505050565b6000610fde610fd984610f8b565b610f70565b905082815260208101848484011115610ffa57610ff9610efa565b5b611005848285610fbc565b509392505050565b600082601f83011261102257611021610ef5565b5b8135611032848260208601610fcb565b91505092915050565b6000806040838503121561105257611051610eeb565b5b600083013567ffffffffffffffff8111156110705761106f610ef0565b5b61107c8582860161100d565b925050602083013567ffffffffffffffff81111561109d5761109c610ef0565b5b6110a98582860161100d565b9150509250929050565b6000819050919050565b6110c6816110b3565b82525050565b60006020820190506110e160008301846110bd565b92915050565b600073ffffffffffffffffffffffffffffffffffffffff82169050919050565b6000611112826110e7565b9050919050565b61112281611107565b811461112d57600080fd5b50565b60008135905061113f81611119565b92915050565b60006020828403121561115b5761115a610eeb565b5b600061116984828501611130565b91505092915050565b61117b816110b3565b811461118657600080fd5b50565b60008135905061119881611172565b92915050565b6000602082840312156111b4576111b3610eeb565b5b60006111c284828501611189565b91505092915050565b600081519050919050565b600082825260208201905092915050565b60005b838110156112055780820151818401526020810190506111ea565b60008484015250505050565b600061121c826111cb565b61122681856111d6565b93506112368185602086016111e7565b61123f81610eff565b840191505092915050565b60008115159050919050565b61125f8161124a565b82525050565b600060a082019050818103600083015261127f8188611211565b905081810360208301526112938187611211565b90506112a260408301866110bd565b6112af60608301856110bd565b6112bc6080830184611256565b9695505050505050565b60006020820190506112db6000830184611256565b92915050565b600080604083850312156112f8576112f7610eeb565b5b600061130685828601611189565b925050602061131785828601611130565b9150509250929050565b600081519050919050565b600082825260208201905092915050565b6000819050602082019050919050565b611356816110b3565b82525050565b6000611368838361134d565b60208301905092915050565b6000602082019050919050565b600061138c82611321565b611396818561132c565b93506113a18361133d565b8060005b838110156113d25781516113b9888261135c565b97506113c483611374565b9250506001810190506113a5565b5085935050505092915050565b600060208201905081810360008301526113f98184611381565b905092915050565b6000602082019050818103600083015261141b8184611211565b905092915050565b61142c8161124a565b811461143757600080fd5b50565b60008135905061144981611423565b92915050565b6000806040838503121561146657611465610eeb565b5b600061147485828601611189565b92505060206114858582860161143a565b9150509250929050565b60006040820190506114a460008301856110bd565b6114b160208301846110bd565b9392505050565b7f4f6e6c792061646d696e732063616e20706572666f726d20746869732061637460008201527f696f6e0000000000000000000000000000000000000000000000000000000000602082015250565b60006115146023836111d6565b915061151f826114b8565b604082019050919050565b6000602082019050818103600083015261154381611507565b9050919050565b7f4e487b7100000000000000000000000000000000000000000000000000000000600052601160045260246000fd5b6000611584826110b3565b91507fffffffffffffffffffffffffffffffffffffffffffffffffffffffffffffffff82036115b6576115b561154a565b5b600182019050919050565b7f4e487b7100000000000000000000000000000000000000000000000000000000600052602260045260246000fd5b6000600282049050600182168061160857607f821691505b60208210810361161b5761161a6115c1565b5b50919050565b60008190508160005260206000209050919050565b60006020601f8301049050919050565b600082821b905092915050565b6000600883026116837fffffffffffffffffffffffffffffffffffffffffffffffffffffffffffffffff82611646565b61168d8683611646565b95508019841693508086168417925050509392505050565b6000819050919050565b60006116ca6116c56116c0846110b3565b6116a5565b6110b3565b9050919050565b6000819050919050565b6116e4836116af565b6116f86116f0826116d1565b848454611653565b825550505050565b600090565b61170d611700565b6117188184846116db565b505050565b5b8181101561173c57611731600082611705565b60018101905061171e565b5050565b601f8211156117815761175281611621565b61175b84611636565b8101602085101561176a578190505b61177e61177685611636565b83018261171d565b50505b505050565b600082821c905092915050565b60006117a460001984600802611786565b1980831691505092915050565b60006117bd8383611793565b9150826002028217905092915050565b6117d6826111cb565b67ffffffffffffffff8111156117ef576117ee610f10565b5b6117f982546115f0565b611804828285611740565b600060209050601f8311600181146118375760008415611825578287015190505b61182f85826117b1565b865550611897565b601f19841661184586611621565b60005b8281101561186d57848901518255600182019150602085019450602081019050611848565b8683101561188a5784890151611886601f891682611793565b8355505b6001600288020188555050505b505050505050565b7f566f74696e67206973206e6f7420616374697665000000000000000000000000600082015250565b60006118d56014836111d6565b91506118e08261189f565b602082019050919050565b60006020820190508181036000830152611904816118c8565b9050919050565b7f54686520766f74657220686173206e6f7420766f74656420696e20746869732060008201527f766f74696e670000000000000000000000000000000000000000000000000000602082015250565b60006119676026836111d6565b91506119728261190b565b604082019050919050565b600060208201905081810360008301526119968161195a565b9050919050565b7f596f75206861766520616c726561647920766f74656420696e2074686973207660008201527f6f74696e67000000000000000000000000000000000000000000000000000000602082015250565b60006119f96025836111d6565b9150611a048261199d565b604082019050919050565b60006020820190508181036000830152611a28816119ec565b9050919050565b7f566f74696e67206973207374696c6c2061637469766500000000000000000000600082015250565b6000611a656016836111d6565b9150611a7082611a2f565b602082019050919050565b60006020820190508181036000830152611a9481611a58565b905091905056fea26469706673582212207c0e1b5df866182fbe586b790b98b95903bdb05e6650b10da53fedd1e1c6abdd64736f6c63430008120033",
					"opcodes": "PUSH1 0x80 PUSH1 0x40 MSTORE CALLVALUE DUP1 ISZERO PUSH2 0x10 JUMPI PUSH1 0x0 DUP1 REVERT JUMPDEST POP PUSH1 0x1 PUSH1 0x0 DUP1 CALLER PUSH20 0xFFFFFFFFFFFFFFFFFFFFFFFFFFFFFFFFFFFFFFFF AND PUSH20 0xFFFFFFFFFFFFFFFFFFFFFFFFFFFFFFFFFFFFFFFF AND DUP2 MSTORE PUSH1 0x20 ADD SWAP1 DUP2 MSTORE PUSH1 0x20 ADD PUSH1 0x0 KECCAK256 PUSH1 0x0 PUSH2 0x100 EXP DUP2 SLOAD DUP2 PUSH1 0xFF MUL NOT AND SWAP1 DUP4 ISZERO ISZERO MUL OR SWAP1 SSTORE POP PUSH2 0x1AD1 DUP1 PUSH2 0x77 PUSH1 0x0 CODECOPY PUSH1 0x0 RETURN INVALID PUSH1 0x80 PUSH1 0x40 MSTORE CALLVALUE DUP1 ISZERO PUSH2 0x10 JUMPI PUSH1 0x0 DUP1 REVERT JUMPDEST POP PUSH1 0x4 CALLDATASIZE LT PUSH2 0xF5 JUMPI PUSH1 0x0 CALLDATALOAD PUSH1 0xE0 SHR DUP1 PUSH4 0x6F460F95 GT PUSH2 0x97 JUMPI DUP1 PUSH4 0xA29092ED GT PUSH2 0x66 JUMPI DUP1 PUSH4 0xA29092ED EQ PUSH2 0x2C0 JUMPI DUP1 PUSH4 0xBC3F931F EQ PUSH2 0x2DE JUMPI DUP1 PUSH4 0xC9D27AFE EQ PUSH2 0x30E JUMPI DUP1 PUSH4 0xE27684E5 EQ PUSH2 0x32A JUMPI PUSH2 0xF5 JUMP JUMPDEST DUP1 PUSH4 0x6F460F95 EQ PUSH2 0x23A JUMPI DUP1 PUSH4 0x70480275 EQ PUSH2 0x258 JUMPI DUP1 PUSH4 0x745FA941 EQ PUSH2 0x274 JUMPI DUP1 PUSH4 0x9DC58D3F EQ PUSH2 0x290 JUMPI PUSH2 0xF5 JUMP JUMPDEST DUP1 PUSH4 0x429B62E5 GT PUSH2 0xD3 JUMPI DUP1 PUSH4 0x429B62E5 EQ PUSH2 0x17A JUMPI DUP1 PUSH4 0x43859632 EQ PUSH2 0x1AA JUMPI DUP1 PUSH4 0x62F8A1FD EQ PUSH2 0x1DA JUMPI DUP1 PUSH4 0x6E8D1DC8 EQ PUSH2 0x20A JUMPI PUSH2 0xF5 JUMP JUMPDEST DUP1 PUSH4 0x743C33A EQ PUSH2 0xFA JUMPI DUP1 PUSH4 0x1785F53C EQ PUSH2 0x12A JUMPI DUP1 PUSH4 0x18D9ADAB EQ PUSH2 0x146 JUMPI JUMPDEST PUSH1 0x0 DUP1 REVERT JUMPDEST PUSH2 0x114 PUSH1 0x4 DUP1 CALLDATASIZE SUB DUP2 ADD SWAP1 PUSH2 0x10F SWAP2 SWAP1 PUSH2 0x103B JUMP JUMPDEST PUSH2 0x35B JUMP JUMPDEST PUSH1 0x40 MLOAD PUSH2 0x121 SWAP2 SWAP1 PUSH2 0x10CC JUMP JUMPDEST PUSH1 0x40 MLOAD DUP1 SWAP2 SUB SWAP1 RETURN JUMPDEST PUSH2 0x144 PUSH1 0x4 DUP1 CALLDATASIZE SUB DUP2 ADD SWAP1 PUSH2 0x13F SWAP2 SWAP1 PUSH2 0x1145 JUMP JUMPDEST PUSH2 0x483 JUMP JUMPDEST STOP JUMPDEST PUSH2 0x160 PUSH1 0x4 DUP1 CALLDATASIZE SUB DUP2 ADD SWAP1 PUSH2 0x15B SWAP2 SWAP1 PUSH2 0x119E JUMP JUMPDEST PUSH2 0x568 JUMP JUMPDEST PUSH1 0x40 MLOAD PUSH2 0x171 SWAP6 SWAP5 SWAP4 SWAP3 SWAP2 SWAP1 PUSH2 0x1265 JUMP JUMPDEST PUSH1 0x40 MLOAD DUP1 SWAP2 SUB SWAP1 RETURN JUMPDEST PUSH2 0x194 PUSH1 0x4 DUP1 CALLDATASIZE SUB DUP2 ADD SWAP1 PUSH2 0x18F SWAP2 SWAP1 PUSH2 0x1145 JUMP JUMPDEST PUSH2 0x6BB JUMP JUMPDEST PUSH1 0x40 MLOAD PUSH2 0x1A1 SWAP2 SWAP1 PUSH2 0x12C6 JUMP JUMPDEST PUSH1 0x40 MLOAD DUP1 SWAP2 SUB SWAP1 RETURN JUMPDEST PUSH2 0x1C4 PUSH1 0x4 DUP1 CALLDATASIZE SUB DUP2 ADD SWAP1 PUSH2 0x1BF SWAP2 SWAP1 PUSH2 0x12E1 JUMP JUMPDEST PUSH2 0x6DB JUMP JUMPDEST PUSH1 0x40 MLOAD PUSH2 0x1D1 SWAP2 SWAP1 PUSH2 0x12C6 JUMP JUMPDEST PUSH1 0x40 MLOAD DUP1 SWAP2 SUB SWAP1 RETURN JUMPDEST PUSH2 0x1F4 PUSH1 0x4 DUP1 CALLDATASIZE SUB DUP2 ADD SWAP1 PUSH2 0x1EF SWAP2 SWAP1 PUSH2 0x119E JUMP JUMPDEST PUSH2 0x74B JUMP JUMPDEST PUSH1 0x40 MLOAD PUSH2 0x201 SWAP2 SWAP1 PUSH2 0x13DF JUMP JUMPDEST PUSH1 0x40 MLOAD DUP1 SWAP2 SUB SWAP1 RETURN JUMPDEST PUSH2 0x224 PUSH1 0x4 DUP1 CALLDATASIZE SUB DUP2 ADD SWAP1 PUSH2 0x21F SWAP2 SWAP1 PUSH2 0x119E JUMP JUMPDEST PUSH2 0x7B9 JUMP JUMPDEST PUSH1 0x40 MLOAD PUSH2 0x231 SWAP2 SWAP1 PUSH2 0x1401 JUMP JUMPDEST PUSH1 0x40 MLOAD DUP1 SWAP2 SUB SWAP1 RETURN JUMPDEST PUSH2 0x242 PUSH2 0x867 JUMP JUMPDEST PUSH1 0x40 MLOAD PUSH2 0x24F SWAP2 SWAP1 PUSH2 0x10CC JUMP JUMPDEST PUSH1 0x40 MLOAD DUP1 SWAP2 SUB SWAP1 RETURN JUMPDEST PUSH2 0x272 PUSH1 0x4 DUP1 CALLDATASIZE SUB DUP2 ADD SWAP1 PUSH2 0x26D SWAP2 SWAP1 PUSH2 0x1145 JUMP JUMPDEST PUSH2 0x86D JUMP JUMPDEST STOP JUMPDEST PUSH2 0x28E PUSH1 0x4 DUP1 CALLDATASIZE SUB DUP2 ADD SWAP1 PUSH2 0x289 SWAP2 SWAP1 PUSH2 0x119E JUMP JUMPDEST PUSH2 0x952 JUMP JUMPDEST STOP JUMPDEST PUSH2 0x2AA PUSH1 0x4 DUP1 CALLDATASIZE SUB DUP2 ADD SWAP1 PUSH2 0x2A5 SWAP2 SWAP1 PUSH2 0x119E JUMP JUMPDEST PUSH2 0xA66 JUMP JUMPDEST PUSH1 0x40 MLOAD PUSH2 0x2B7 SWAP2 SWAP1 PUSH2 0x1401 JUMP JUMPDEST PUSH1 0x40 MLOAD DUP1 SWAP2 SUB SWAP1 RETURN JUMPDEST PUSH2 0x2C8 PUSH2 0xB14 JUMP JUMPDEST PUSH1 0x40 MLOAD PUSH2 0x2D5 SWAP2 SWAP1 PUSH2 0x10CC JUMP JUMPDEST PUSH1 0x40 MLOAD DUP1 SWAP2 SUB SWAP1 RETURN JUMPDEST PUSH2 0x2F8 PUSH1 0x4 DUP1 CALLDATASIZE SUB DUP2 ADD SWAP1 PUSH2 0x2F3 SWAP2 SWAP1 PUSH2 0x12E1 JUMP JUMPDEST PUSH2 0xB1A JUMP JUMPDEST PUSH1 0x40 MLOAD PUSH2 0x305 SWAP2 SWAP1 PUSH2 0x12C6 JUMP JUMPDEST PUSH1 0x40 MLOAD DUP1 SWAP2 SUB SWAP1 RETURN JUMPDEST PUSH2 0x328 PUSH1 0x4 DUP1 CALLDATASIZE SUB DUP2 ADD SWAP1 PUSH2 0x323 SWAP2 SWAP1 PUSH2 0x144F JUMP JUMPDEST PUSH2 0xC18 JUMP JUMPDEST STOP JUMPDEST PUSH2 0x344 PUSH1 0x4 DUP1 CALLDATASIZE SUB DUP2 ADD SWAP1 PUSH2 0x33F SWAP2 SWAP1 PUSH2 0x119E JUMP JUMPDEST PUSH2 0xE61 JUMP JUMPDEST PUSH1 0x40 MLOAD PUSH2 0x352 SWAP3 SWAP2 SWAP1 PUSH2 0x148F JUMP JUMPDEST PUSH1 0x40 MLOAD DUP1 SWAP2 SUB SWAP1 RETURN JUMPDEST PUSH1 0x0 DUP1 PUSH1 0x0 CALLER PUSH20 0xFFFFFFFFFFFFFFFFFFFFFFFFFFFFFFFFFFFFFFFF AND PUSH20 0xFFFFFFFFFFFFFFFFFFFFFFFFFFFFFFFFFFFFFFFF AND DUP2 MSTORE PUSH1 0x20 ADD SWAP1 DUP2 MSTORE PUSH1 0x20 ADD PUSH1 0x0 KECCAK256 PUSH1 0x0 SWAP1 SLOAD SWAP1 PUSH2 0x100 EXP SWAP1 DIV PUSH1 0xFF AND PUSH2 0x3E8 JUMPI PUSH1 0x40 MLOAD PUSH32 0x8C379A000000000000000000000000000000000000000000000000000000000 DUP2 MSTORE PUSH1 0x4 ADD PUSH2 0x3DF SWAP1 PUSH2 0x152A JUMP JUMPDEST PUSH1 0x40 MLOAD DUP1 SWAP2 SUB SWAP1 REVERT JUMPDEST PUSH1 0x0 PUSH1 0x2 PUSH1 0x0 DUP2 SLOAD DUP1 SWAP3 SWAP2 SWAP1 PUSH2 0x3FD SWAP1 PUSH2 0x1579 JUMP JUMPDEST SWAP2 SWAP1 POP SSTORE SWAP1 POP DUP4 PUSH1 0x1 PUSH1 0x0 DUP4 DUP2 MSTORE PUSH1 0x20 ADD SWAP1 DUP2 MSTORE PUSH1 0x20 ADD PUSH1 0x0 KECCAK256 PUSH1 0x0 ADD SWAP1 DUP2 PUSH2 0x426 SWAP2 SWAP1 PUSH2 0x17CD JUMP JUMPDEST POP DUP3 PUSH1 0x1 PUSH1 0x0 DUP4 DUP2 MSTORE PUSH1 0x20 ADD SWAP1 DUP2 MSTORE PUSH1 0x20 ADD PUSH1 0x0 KECCAK256 PUSH1 0x1 ADD SWAP1 DUP2 PUSH2 0x44A SWAP2 SWAP1 PUSH2 0x17CD JUMP JUMPDEST POP PUSH1 0x1 DUP1 PUSH1 0x0 DUP4 DUP2 MSTORE PUSH1 0x20 ADD SWAP1 DUP2 MSTORE PUSH1 0x20 ADD PUSH1 0x0 KECCAK256 PUSH1 0x8 ADD PUSH1 0x0 PUSH2 0x100 EXP DUP2 SLOAD DUP2 PUSH1 0xFF MUL NOT AND SWAP1 DUP4 ISZERO ISZERO MUL OR SWAP1 SSTORE POP DUP1 SWAP2 POP POP SWAP3 SWAP2 POP POP JUMP JUMPDEST PUSH1 0x0 DUP1 CALLER PUSH20 0xFFFFFFFFFFFFFFFFFFFFFFFFFFFFFFFFFFFFFFFF AND PUSH20 0xFFFFFFFFFFFFFFFFFFFFFFFFFFFFFFFFFFFFFFFF AND DUP2 MSTORE PUSH1 0x20 ADD SWAP1 DUP2 MSTORE PUSH1 0x20 ADD PUSH1 0x0 KECCAK256 PUSH1 0x0 SWAP1 SLOAD SWAP1 PUSH2 0x100 EXP SWAP1 DIV PUSH1 0xFF AND PUSH2 0x50E JUMPI PUSH1 0x40 MLOAD PUSH32 0x8C379A000000000000000000000000000000000000000000000000000000000 DUP2 MSTORE PUSH1 0x4 ADD PUSH2 0x505 SWAP1 PUSH2 0x152A JUMP JUMPDEST PUSH1 0x40 MLOAD DUP1 SWAP2 SUB SWAP1 REVERT JUMPDEST PUSH1 0x0 DUP1 PUSH1 0x0 DUP4 PUSH20 0xFFFFFFFFFFFFFFFFFFFFFFFFFFFFFFFFFFFFFFFF AND PUSH20 0xFFFFFFFFFFFFFFFFFFFFFFFFFFFFFFFFFFFFFFFF AND DUP2 MSTORE PUSH1 0x20 ADD SWAP1 DUP2 MSTORE PUSH1 0x20 ADD PUSH1 0x0 KECCAK256 PUSH1 0x0 PUSH2 0x100 EXP DUP2 SLOAD DUP2 PUSH1 0xFF MUL NOT AND SWAP1 DUP4 ISZERO ISZERO MUL OR SWAP1 SSTORE POP POP JUMP JUMPDEST PUSH1 0x1 PUSH1 0x20 MSTORE DUP1 PUSH1 0x0 MSTORE PUSH1 0x40 PUSH1 0x0 KECCAK256 PUSH1 0x0 SWAP2 POP SWAP1 POP DUP1 PUSH1 0x0 ADD DUP1 SLOAD PUSH2 0x58B SWAP1 PUSH2 0x15F0 JUMP JUMPDEST DUP1 PUSH1 0x1F ADD PUSH1 0x20 DUP1 SWAP2 DIV MUL PUSH1 0x20 ADD PUSH1 0x40 MLOAD SWAP1 DUP2 ADD PUSH1 0x40 MSTORE DUP1 SWAP3 SWAP2 SWAP1 DUP2 DUP2 MSTORE PUSH1 0x20 ADD DUP3 DUP1 SLOAD PUSH2 0x5B7 SWAP1 PUSH2 0x15F0 JUMP JUMPDEST DUP1 ISZERO PUSH2 0x604 JUMPI DUP1 PUSH1 0x1F LT PUSH2 0x5D9 JUMPI PUSH2 0x100 DUP1 DUP4 SLOAD DIV MUL DUP4 MSTORE SWAP2 PUSH1 0x20 ADD SWAP2 PUSH2 0x604 JUMP JUMPDEST DUP3 ADD SWAP2 SWAP1 PUSH1 0x0 MSTORE PUSH1 0x20 PUSH1 0x0 KECCAK256 SWAP1 JUMPDEST DUP2 SLOAD DUP2 MSTORE SWAP1 PUSH1 0x1 ADD SWAP1 PUSH1 0x20 ADD DUP1 DUP4 GT PUSH2 0x5E7 JUMPI DUP3 SWAP1 SUB PUSH1 0x1F AND DUP3 ADD SWAP2 JUMPDEST POP POP POP POP POP SWAP1 DUP1 PUSH1 0x1 ADD DUP1 SLOAD PUSH2 0x619 SWAP1 PUSH2 0x15F0 JUMP JUMPDEST DUP1 PUSH1 0x1F ADD PUSH1 0x20 DUP1 SWAP2 DIV MUL PUSH1 0x20 ADD PUSH1 0x40 MLOAD SWAP1 DUP2 ADD PUSH1 0x40 MSTORE DUP1 SWAP3 SWAP2 SWAP1 DUP2 DUP2 MSTORE PUSH1 0x20 ADD DUP3 DUP1 SLOAD PUSH2 0x645 SWAP1 PUSH2 0x15F0 JUMP JUMPDEST DUP1 ISZERO PUSH2 0x692 JUMPI DUP1 PUSH1 0x1F LT PUSH2 0x667 JUMPI PUSH2 0x100 DUP1 DUP4 SLOAD DIV MUL DUP4 MSTORE SWAP2 PUSH1 0x20 ADD SWAP2 PUSH2 0x692 JUMP JUMPDEST DUP3 ADD SWAP2 SWAP1 PUSH1 0x0 MSTORE PUSH1 0x20 PUSH1 0x0 KECCAK256 SWAP1 JUMPDEST DUP2 SLOAD DUP2 MSTORE SWAP1 PUSH1 0x1 ADD SWAP1 PUSH1 0x20 ADD DUP1 DUP4 GT PUSH2 0x675 JUMPI DUP3 SWAP1 SUB PUSH1 0x1F AND DUP3 ADD SWAP2 JUMPDEST POP POP POP POP POP SWAP1 DUP1 PUSH1 0x6 ADD SLOAD SWAP1 DUP1 PUSH1 0x7 ADD SLOAD SWAP1 DUP1 PUSH1 0x8 ADD PUSH1 0x0 SWAP1 SLOAD SWAP1 PUSH2 0x100 EXP SWAP1 DIV PUSH1 0xFF AND SWAP1 POP DUP6 JUMP JUMPDEST PUSH1 0x0 PUSH1 0x20 MSTORE DUP1 PUSH1 0x0 MSTORE PUSH1 0x40 PUSH1 0x0 KECCAK256 PUSH1 0x0 SWAP2 POP SLOAD SWAP1 PUSH2 0x100 EXP SWAP1 DIV PUSH1 0xFF AND DUP2 JUMP JUMPDEST PUSH1 0x0 DUP1 PUSH1 0x1 PUSH1 0x0 DUP6 DUP2 MSTORE PUSH1 0x20 ADD SWAP1 DUP2 MSTORE PUSH1 0x20 ADD PUSH1 0x0 KECCAK256 SWAP1 POP DUP1 PUSH1 0x5 ADD PUSH1 0x0 DUP5 PUSH20 0xFFFFFFFFFFFFFFFFFFFFFFFFFFFFFFFFFFFFFFFF AND PUSH20 0xFFFFFFFFFFFFFFFFFFFFFFFFFFFFFFFFFFFFFFFF AND DUP2 MSTORE PUSH1 0x20 ADD SWAP1 DUP2 MSTORE PUSH1 0x20 ADD PUSH1 0x0 KECCAK256 PUSH1 0x0 SWAP1 SLOAD SWAP1 PUSH2 0x100 EXP SWAP1 DIV PUSH1 0xFF AND SWAP2 POP POP SWAP3 SWAP2 POP POP JUMP JUMPDEST PUSH1 0x60 PUSH1 0x1 PUSH1 0x0 DUP4 DUP2 MSTORE PUSH1 0x20 ADD SWAP1 DUP2 MSTORE PUSH1 0x20 ADD PUSH1 0x0 KECCAK256 PUSH1 0x2 ADD DUP1 SLOAD DUP1 PUSH1 0x20 MUL PUSH1 0x20 ADD PUSH1 0x40 MLOAD SWAP1 DUP2 ADD PUSH1 0x40 MSTORE DUP1 SWAP3 SWAP2 SWAP1 DUP2 DUP2 MSTORE PUSH1 0x20 ADD DUP3 DUP1 SLOAD DUP1 ISZERO PUSH2 0x7AD JUMPI PUSH1 0x20 MUL DUP3 ADD SWAP2 SWAP1 PUSH1 0x0 MSTORE PUSH1 0x20 PUSH1 0x0 KECCAK256 SWAP1 JUMPDEST DUP2 SLOAD DUP2 MSTORE PUSH1 0x20 ADD SWAP1 PUSH1 0x1 ADD SWAP1 DUP1 DUP4 GT PUSH2 0x799 JUMPI JUMPDEST POP POP POP POP POP SWAP1 POP SWAP2 SWAP1 POP JUMP JUMPDEST PUSH1 0x60 PUSH1 0x0 PUSH1 0x1 PUSH1 0x0 DUP5 DUP2 MSTORE PUSH1 0x20 ADD SWAP1 DUP2 MSTORE PUSH1 0x20 ADD PUSH1 0x0 KECCAK256 SWAP1 POP DUP1 PUSH1 0x0 ADD DUP1 SLOAD PUSH2 0x7E1 SWAP1 PUSH2 0x15F0 JUMP JUMPDEST DUP1 PUSH1 0x1F ADD PUSH1 0x20 DUP1 SWAP2 DIV MUL PUSH1 0x20 ADD PUSH1 0x40 MLOAD SWAP1 DUP2 ADD PUSH1 0x40 MSTORE DUP1 SWAP3 SWAP2 SWAP1 DUP2 DUP2 MSTORE PUSH1 0x20 ADD DUP3 DUP1 SLOAD PUSH2 0x80D SWAP1 PUSH2 0x15F0 JUMP JUMPDEST DUP1 ISZERO PUSH2 0x85A JUMPI DUP1 PUSH1 0x1F LT PUSH2 0x82F JUMPI PUSH2 0x100 DUP1 DUP4 SLOAD DIV MUL DUP4 MSTORE SWAP2 PUSH1 0x20 ADD SWAP2 PUSH2 0x85A JUMP JUMPDEST DUP3 ADD SWAP2 SWAP1 PUSH1 0x0 MSTORE PUSH1 0x20 PUSH1 0x0 KECCAK256 SWAP1 JUMPDEST DUP2 SLOAD DUP2 MSTORE SWAP1 PUSH1 0x1 ADD SWAP1 PUSH1 0x20 ADD DUP1 DUP4 GT PUSH2 0x83D JUMPI DUP3 SWAP1 SUB PUSH1 0x1F AND DUP3 ADD SWAP2 JUMPDEST POP POP POP POP POP SWAP2 POP POP SWAP2 SWAP1 POP JUMP JUMPDEST PUSH1 0x2 SLOAD DUP2 JUMP JUMPDEST PUSH1 0x0 DUP1 CALLER PUSH20 0xFFFFFFFFFFFFFFFFFFFFFFFFFFFFFFFFFFFFFFFF AND PUSH20 0xFFFFFFFFFFFFFFFFFFFFFFFFFFFFFFFFFFFFFFFF AND DUP2 MSTORE PUSH1 0x20 ADD SWAP1 DUP2 MSTORE PUSH1 0x20 ADD PUSH1 0x0 KECCAK256 PUSH1 0x0 SWAP1 SLOAD SWAP1 PUSH2 0x100 EXP SWAP1 DIV PUSH1 0xFF AND PUSH2 0x8F8 JUMPI PUSH1 0x40 MLOAD PUSH32 0x8C379A000000000000000000000000000000000000000000000000000000000 DUP2 MSTORE PUSH1 0x4 ADD PUSH2 0x8EF SWAP1 PUSH2 0x152A JUMP JUMPDEST PUSH1 0x40 MLOAD DUP1 SWAP2 SUB SWAP1 REVERT JUMPDEST PUSH1 0x1 PUSH1 0x0 DUP1 DUP4 PUSH20 0xFFFFFFFFFFFFFFFFFFFFFFFFFFFFFFFFFFFFFFFF AND PUSH20 0xFFFFFFFFFFFFFFFFFFFFFFFFFFFFFFFFFFFFFFFF AND DUP2 MSTORE PUSH1 0x20 ADD SWAP1 DUP2 MSTORE PUSH1 0x20 ADD PUSH1 0x0 KECCAK256 PUSH1 0x0 PUSH2 0x100 EXP DUP2 SLOAD DUP2 PUSH1 0xFF MUL NOT AND SWAP1 DUP4 ISZERO ISZERO MUL OR SWAP1 SSTORE POP POP JUMP JUMPDEST PUSH1 0x0 DUP1 CALLER PUSH20 0xFFFFFFFFFFFFFFFFFFFFFFFFFFFFFFFFFFFFFFFF AND PUSH20 0xFFFFFFFFFFFFFFFFFFFFFFFFFFFFFFFFFFFFFFFF AND DUP2 MSTORE PUSH1 0x20 ADD SWAP1 DUP2 MSTORE PUSH1 0x20 ADD PUSH1 0x0 KECCAK256 PUSH1 0x0 SWAP1 SLOAD SWAP1 PUSH2 0x100 EXP SWAP1 DIV PUSH1 0xFF AND PUSH2 0x9DD JUMPI PUSH1 0x40 MLOAD PUSH32 0x8C379A000000000000000000000000000000000000000000000000000000000 DUP2 MSTORE PUSH1 0x4 ADD PUSH2 0x9D4 SWAP1 PUSH2 0x152A JUMP JUMPDEST PUSH1 0x40 MLOAD DUP1 SWAP2 SUB SWAP1 REVERT JUMPDEST PUSH1 0x0 PUSH1 0x1 PUSH1 0x0 DUP4 DUP2 MSTORE PUSH1 0x20 ADD SWAP1 DUP2 MSTORE PUSH1 0x20 ADD PUSH1 0x0 KECCAK256 SWAP1 POP DUP1 PUSH1 0x8 ADD PUSH1 0x0 SWAP1 SLOAD SWAP1 PUSH2 0x100 EXP SWAP1 DIV PUSH1 0xFF AND PUSH2 0xA45 JUMPI PUSH1 0x40 MLOAD PUSH32 0x8C379A000000000000000000000000000000000000000000000000000000000 DUP2 MSTORE PUSH1 0x4 ADD PUSH2 0xA3C SWAP1 PUSH2 0x18EB JUMP JUMPDEST PUSH1 0x40 MLOAD DUP1 SWAP2 SUB SWAP1 REVERT JUMPDEST PUSH1 0x0 DUP2 PUSH1 0x8 ADD PUSH1 0x0 PUSH2 0x100 EXP DUP2 SLOAD DUP2 PUSH1 0xFF MUL NOT AND SWAP1 DUP4 ISZERO ISZERO MUL OR SWAP1 SSTORE POP POP POP JUMP JUMPDEST PUSH1 0x60 PUSH1 0x0 PUSH1 0x1 PUSH1 0x0 DUP5 DUP2 MSTORE PUSH1 0x20 ADD SWAP1 DUP2 MSTORE PUSH1 0x20 ADD PUSH1 0x0 KECCAK256 SWAP1 POP DUP1 PUSH1 0x1 ADD DUP1 SLOAD PUSH2 0xA8E SWAP1 PUSH2 0x15F0 JUMP JUMPDEST DUP1 PUSH1 0x1F ADD PUSH1 0x20 DUP1 SWAP2 DIV MUL PUSH1 0x20 ADD PUSH1 0x40 MLOAD SWAP1 DUP2 ADD PUSH1 0x40 MSTORE DUP1 SWAP3 SWAP2 SWAP1 DUP2 DUP2 MSTORE PUSH1 0x20 ADD DUP3 DUP1 SLOAD PUSH2 0xABA SWAP1 PUSH2 0x15F0 JUMP JUMPDEST DUP1 ISZERO PUSH2 0xB07 JUMPI DUP1 PUSH1 0x1F LT PUSH2 0xADC JUMPI PUSH2 0x100 DUP1 DUP4 SLOAD DIV MUL DUP4 MSTORE SWAP2 PUSH1 0x20 ADD SWAP2 PUSH2 0xB07 JUMP JUMPDEST DUP3 ADD SWAP2 SWAP1 PUSH1 0x0 MSTORE PUSH1 0x20 PUSH1 0x0 KECCAK256 SWAP1 JUMPDEST DUP2 SLOAD DUP2 MSTORE SWAP1 PUSH1 0x1 ADD SWAP1 PUSH1 0x20 ADD DUP1 DUP4 GT PUSH2 0xAEA JUMPI DUP3 SWAP1 SUB PUSH1 0x1F AND DUP3 ADD SWAP2 JUMPDEST POP POP POP POP POP SWAP2 POP POP SWAP2 SWAP1 POP JUMP JUMPDEST PUSH1 0x3 SLOAD DUP2 JUMP JUMPDEST PUSH1 0x0 DUP1 PUSH1 0x1 PUSH1 0x0 DUP6 DUP2 MSTORE PUSH1 0x20 ADD SWAP1 DUP2 MSTORE PUSH1 0x20 ADD PUSH1 0x0 KECCAK256 SWAP1 POP DUP1 PUSH1 0x5 ADD PUSH1 0x0 DUP5 PUSH20 0xFFFFFFFFFFFFFFFFFFFFFFFFFFFFFFFFFFFFFFFF AND PUSH20 0xFFFFFFFFFFFFFFFFFFFFFFFFFFFFFFFFFFFFFFFF AND DUP2 MSTORE PUSH1 0x20 ADD SWAP1 DUP2 MSTORE PUSH1 0x20 ADD PUSH1 0x0 KECCAK256 PUSH1 0x0 SWAP1 SLOAD SWAP1 PUSH2 0x100 EXP SWAP1 DIV PUSH1 0xFF AND PUSH2 0xBC0 JUMPI PUSH1 0x40 MLOAD PUSH32 0x8C379A000000000000000000000000000000000000000000000000000000000 DUP2 MSTORE PUSH1 0x4 ADD PUSH2 0xBB7 SWAP1 PUSH2 0x197D JUMP JUMPDEST PUSH1 0x40 MLOAD DUP1 SWAP2 SUB SWAP1 REVERT JUMPDEST DUP1 PUSH1 0x4 ADD PUSH1 0x0 DUP5 PUSH20 0xFFFFFFFFFFFFFFFFFFFFFFFFFFFFFFFFFFFFFFFF AND PUSH20 0xFFFFFFFFFFFFFFFFFFFFFFFFFFFFFFFFFFFFFFFF AND DUP2 MSTORE PUSH1 0x20 ADD SWAP1 DUP2 MSTORE PUSH1 0x20 ADD PUSH1 0x0 KECCAK256 PUSH1 0x0 SWAP1 SLOAD SWAP1 PUSH2 0x100 EXP SWAP1 DIV PUSH1 0xFF AND SWAP2 POP POP SWAP3 SWAP2 POP POP JUMP JUMPDEST PUSH1 0x0 PUSH1 0x1 PUSH1 0x0 DUP5 DUP2 MSTORE PUSH1 0x20 ADD SWAP1 DUP2 MSTORE PUSH1 0x20 ADD PUSH1 0x0 KECCAK256 SWAP1 POP DUP1 PUSH1 0x8 ADD PUSH1 0x0 SWAP1 SLOAD SWAP1 PUSH2 0x100 EXP SWAP1 DIV PUSH1 0xFF AND PUSH2 0xC80 JUMPI PUSH1 0x40 MLOAD PUSH32 0x8C379A000000000000000000000000000000000000000000000000000000000 DUP2 MSTORE PUSH1 0x4 ADD PUSH2 0xC77 SWAP1 PUSH2 0x18EB JUMP JUMPDEST PUSH1 0x40 MLOAD DUP1 SWAP2 SUB SWAP1 REVERT JUMPDEST DUP1 PUSH1 0x5 ADD PUSH1 0x0 CALLER PUSH20 0xFFFFFFFFFFFFFFFFFFFFFFFFFFFFFFFFFFFFFFFF AND PUSH20 0xFFFFFFFFFFFFFFFFFFFFFFFFFFFFFFFFFFFFFFFF AND DUP2 MSTORE PUSH1 0x20 ADD SWAP1 DUP2 MSTORE PUSH1 0x20 ADD PUSH1 0x0 KECCAK256 PUSH1 0x0 SWAP1 SLOAD SWAP1 PUSH2 0x100 EXP SWAP1 DIV PUSH1 0xFF AND PUSH2 0xD0E JUMPI PUSH1 0x40 MLOAD PUSH32 0x8C379A000000000000000000000000000000000000000000000000000000000 DUP2 MSTORE PUSH1 0x4 ADD PUSH2 0xD05 SWAP1 PUSH2 0x1A0F JUMP JUMPDEST PUSH1 0x40 MLOAD DUP1 SWAP2 SUB SWAP1 REVERT JUMPDEST PUSH1 0x1 DUP2 PUSH1 0x5 ADD PUSH1 0x0 CALLER PUSH20 0xFFFFFFFFFFFFFFFFFFFFFFFFFFFFFFFFFFFFFFFF AND PUSH20 0xFFFFFFFFFFFFFFFFFFFFFFFFFFFFFFFFFFFFFFFF AND DUP2 MSTORE PUSH1 0x20 ADD SWAP1 DUP2 MSTORE PUSH1 0x20 ADD PUSH1 0x0 KECCAK256 PUSH1 0x0 PUSH2 0x100 EXP DUP2 SLOAD DUP2 PUSH1 0xFF MUL NOT AND SWAP1 DUP4 ISZERO ISZERO MUL OR SWAP1 SSTORE POP DUP2 ISZERO PUSH2 0xDE7 JUMPI DUP1 PUSH1 0x6 ADD PUSH1 0x0 DUP2 SLOAD DUP1 SWAP3 SWAP2 SWAP1 PUSH2 0xD83 SWAP1 PUSH2 0x1579 JUMP JUMPDEST SWAP2 SWAP1 POP SSTORE POP PUSH1 0x1 DUP2 PUSH1 0x4 ADD PUSH1 0x0 CALLER PUSH20 0xFFFFFFFFFFFFFFFFFFFFFFFFFFFFFFFFFFFFFFFF AND PUSH20 0xFFFFFFFFFFFFFFFFFFFFFFFFFFFFFFFFFFFFFFFF AND DUP2 MSTORE PUSH1 0x20 ADD SWAP1 DUP2 MSTORE PUSH1 0x20 ADD PUSH1 0x0 KECCAK256 PUSH1 0x0 PUSH2 0x100 EXP DUP2 SLOAD DUP2 PUSH1 0xFF MUL NOT AND SWAP1 DUP4 ISZERO ISZERO MUL OR SWAP1 SSTORE POP PUSH2 0xE5C JUMP JUMPDEST DUP1 PUSH1 0x7 ADD PUSH1 0x0 DUP2 SLOAD DUP1 SWAP3 SWAP2 SWAP1 PUSH2 0xDFC SWAP1 PUSH2 0x1579 JUMP JUMPDEST SWAP2 SWAP1 POP SSTORE POP PUSH1 0x0 DUP2 PUSH1 0x4 ADD PUSH1 0x0 CALLER PUSH20 0xFFFFFFFFFFFFFFFFFFFFFFFFFFFFFFFFFFFFFFFF AND PUSH20 0xFFFFFFFFFFFFFFFFFFFFFFFFFFFFFFFFFFFFFFFF AND DUP2 MSTORE PUSH1 0x20 ADD SWAP1 DUP2 MSTORE PUSH1 0x20 ADD PUSH1 0x0 KECCAK256 PUSH1 0x0 PUSH2 0x100 EXP DUP2 SLOAD DUP2 PUSH1 0xFF MUL NOT AND SWAP1 DUP4 ISZERO ISZERO MUL OR SWAP1 SSTORE POP JUMPDEST POP POP POP JUMP JUMPDEST PUSH1 0x0 DUP1 PUSH1 0x0 PUSH1 0x1 PUSH1 0x0 DUP6 DUP2 MSTORE PUSH1 0x20 ADD SWAP1 DUP2 MSTORE PUSH1 0x20 ADD PUSH1 0x0 KECCAK256 SWAP1 POP DUP1 PUSH1 0x8 ADD PUSH1 0x0 SWAP1 SLOAD SWAP1 PUSH2 0x100 EXP SWAP1 DIV PUSH1 0xFF AND ISZERO PUSH2 0xECD JUMPI PUSH1 0x40 MLOAD PUSH32 0x8C379A000000000000000000000000000000000000000000000000000000000 DUP2 MSTORE PUSH1 0x4 ADD PUSH2 0xEC4 SWAP1 PUSH2 0x1A7B JUMP JUMPDEST PUSH1 0x40 MLOAD DUP1 SWAP2 SUB SWAP1 REVERT JUMPDEST DUP1 PUSH1 0x6 ADD SLOAD DUP2 PUSH1 0x7 ADD SLOAD SWAP3 POP SWAP3 POP POP SWAP2 POP SWAP2 JUMP JUMPDEST PUSH1 0x0 PUSH1 0x40 MLOAD SWAP1 POP SWAP1 JUMP JUMPDEST PUSH1 0x0 DUP1 REVERT JUMPDEST PUSH1 0x0 DUP1 REVERT JUMPDEST PUSH1 0x0 DUP1 REVERT JUMPDEST PUSH1 0x0 DUP1 REVERT JUMPDEST PUSH1 0x0 PUSH1 0x1F NOT PUSH1 0x1F DUP4 ADD AND SWAP1 POP SWAP2 SWAP1 POP JUMP JUMPDEST PUSH32 0x4E487B7100000000000000000000000000000000000000000000000000000000 PUSH1 0x0 MSTORE PUSH1 0x41 PUSH1 0x4 MSTORE PUSH1 0x24 PUSH1 0x0 REVERT JUMPDEST PUSH2 0xF48 DUP3 PUSH2 0xEFF JUMP JUMPDEST DUP2 ADD DUP2 DUP2 LT PUSH8 0xFFFFFFFFFFFFFFFF DUP3 GT OR ISZERO PUSH2 0xF67 JUMPI PUSH2 0xF66 PUSH2 0xF10 JUMP JUMPDEST JUMPDEST DUP1 PUSH1 0x40 MSTORE POP POP POP JUMP JUMPDEST PUSH1 0x0 PUSH2 0xF7A PUSH2 0xEE1 JUMP JUMPDEST SWAP1 POP PUSH2 0xF86 DUP3 DUP3 PUSH2 0xF3F JUMP JUMPDEST SWAP2 SWAP1 POP JUMP JUMPDEST PUSH1 0x0 PUSH8 0xFFFFFFFFFFFFFFFF DUP3 GT ISZERO PUSH2 0xFA6 JUMPI PUSH2 0xFA5 PUSH2 0xF10 JUMP JUMPDEST JUMPDEST PUSH2 0xFAF DUP3 PUSH2 0xEFF JUMP JUMPDEST SWAP1 POP PUSH1 0x20 DUP2 ADD SWAP1 POP SWAP2 SWAP1 POP JUMP JUMPDEST DUP3 DUP2 DUP4 CALLDATACOPY PUSH1 0x0 DUP4 DUP4 ADD MSTORE POP POP POP JUMP JUMPDEST PUSH1 0x0 PUSH2 0xFDE PUSH2 0xFD9 DUP5 PUSH2 0xF8B JUMP JUMPDEST PUSH2 0xF70 JUMP JUMPDEST SWAP1 POP DUP3 DUP2 MSTORE PUSH1 0x20 DUP2 ADD DUP5 DUP5 DUP5 ADD GT ISZERO PUSH2 0xFFA JUMPI PUSH2 0xFF9 PUSH2 0xEFA JUMP JUMPDEST JUMPDEST PUSH2 0x1005 DUP5 DUP3 DUP6 PUSH2 0xFBC JUMP JUMPDEST POP SWAP4 SWAP3 POP POP POP JUMP JUMPDEST PUSH1 0x0 DUP3 PUSH1 0x1F DUP4 ADD SLT PUSH2 0x1022 JUMPI PUSH2 0x1021 PUSH2 0xEF5 JUMP JUMPDEST JUMPDEST DUP2 CALLDATALOAD PUSH2 0x1032 DUP5 DUP3 PUSH1 0x20 DUP7 ADD PUSH2 0xFCB JUMP JUMPDEST SWAP2 POP POP SWAP3 SWAP2 POP POP JUMP JUMPDEST PUSH1 0x0 DUP1 PUSH1 0x40 DUP4 DUP6 SUB SLT ISZERO PUSH2 0x1052 JUMPI PUSH2 0x1051 PUSH2 0xEEB JUMP JUMPDEST JUMPDEST PUSH1 0x0 DUP4 ADD CALLDATALOAD PUSH8 0xFFFFFFFFFFFFFFFF DUP2 GT ISZERO PUSH2 0x1070 JUMPI PUSH2 0x106F PUSH2 0xEF0 JUMP JUMPDEST JUMPDEST PUSH2 0x107C DUP6 DUP3 DUP7 ADD PUSH2 0x100D JUMP JUMPDEST SWAP3 POP POP PUSH1 0x20 DUP4 ADD CALLDATALOAD PUSH8 0xFFFFFFFFFFFFFFFF DUP2 GT ISZERO PUSH2 0x109D JUMPI PUSH2 0x109C PUSH2 0xEF0 JUMP JUMPDEST JUMPDEST PUSH2 0x10A9 DUP6 DUP3 DUP7 ADD PUSH2 0x100D JUMP JUMPDEST SWAP2 POP POP SWAP3 POP SWAP3 SWAP1 POP JUMP JUMPDEST PUSH1 0x0 DUP2 SWAP1 POP SWAP2 SWAP1 POP JUMP JUMPDEST PUSH2 0x10C6 DUP2 PUSH2 0x10B3 JUMP JUMPDEST DUP3 MSTORE POP POP JUMP JUMPDEST PUSH1 0x0 PUSH1 0x20 DUP3 ADD SWAP1 POP PUSH2 0x10E1 PUSH1 0x0 DUP4 ADD DUP5 PUSH2 0x10BD JUMP JUMPDEST SWAP3 SWAP2 POP POP JUMP JUMPDEST PUSH1 0x0 PUSH20 0xFFFFFFFFFFFFFFFFFFFFFFFFFFFFFFFFFFFFFFFF DUP3 AND SWAP1 POP SWAP2 SWAP1 POP JUMP JUMPDEST PUSH1 0x0 PUSH2 0x1112 DUP3 PUSH2 0x10E7 JUMP JUMPDEST SWAP1 POP SWAP2 SWAP1 POP JUMP JUMPDEST PUSH2 0x1122 DUP2 PUSH2 0x1107 JUMP JUMPDEST DUP2 EQ PUSH2 0x112D JUMPI PUSH1 0x0 DUP1 REVERT JUMPDEST POP JUMP JUMPDEST PUSH1 0x0 DUP2 CALLDATALOAD SWAP1 POP PUSH2 0x113F DUP2 PUSH2 0x1119 JUMP JUMPDEST SWAP3 SWAP2 POP POP JUMP JUMPDEST PUSH1 0x0 PUSH1 0x20 DUP3 DUP5 SUB SLT ISZERO PUSH2 0x115B JUMPI PUSH2 0x115A PUSH2 0xEEB JUMP JUMPDEST JUMPDEST PUSH1 0x0 PUSH2 0x1169 DUP5 DUP3 DUP6 ADD PUSH2 0x1130 JUMP JUMPDEST SWAP2 POP POP SWAP3 SWAP2 POP POP JUMP JUMPDEST PUSH2 0x117B DUP2 PUSH2 0x10B3 JUMP JUMPDEST DUP2 EQ PUSH2 0x1186 JUMPI PUSH1 0x0 DUP1 REVERT JUMPDEST POP JUMP JUMPDEST PUSH1 0x0 DUP2 CALLDATALOAD SWAP1 POP PUSH2 0x1198 DUP2 PUSH2 0x1172 JUMP JUMPDEST SWAP3 SWAP2 POP POP JUMP JUMPDEST PUSH1 0x0 PUSH1 0x20 DUP3 DUP5 SUB SLT ISZERO PUSH2 0x11B4 JUMPI PUSH2 0x11B3 PUSH2 0xEEB JUMP JUMPDEST JUMPDEST PUSH1 0x0 PUSH2 0x11C2 DUP5 DUP3 DUP6 ADD PUSH2 0x1189 JUMP JUMPDEST SWAP2 POP POP SWAP3 SWAP2 POP POP JUMP JUMPDEST PUSH1 0x0 DUP2 MLOAD SWAP1 POP SWAP2 SWAP1 POP JUMP JUMPDEST PUSH1 0x0 DUP3 DUP3 MSTORE PUSH1 0x20 DUP3 ADD SWAP1 POP SWAP3 SWAP2 POP POP JUMP JUMPDEST PUSH1 0x0 JUMPDEST DUP4 DUP2 LT ISZERO PUSH2 0x1205 JUMPI DUP1 DUP3 ADD MLOAD DUP2 DUP5 ADD MSTORE PUSH1 0x20 DUP2 ADD SWAP1 POP PUSH2 0x11EA JUMP JUMPDEST PUSH1 0x0 DUP5 DUP5 ADD MSTORE POP POP POP POP JUMP JUMPDEST PUSH1 0x0 PUSH2 0x121C DUP3 PUSH2 0x11CB JUMP JUMPDEST PUSH2 0x1226 DUP2 DUP6 PUSH2 0x11D6 JUMP JUMPDEST SWAP4 POP PUSH2 0x1236 DUP2 DUP6 PUSH1 0x20 DUP7 ADD PUSH2 0x11E7 JUMP JUMPDEST PUSH2 0x123F DUP2 PUSH2 0xEFF JUMP JUMPDEST DUP5 ADD SWAP2 POP POP SWAP3 SWAP2 POP POP JUMP JUMPDEST PUSH1 0x0 DUP2 ISZERO ISZERO SWAP1 POP SWAP2 SWAP1 POP JUMP JUMPDEST PUSH2 0x125F DUP2 PUSH2 0x124A JUMP JUMPDEST DUP3 MSTORE POP POP JUMP JUMPDEST PUSH1 0x0 PUSH1 0xA0 DUP3 ADD SWAP1 POP DUP2 DUP2 SUB PUSH1 0x0 DUP4 ADD MSTORE PUSH2 0x127F DUP2 DUP9 PUSH2 0x1211 JUMP JUMPDEST SWAP1 POP DUP2 DUP2 SUB PUSH1 0x20 DUP4 ADD MSTORE PUSH2 0x1293 DUP2 DUP8 PUSH2 0x1211 JUMP JUMPDEST SWAP1 POP PUSH2 0x12A2 PUSH1 0x40 DUP4 ADD DUP7 PUSH2 0x10BD JUMP JUMPDEST PUSH2 0x12AF PUSH1 0x60 DUP4 ADD DUP6 PUSH2 0x10BD JUMP JUMPDEST PUSH2 0x12BC PUSH1 0x80 DUP4 ADD DUP5 PUSH2 0x1256 JUMP JUMPDEST SWAP7 SWAP6 POP POP POP POP POP POP JUMP JUMPDEST PUSH1 0x0 PUSH1 0x20 DUP3 ADD SWAP1 POP PUSH2 0x12DB PUSH1 0x0 DUP4 ADD DUP5 PUSH2 0x1256 JUMP JUMPDEST SWAP3 SWAP2 POP POP JUMP JUMPDEST PUSH1 0x0 DUP1 PUSH1 0x40 DUP4 DUP6 SUB SLT ISZERO PUSH2 0x12F8 JUMPI PUSH2 0x12F7 PUSH2 0xEEB JUMP JUMPDEST JUMPDEST PUSH1 0x0 PUSH2 0x1306 DUP6 DUP3 DUP7 ADD PUSH2 0x1189 JUMP JUMPDEST SWAP3 POP POP PUSH1 0x20 PUSH2 0x1317 DUP6 DUP3 DUP7 ADD PUSH2 0x1130 JUMP JUMPDEST SWAP2 POP POP SWAP3 POP SWAP3 SWAP1 POP JUMP JUMPDEST PUSH1 0x0 DUP2 MLOAD SWAP1 POP SWAP2 SWAP1 POP JUMP JUMPDEST PUSH1 0x0 DUP3 DUP3 MSTORE PUSH1 0x20 DUP3 ADD SWAP1 POP SWAP3 SWAP2 POP POP JUMP JUMPDEST PUSH1 0x0 DUP2 SWAP1 POP PUSH1 0x20 DUP3 ADD SWAP1 POP SWAP2 SWAP1 POP JUMP JUMPDEST PUSH2 0x1356 DUP2 PUSH2 0x10B3 JUMP JUMPDEST DUP3 MSTORE POP POP JUMP JUMPDEST PUSH1 0x0 PUSH2 0x1368 DUP4 DUP4 PUSH2 0x134D JUMP JUMPDEST PUSH1 0x20 DUP4 ADD SWAP1 POP SWAP3 SWAP2 POP POP JUMP JUMPDEST PUSH1 0x0 PUSH1 0x20 DUP3 ADD SWAP1 POP SWAP2 SWAP1 POP JUMP JUMPDEST PUSH1 0x0 PUSH2 0x138C DUP3 PUSH2 0x1321 JUMP JUMPDEST PUSH2 0x1396 DUP2 DUP6 PUSH2 0x132C JUMP JUMPDEST SWAP4 POP PUSH2 0x13A1 DUP4 PUSH2 0x133D JUMP JUMPDEST DUP1 PUSH1 0x0 JUMPDEST DUP4 DUP2 LT ISZERO PUSH2 0x13D2 JUMPI DUP2 MLOAD PUSH2 0x13B9 DUP9 DUP3 PUSH2 0x135C JUMP JUMPDEST SWAP8 POP PUSH2 0x13C4 DUP4 PUSH2 0x1374 JUMP JUMPDEST SWAP3 POP POP PUSH1 0x1 DUP2 ADD SWAP1 POP PUSH2 0x13A5 JUMP JUMPDEST POP DUP6 SWAP4 POP POP POP POP SWAP3 SWAP2 POP POP JUMP JUMPDEST PUSH1 0x0 PUSH1 0x20 DUP3 ADD SWAP1 POP DUP2 DUP2 SUB PUSH1 0x0 DUP4 ADD MSTORE PUSH2 0x13F9 DUP2 DUP5 PUSH2 0x1381 JUMP JUMPDEST SWAP1 POP SWAP3 SWAP2 POP POP JUMP JUMPDEST PUSH1 0x0 PUSH1 0x20 DUP3 ADD SWAP1 POP DUP2 DUP2 SUB PUSH1 0x0 DUP4 ADD MSTORE PUSH2 0x141B DUP2 DUP5 PUSH2 0x1211 JUMP JUMPDEST SWAP1 POP SWAP3 SWAP2 POP POP JUMP JUMPDEST PUSH2 0x142C DUP2 PUSH2 0x124A JUMP JUMPDEST DUP2 EQ PUSH2 0x1437 JUMPI PUSH1 0x0 DUP1 REVERT JUMPDEST POP JUMP JUMPDEST PUSH1 0x0 DUP2 CALLDATALOAD SWAP1 POP PUSH2 0x1449 DUP2 PUSH2 0x1423 JUMP JUMPDEST SWAP3 SWAP2 POP POP JUMP JUMPDEST PUSH1 0x0 DUP1 PUSH1 0x40 DUP4 DUP6 SUB SLT ISZERO PUSH2 0x1466 JUMPI PUSH2 0x1465 PUSH2 0xEEB JUMP JUMPDEST JUMPDEST PUSH1 0x0 PUSH2 0x1474 DUP6 DUP3 DUP7 ADD PUSH2 0x1189 JUMP JUMPDEST SWAP3 POP POP PUSH1 0x20 PUSH2 0x1485 DUP6 DUP3 DUP7 ADD PUSH2 0x143A JUMP JUMPDEST SWAP2 POP POP SWAP3 POP SWAP3 SWAP1 POP JUMP JUMPDEST PUSH1 0x0 PUSH1 0x40 DUP3 ADD SWAP1 POP PUSH2 0x14A4 PUSH1 0x0 DUP4 ADD DUP6 PUSH2 0x10BD JUMP JUMPDEST PUSH2 0x14B1 PUSH1 0x20 DUP4 ADD DUP5 PUSH2 0x10BD JUMP JUMPDEST SWAP4 SWAP3 POP POP POP JUMP JUMPDEST PUSH32 0x4F6E6C792061646D696E732063616E20706572666F726D207468697320616374 PUSH1 0x0 DUP3 ADD MSTORE PUSH32 0x696F6E0000000000000000000000000000000000000000000000000000000000 PUSH1 0x20 DUP3 ADD MSTORE POP JUMP JUMPDEST PUSH1 0x0 PUSH2 0x1514 PUSH1 0x23 DUP4 PUSH2 0x11D6 JUMP JUMPDEST SWAP2 POP PUSH2 0x151F DUP3 PUSH2 0x14B8 JUMP JUMPDEST PUSH1 0x40 DUP3 ADD SWAP1 POP SWAP2 SWAP1 POP JUMP JUMPDEST PUSH1 0x0 PUSH1 0x20 DUP3 ADD SWAP1 POP DUP2 DUP2 SUB PUSH1 0x0 DUP4 ADD MSTORE PUSH2 0x1543 DUP2 PUSH2 0x1507 JUMP JUMPDEST SWAP1 POP SWAP2 SWAP1 POP JUMP JUMPDEST PUSH32 0x4E487B7100000000000000000000000000000000000000000000000000000000 PUSH1 0x0 MSTORE PUSH1 0x11 PUSH1 0x4 MSTORE PUSH1 0x24 PUSH1 0x0 REVERT JUMPDEST PUSH1 0x0 PUSH2 0x1584 DUP3 PUSH2 0x10B3 JUMP JUMPDEST SWAP2 POP PUSH32 0xFFFFFFFFFFFFFFFFFFFFFFFFFFFFFFFFFFFFFFFFFFFFFFFFFFFFFFFFFFFFFFFF DUP3 SUB PUSH2 0x15B6 JUMPI PUSH2 0x15B5 PUSH2 0x154A JUMP JUMPDEST JUMPDEST PUSH1 0x1 DUP3 ADD SWAP1 POP SWAP2 SWAP1 POP JUMP JUMPDEST PUSH32 0x4E487B7100000000000000000000000000000000000000000000000000000000 PUSH1 0x0 MSTORE PUSH1 0x22 PUSH1 0x4 MSTORE PUSH1 0x24 PUSH1 0x0 REVERT JUMPDEST PUSH1 0x0 PUSH1 0x2 DUP3 DIV SWAP1 POP PUSH1 0x1 DUP3 AND DUP1 PUSH2 0x1608 JUMPI PUSH1 0x7F DUP3 AND SWAP2 POP JUMPDEST PUSH1 0x20 DUP3 LT DUP2 SUB PUSH2 0x161B JUMPI PUSH2 0x161A PUSH2 0x15C1 JUMP JUMPDEST JUMPDEST POP SWAP2 SWAP1 POP JUMP JUMPDEST PUSH1 0x0 DUP2 SWAP1 POP DUP2 PUSH1 0x0 MSTORE PUSH1 0x20 PUSH1 0x0 KECCAK256 SWAP1 POP SWAP2 SWAP1 POP JUMP JUMPDEST PUSH1 0x0 PUSH1 0x20 PUSH1 0x1F DUP4 ADD DIV SWAP1 POP SWAP2 SWAP1 POP JUMP JUMPDEST PUSH1 0x0 DUP3 DUP3 SHL SWAP1 POP SWAP3 SWAP2 POP POP JUMP JUMPDEST PUSH1 0x0 PUSH1 0x8 DUP4 MUL PUSH2 0x1683 PUSH32 0xFFFFFFFFFFFFFFFFFFFFFFFFFFFFFFFFFFFFFFFFFFFFFFFFFFFFFFFFFFFFFFFF DUP3 PUSH2 0x1646 JUMP JUMPDEST PUSH2 0x168D DUP7 DUP4 PUSH2 0x1646 JUMP JUMPDEST SWAP6 POP DUP1 NOT DUP5 AND SWAP4 POP DUP1 DUP7 AND DUP5 OR SWAP3 POP POP POP SWAP4 SWAP3 POP POP POP JUMP JUMPDEST PUSH1 0x0 DUP2 SWAP1 POP SWAP2 SWAP1 POP JUMP JUMPDEST PUSH1 0x0 PUSH2 0x16CA PUSH2 0x16C5 PUSH2 0x16C0 DUP5 PUSH2 0x10B3 JUMP JUMPDEST PUSH2 0x16A5 JUMP JUMPDEST PUSH2 0x10B3 JUMP JUMPDEST SWAP1 POP SWAP2 SWAP1 POP JUMP JUMPDEST PUSH1 0x0 DUP2 SWAP1 POP SWAP2 SWAP1 POP JUMP JUMPDEST PUSH2 0x16E4 DUP4 PUSH2 0x16AF JUMP JUMPDEST PUSH2 0x16F8 PUSH2 0x16F0 DUP3 PUSH2 0x16D1 JUMP JUMPDEST DUP5 DUP5 SLOAD PUSH2 0x1653 JUMP JUMPDEST DUP3 SSTORE POP POP POP POP JUMP JUMPDEST PUSH1 0x0 SWAP1 JUMP JUMPDEST PUSH2 0x170D PUSH2 0x1700 JUMP JUMPDEST PUSH2 0x1718 DUP2 DUP5 DUP5 PUSH2 0x16DB JUMP JUMPDEST POP POP POP JUMP JUMPDEST JUMPDEST DUP2 DUP2 LT ISZERO PUSH2 0x173C JUMPI PUSH2 0x1731 PUSH1 0x0 DUP3 PUSH2 0x1705 JUMP JUMPDEST PUSH1 0x1 DUP2 ADD SWAP1 POP PUSH2 0x171E JUMP JUMPDEST POP POP JUMP JUMPDEST PUSH1 0x1F DUP3 GT ISZERO PUSH2 0x1781 JUMPI PUSH2 0x1752 DUP2 PUSH2 0x1621 JUMP JUMPDEST PUSH2 0x175B DUP5 PUSH2 0x1636 JUMP JUMPDEST DUP2 ADD PUSH1 0x20 DUP6 LT ISZERO PUSH2 0x176A JUMPI DUP2 SWAP1 POP JUMPDEST PUSH2 0x177E PUSH2 0x1776 DUP6 PUSH2 0x1636 JUMP JUMPDEST DUP4 ADD DUP3 PUSH2 0x171D JUMP JUMPDEST POP POP JUMPDEST POP POP POP JUMP JUMPDEST PUSH1 0x0 DUP3 DUP3 SHR SWAP1 POP SWAP3 SWAP2 POP POP JUMP JUMPDEST PUSH1 0x0 PUSH2 0x17A4 PUSH1 0x0 NOT DUP5 PUSH1 0x8 MUL PUSH2 0x1786 JUMP JUMPDEST NOT DUP1 DUP4 AND SWAP2 POP POP SWAP3 SWAP2 POP POP JUMP JUMPDEST PUSH1 0x0 PUSH2 0x17BD DUP4 DUP4 PUSH2 0x1793 JUMP JUMPDEST SWAP2 POP DUP3 PUSH1 0x2 MUL DUP3 OR SWAP1 POP SWAP3 SWAP2 POP POP JUMP JUMPDEST PUSH2 0x17D6 DUP3 PUSH2 0x11CB JUMP JUMPDEST PUSH8 0xFFFFFFFFFFFFFFFF DUP2 GT ISZERO PUSH2 0x17EF JUMPI PUSH2 0x17EE PUSH2 0xF10 JUMP JUMPDEST JUMPDEST PUSH2 0x17F9 DUP3 SLOAD PUSH2 0x15F0 JUMP JUMPDEST PUSH2 0x1804 DUP3 DUP3 DUP6 PUSH2 0x1740 JUMP JUMPDEST PUSH1 0x0 PUSH1 0x20 SWAP1 POP PUSH1 0x1F DUP4 GT PUSH1 0x1 DUP2 EQ PUSH2 0x1837 JUMPI PUSH1 0x0 DUP5 ISZERO PUSH2 0x1825 JUMPI DUP3 DUP8 ADD MLOAD SWAP1 POP JUMPDEST PUSH2 0x182F DUP6 DUP3 PUSH2 0x17B1 JUMP JUMPDEST DUP7 SSTORE POP PUSH2 0x1897 JUMP JUMPDEST PUSH1 0x1F NOT DUP5 AND PUSH2 0x1845 DUP7 PUSH2 0x1621 JUMP JUMPDEST PUSH1 0x0 JUMPDEST DUP3 DUP2 LT ISZERO PUSH2 0x186D JUMPI DUP5 DUP10 ADD MLOAD DUP3 SSTORE PUSH1 0x1 DUP3 ADD SWAP2 POP PUSH1 0x20 DUP6 ADD SWAP5 POP PUSH1 0x20 DUP2 ADD SWAP1 POP PUSH2 0x1848 JUMP JUMPDEST DUP7 DUP4 LT ISZERO PUSH2 0x188A JUMPI DUP5 DUP10 ADD MLOAD PUSH2 0x1886 PUSH1 0x1F DUP10 AND DUP3 PUSH2 0x1793 JUMP JUMPDEST DUP4 SSTORE POP JUMPDEST PUSH1 0x1 PUSH1 0x2 DUP9 MUL ADD DUP9 SSTORE POP POP POP JUMPDEST POP POP POP POP POP POP JUMP JUMPDEST PUSH32 0x566F74696E67206973206E6F7420616374697665000000000000000000000000 PUSH1 0x0 DUP3 ADD MSTORE POP JUMP JUMPDEST PUSH1 0x0 PUSH2 0x18D5 PUSH1 0x14 DUP4 PUSH2 0x11D6 JUMP JUMPDEST SWAP2 POP PUSH2 0x18E0 DUP3 PUSH2 0x189F JUMP JUMPDEST PUSH1 0x20 DUP3 ADD SWAP1 POP SWAP2 SWAP1 POP JUMP JUMPDEST PUSH1 0x0 PUSH1 0x20 DUP3 ADD SWAP1 POP DUP2 DUP2 SUB PUSH1 0x0 DUP4 ADD MSTORE PUSH2 0x1904 DUP2 PUSH2 0x18C8 JUMP JUMPDEST SWAP1 POP SWAP2 SWAP1 POP JUMP JUMPDEST PUSH32 0x54686520766F74657220686173206E6F7420766F74656420696E207468697320 PUSH1 0x0 DUP3 ADD MSTORE PUSH32 0x766F74696E670000000000000000000000000000000000000000000000000000 PUSH1 0x20 DUP3 ADD MSTORE POP JUMP JUMPDEST PUSH1 0x0 PUSH2 0x1967 PUSH1 0x26 DUP4 PUSH2 0x11D6 JUMP JUMPDEST SWAP2 POP PUSH2 0x1972 DUP3 PUSH2 0x190B JUMP JUMPDEST PUSH1 0x40 DUP3 ADD SWAP1 POP SWAP2 SWAP1 POP JUMP JUMPDEST PUSH1 0x0 PUSH1 0x20 DUP3 ADD SWAP1 POP DUP2 DUP2 SUB PUSH1 0x0 DUP4 ADD MSTORE PUSH2 0x1996 DUP2 PUSH2 0x195A JUMP JUMPDEST SWAP1 POP SWAP2 SWAP1 POP JUMP JUMPDEST PUSH32 0x596F75206861766520616C726561647920766F74656420696E20746869732076 PUSH1 0x0 DUP3 ADD MSTORE PUSH32 0x6F74696E67000000000000000000000000000000000000000000000000000000 PUSH1 0x20 DUP3 ADD MSTORE POP JUMP JUMPDEST PUSH1 0x0 PUSH2 0x19F9 PUSH1 0x25 DUP4 PUSH2 0x11D6 JUMP JUMPDEST SWAP2 POP PUSH2 0x1A04 DUP3 PUSH2 0x199D JUMP JUMPDEST PUSH1 0x40 DUP3 ADD SWAP1 POP SWAP2 SWAP1 POP JUMP JUMPDEST PUSH1 0x0 PUSH1 0x20 DUP3 ADD SWAP1 POP DUP2 DUP2 SUB PUSH1 0x0 DUP4 ADD MSTORE PUSH2 0x1A28 DUP2 PUSH2 0x19EC JUMP JUMPDEST SWAP1 POP SWAP2 SWAP1 POP JUMP JUMPDEST PUSH32 0x566F74696E67206973207374696C6C2061637469766500000000000000000000 PUSH1 0x0 DUP3 ADD MSTORE POP JUMP JUMPDEST PUSH1 0x0 PUSH2 0x1A65 PUSH1 0x16 DUP4 PUSH2 0x11D6 JUMP JUMPDEST SWAP2 POP PUSH2 0x1A70 DUP3 PUSH2 0x1A2F JUMP JUMPDEST PUSH1 0x20 DUP3 ADD SWAP1 POP SWAP2 SWAP1 POP JUMP JUMPDEST PUSH1 0x0 PUSH1 0x20 DUP3 ADD SWAP1 POP DUP2 DUP2 SUB PUSH1 0x0 DUP4 ADD MSTORE PUSH2 0x1A94 DUP2 PUSH2 0x1A58 JUMP JUMPDEST SWAP1 POP SWAP2 SWAP1 POP JUMP INVALID LOG2 PUSH5 0x6970667358 0x22 SLT KECCAK256 PUSH29 0xE1B5DF866182FBE586B790B98B95903BDB05E6650B10DA53FEDD1E1C6 0xAB 0xDD PUSH5 0x736F6C6343 STOP ADDMOD SLT STOP CALLER "
				},
				"gasEstimates": {
					"creation": {
						"codeDepositCost": "1373000",
						"executionCost": "25787",
						"totalCost": "1398787"
					},
					"external": {
						"addAdmin(address)": "27099",
						"admins(address)": "2868",
						"createTopic(string,string)": "infinite",
						"endTopic(uint256)": "29238",
						"getTopicDescription(uint256)": "infinite",
						"getTopicName(uint256)": "infinite",
						"getTopicResult(uint256)": "infinite",
						"getTopicVotingIds(uint256)": "infinite",
						"getVote(uint256,address)": "5446",
						"hasVoted(uint256,address)": "3198",
						"numTopics()": "2451",
						"numVotings()": "2452",
						"removeAdmin(address)": "27100",
						"topics(uint256)": "infinite",
						"vote(uint256,bool)": "infinite"
					}
				},
				"methodIdentifiers": {
					"addAdmin(address)": "70480275",
					"admins(address)": "429b62e5",
					"createTopic(string,string)": "0743c33a",
					"endTopic(uint256)": "745fa941",
					"getTopicDescription(uint256)": "9dc58d3f",
					"getTopicName(uint256)": "6e8d1dc8",
					"getTopicResult(uint256)": "e27684e5",
					"getTopicVotingIds(uint256)": "62f8a1fd",
					"getVote(uint256,address)": "bc3f931f",
					"hasVoted(uint256,address)": "43859632",
					"numTopics()": "a29092ed",
					"numVotings()": "6f460f95",
					"removeAdmin(address)": "1785f53c",
					"topics(uint256)": "18d9adab",
					"vote(uint256,bool)": "c9d27afe"
				}
			},
			"storageLayout": {
				"storage": [
					{
						"astId": 30,
						"contract": "contracts/VotingSystem.sol:VotingSystem",
						"label": "admins",
						"offset": 0,
						"slot": "0",
						"type": "t_mapping(t_address,t_bool)"
					},
					{
						"astId": 35,
						"contract": "contracts/VotingSystem.sol:VotingSystem",
						"label": "topics",
						"offset": 0,
						"slot": "1",
						"type": "t_mapping(t_uint256,t_struct(Topic)26_storage)"
					},
					{
						"astId": 37,
						"contract": "contracts/VotingSystem.sol:VotingSystem",
						"label": "numVotings",
						"offset": 0,
						"slot": "2",
						"type": "t_uint256"
					},
					{
						"astId": 39,
						"contract": "contracts/VotingSystem.sol:VotingSystem",
						"label": "numTopics",
						"offset": 0,
						"slot": "3",
						"type": "t_uint256"
					}
				],
				"types": {
					"t_address": {
						"encoding": "inplace",
						"label": "address",
						"numberOfBytes": "20"
					},
					"t_array(t_address)dyn_storage": {
						"base": "t_address",
						"encoding": "dynamic_array",
						"label": "address[]",
						"numberOfBytes": "32"
					},
					"t_array(t_uint256)dyn_storage": {
						"base": "t_uint256",
						"encoding": "dynamic_array",
						"label": "uint256[]",
						"numberOfBytes": "32"
					},
					"t_bool": {
						"encoding": "inplace",
						"label": "bool",
						"numberOfBytes": "1"
					},
					"t_mapping(t_address,t_bool)": {
						"encoding": "mapping",
						"key": "t_address",
						"label": "mapping(address => bool)",
						"numberOfBytes": "32",
						"value": "t_bool"
					},
					"t_mapping(t_uint256,t_struct(Topic)26_storage)": {
						"encoding": "mapping",
						"key": "t_uint256",
						"label": "mapping(uint256 => struct VotingSystem.Topic)",
						"numberOfBytes": "32",
						"value": "t_struct(Topic)26_storage"
					},
					"t_string_storage": {
						"encoding": "bytes",
						"label": "string",
						"numberOfBytes": "32"
					},
					"t_struct(Topic)26_storage": {
						"encoding": "inplace",
						"label": "struct VotingSystem.Topic",
						"members": [
							{
								"astId": 3,
								"contract": "contracts/VotingSystem.sol:VotingSystem",
								"label": "name",
								"offset": 0,
								"slot": "0",
								"type": "t_string_storage"
							},
							{
								"astId": 5,
								"contract": "contracts/VotingSystem.sol:VotingSystem",
								"label": "description",
								"offset": 0,
								"slot": "1",
								"type": "t_string_storage"
							},
							{
								"astId": 8,
								"contract": "contracts/VotingSystem.sol:VotingSystem",
								"label": "votingIds",
								"offset": 0,
								"slot": "2",
								"type": "t_array(t_uint256)dyn_storage"
							},
							{
								"astId": 11,
								"contract": "contracts/VotingSystem.sol:VotingSystem",
								"label": "voters",
								"offset": 0,
								"slot": "3",
								"type": "t_array(t_address)dyn_storage"
							},
							{
								"astId": 15,
								"contract": "contracts/VotingSystem.sol:VotingSystem",
								"label": "votersChoiceMapping",
								"offset": 0,
								"slot": "4",
								"type": "t_mapping(t_address,t_bool)"
							},
							{
								"astId": 19,
								"contract": "contracts/VotingSystem.sol:VotingSystem",
								"label": "votedMapping",
								"offset": 0,
								"slot": "5",
								"type": "t_mapping(t_address,t_bool)"
							},
							{
								"astId": 21,
								"contract": "contracts/VotingSystem.sol:VotingSystem",
								"label": "yesVotes",
								"offset": 0,
								"slot": "6",
								"type": "t_uint256"
							},
							{
								"astId": 23,
								"contract": "contracts/VotingSystem.sol:VotingSystem",
								"label": "noVotes",
								"offset": 0,
								"slot": "7",
								"type": "t_uint256"
							},
							{
								"astId": 25,
								"contract": "contracts/VotingSystem.sol:VotingSystem",
								"label": "active",
								"offset": 0,
								"slot": "8",
								"type": "t_bool"
							}
						],
						"numberOfBytes": "288"
					},
					"t_uint256": {
						"encoding": "inplace",
						"label": "uint256",
						"numberOfBytes": "32"
					}
				}
			},
			"userdoc": {
				"kind": "user",
				"methods": {},
				"version": 1
			}
		}
	}
}